:400000000080002011000000CD120000CD12000008B5044B1A6803F53F5302331A6001F075F900BFFA46004010B5054C237833B9044B13B10448AFF300800123237010BD4A
:400040004881FF1F0000000064230000084B10B51BB108490848AFF300800848036803B910BD074B002BFBD0BDE81040184700BF000000004C81FF1F64230000C880FF1FF4
:4000800000000000FEE700BF38B500220F4B1A7015E001F077FA0D4CE368E0540133E3600A2001F08FF9E368042B08D10025E5542B4604222146206900F00CFBE56001F0FB
:4000C0006BFA0028E5D101F055FA38BD6481FF1F10B584B0204B186900F08AFB0028F9D164230A2201A91C48006900F02FFB1B4901A802F061F80446642001F063F9184921
:40010000204602F059F80446164902F04AF820B944F2BF4001F03EFB19E01349204602F040F820B944F69B2001F034FB0FE00F49204602F036F818B9012001F08FF906E010
:400140000B49204602F02DF808B901F087F9322000F000FEBEE700BF6481FF1F682300006C2300007023000074230000782300007C2300000000000008B5012001F0E4FAAA
:400180000A2001F035F9002001F0DEFA01F0D4FA0128FBD101F0B8FA01F0CEFA0028FBD101F0C0FAC04380B201F01CFD08A3D3E9002301F07DFD01F08DFF074B1860C820FB
:4001C00000F0C8FD01F042FAD7E700BFAFF30080DBA7E3310395913F9402002008B5074801F062F901F0B2F901F01CFB44F69B2001F0D0FA01F084FB08BD00BF89000000A1
:4002000000B583B062B600F039F9FFF7E7FF01220021642000F03EFA154B186100B9FEE70023019304220092C8221249124800F039FC012800D0FEE70023019304220092D9
:40024000C8220E490E4800F02DFC012800D0FEE70023019304220092C8220849094800F021FC012800D0FEE700F04EFCFEE700BF6481FF1F80230000D1000000882300000A
:40028000790100008500000038B5044610F0070F02D020F00704083400F062FC104B1B682BB90F4A02F10C0323F0070313600D4BD3F83C391C4447F6F772944208D8A34295
:4002C00008D2074A15681D44064BC3F83C4902E0002500E0002500F0D1FC284638BD00BF7881FF1F40F8FF1F704700BF82B0002301934FF0A00383F31188BFF36F8FBFF35A
:400300004F8F019B002BFCD002B0704706480068006880F3088862B661B6BFF34F8FBFF36F8F00DF00BF000008ED00E04FF0807340F8043C21F0010140F8081C034B40F841
:400340000C3C40F8202C4038704700BFED020000074B19680868B0E8F00F80F30988BFF36F8F4FF0000080F311884EF00D0E7047580200204FF0A00383F31188BFF36F8FD0
:40038000BFF34F8F024A136801331360704700BFCC80FF1F034A1368013B13600BB983F311887047CC80FF1F0000000000000000EFF30980BFF36F8F0D4B1A6820E9F00FF7
:4003C00010602DE908404FF0A00080F3118800F0DBFC4FF0000080F31188BDE8084019680868B0E8F00F80F30988BFF36F8F70475802002008B54FF0A00383F31188BFF378
:400400006F8FBFF34F8F00F0B5FB18B14FF08052024B1A60002383F3118808BD04ED00E0054B00221A6005490A6045F6BF51044A116007221A60704710E000E018E000E075
:4004400014E000E010B50B4B1A6842F460021A601A6842F060421A60FFF7E2FF0024064B1C60FFF753FF00F08FFCFFF73FFF204610BD00BF20ED00E0CC80FF1F034B044A85
:40048000DA62044A9A63044ADA6370470080FF1F51030000B1030000F503000000F1080343604FF0FF328260C360036100230360704700BF00230361704700BF43684B600E
:4004C0009A688A609A68516099600861036801330360704730B40D68B5F1FF3F01D1026907E000F1080200E01A4653681C68A542FAD253684B6099608A60516008610368E6
:400500000133036030BC704703694268816891608268416851605A68904201D182685A60002202611A68013A1A601868704700BF8268436813440068181A824200D8801AD5
:40054000704700BFF8B504460D4617461E462022002101F01EFEA561A760E660069B1BB1237F43F001032377F8BD00BF2DE9F041064688461746446885682D1B954228BF86
:40058000154680692A46204401F0F8FDAF4205D97A1B08EB0501B06901F0F0FDE319B268934200D39B1A73603846BDE8F08100BF30B583B004460D460192ABB11A46037FCA
:4005C00013F0010F06D1019B9A4228BF1A46019201230CE0069B9A4208D304220DEB0201FFF7C4FF012302E0002300E000232BB1019A29462046FFF7B9FF00E0002003B0A4
:4006000030BD00BF2DE9F0419A4228BF1A461446DAB18846054606688768BF1B974228BF174681693A463144404601F0A7FDBC4205D9E21BA96908EB070001F09FFD26447C
:40064000AB689E4200D3F61A2E602046BDE8F0812DE9F04383B005460F4690461C460A9E76B1D0F80090324601A9FFF7CBFFA41B019B434505D9C5F800900023019300E098
:4006800001922346019A39462846FFF7BBFF03B0BDE8F083F0B583B017460D4601B90125461C2130FFF7F0FD044630B100972B46324600F12001FFF745FF204603B0F0BD80
:4006C0008268036813444068181A0138824200D8801A70472DE9F04182B004460E4615469846037F13F0010F01D0171D00E017462046FFF7E5FF009703462A4631462046BA
:40070000FFF756FF0546E8B12046FFF711FFE368984217D3EFF311864FF0A00383F31188BFF36F8FBFF34F8F23694BB12069CDF8008000231A46194600F012FC0023236188
:4007400086F31188284602B0BDE8F0812DE9F04383B00446884691461F46037F13F0010F01D0042600E00026FFB1FFF703FE2046FFF7DEFE0546864205D3002000F05CFC99
:4007800000F03AFB2061FFF705FEAE4211D33B4600224FF0FF31104600F034FB002323612046FFF7C5FE054603E02046FFF7C0FE0546B54217D900962B464A46414620467B
:4007C000FFF746FF054678B100F0CAF963693BB1606900231A46194600F066FB0023636100F04CFA00E00025284603B0BDE8F083026843689A4201D1012070470020704716
:40080000094B9B6A1B680BB9012300E0002323B14FF0FF32044BDA627047034B9A6AD268D2685268DA6270478001002010B50446006BFFF759FD2046FFF756FD10BD00BF56
:400840002DE9F04781460D4617469A46089EDDF824800A9C9200A521206B01F09AFC236B07F18042013A03EB820727F00707002306E0E95CE21882F83410EA5C12B1013343
:400880000B2BF6D9002384F83F30042E00D90426E662266400256564201DFFF70BFE04F11800FFF707FE2461C6F10506A6616462A56484F84C50524649463846FFF736FDE9
:4008C0002060B8F1000F01D0C8F80040BDE8F08770B5002407E004EB8402930010481844FFF7DCFD0134042CF5D90E4C04F194063046FFF7D3FD04F1A8052846FFF7CEFDEF
:4009000004F11400FFF7CAFD04F1BC00FFF7C6FD2046FFF7C3FDA662C4F8D05070BD00BFB00100208001002038B50546FFF722FD264BD3F8D4200132C3F8D420D3F8D830F7
:400940004BB9224BC3F8D850D3F8D430012B10D1FFF7BEFF0DE01D4BD3F8DC304BB91B4BD3F8D830DA6AEB6A9A4202D8174BC3F8D850164CD4F8E0300133C4F8E030EB6A04
:40098000012202FA03F1D4F8E4200A43C4F8E42004F1300003EB83039A00291D1044FFF78DFDFFF7F7FCD4F8DC306BB1D4F8D830DA6AEB6A9A4207D24FF08052044B1A6021
:4009C000BFF34F8FBFF36F8F38BD00BF8001002004ED00E038B517E0FFF7CCFC0D4CD4F8C830DD68281DFFF78FFDD4F8D430013BC4F8D430D4F8E830013BC4F8E830FFF710
:400A0000C9FC2846FFF712FF024BD3F8E830002BE2D138BD8001002008B5FFF7DBFFFCE770B504460E461E4BD3F8EC50D3F8D8000430FFF769FD60B9194BD3F8D820D16A87
:400A4000012202FA01F1D3F8E42022EA0102C3F8E420B4F1FF3F07D136B11148D0F8D8100431FFF72BFD70BD2C440D4BD3F8D8305C60A54208D90A4BD3F8D000D3F8D810DB
:400A80000431FFF727FD70BD054DA86AD5F8D8100431FFF71FFDEB6A9C4200D2EC6270BD800100202DE9F04385B006460F46154698469000FFF7E8FB60B181465020FFF73A
:400AC000E3FB044610B1C0F8309004E04846FFF70BFC00E000248CB10023039302940D9B01930C9B009343462A4639463046FFF7A7FE2046FFF718FF012001E04FF0FF30B4
:400B000005B0BDE8F08300BF00B583B0104B019300230093C8220F490F48FFF7C3FF012813D14FF0A00383F31188BFF36F8FBFF34F8F0A4B4FF0FF32DA620122C3F8DC2032
:400B40000022C3F8EC20FFF77DFC03B05DF804FB7402002094230000190A000080010020034AD2F8F0300133C2F8F030704700BF800100202DE9F0413F4BD3F8F030002BC2
:400B800066D13D4BD3F8EC700137C3F8EC7067B99A6AD3F8D0109962C3F8D020D3F8F8200132C3F8F820FFF72BFE334BDB6A9F4205D24FF000083FE04FF0010801E04FF03A
:400BC00000082D4B9B6A1B680BB9012300E0002323B14FF0FF32284BDA622DE0264B9B6ADB68DC6863689F4202D2234AD36223E0261D3046FFF788FCA36A1BB104F11800C7
:400C0000FFF782FCE36A012202FA03F11A4DD5F8E4200A43C5F8E42005F1300003EB83039A0031461044FFF749FCE26AD5F8D830DB6A9A42C0D2C4E70F49D1F8D830DB6A73
:400C400003EB83039A000A44136B012B09D80AE0094AD2F8FC300133C2F8FC304FF0000801E04FF00108044BD3F800310BB14FF001084046BDE8F0818001002070B5FFF729
:400C800079FB324BD3F8F020013AC3F8F020D3F8F030002B53D12D4BD3F8D43043BB002450E02A4C236ADD6805F11800FFF72CFC2E1D3046FFF728FCEB6A012202FA03F1D8
:400CC000D4F8E4200A43C4F8E42004F1300003EB83039A0031461044FFF7F0FBEA6AD4F8D830DB6A9A4204D30122C4F8002100E00025164B5B69002BD3D10DB1FFF780FDEE
:400D0000124BD3F8FC4064B1FFF734FF18B101220E4BC3F80021013CF6D100220B4BC3F8FC200A4BD3F800315BB14FF08052084B1A60BFF34F8FBFF36F8F012402E00024F7
:400D400000E00024FFF726FB204670BD8001002004ED00E010B548B10446FFF701FF00212046FFF75DFEFFF789FF00E0002038B94FF08052034B1A60BFF34F8FBFF36F8FF5
:400D800010BD00BF04ED00E01A4BD3F8F03023B10122184BC3F80021704710B4154A0023C2F80031D2F8E430B3FA83F3DBB2C3F11F039800C418A10011444C6B64684C6368
:400DC00002F130011844820008320A44944206D1606803EB83018A0006490A445063054903EB83039A000A44536BDB68C1F8D83010BC704780010020014BD3F8D800704772
:400E000080010020F8B507460D4614461E46FFF7B1FA234BD3F8D83093F84C30DBB2022B18D01F4BD3F8D820906C20EA07009064D3F8D830012283F84C205EB11146304694
:400E4000FFF7EEFD4FF08052164B1A60BFF34F8FBFF36F8FFFF79EFAFFF78CFA24B1104BD3F8D8309B6C23600D4BD3F8D83093F84C30DBB2022B08D1094BD3F8D820936CF3
:400E800023EA05059564012400E00024044BD3F8D830002283F84C20FFF77CFA2046F8BD8001002004ED00E0F8B504460F4615461E46FFF75FFA0EB1A36C336094F84C3012
:400EC000DBB2022284F84C206A1E032A15D8DFE802F002070C0FA26C1743A76401250FE0A26C0132A26401250AE0A764012507E0022B04D0A764012502E0012500E00025A4
:400F0000012B24D1271D3846FFF7FEFAE36A012202FA03F1104ED6F8E4200A43C6F8E42006F1300003EB83039A0039461044FFF7C5FAE26AD6F8D830DB6A9A4207D94FF022
:400F40008052064B1A60BFF34F8FBFF36F8FFFF721FA2846F8BD00BF8001002004ED00E0F8B5EFF311844FF0A00585F31188BFF36F8FBFF34F8F0BB1856C1D6090F84C30A8
:400F8000DBB2022580F84C50013A032A15D8DFE802F002070C0F826C1143816401250FE0826C0132826401250AE08164012507E0022B04D08164012502E0012500E00025D9
:400FC000012B31D106461A4BD3F8F030B3B9071D3846FFF799FAF36A012202FA03F11448D0F8E4200A43C0F8E420303003EB83039A0039461044FFF761FA04E000F118016F
:401000000C48FFF75BFAF26A094BD3F8D830DB6A9A4209D9069B1BB10123069A136003E00122034BC3F8002184F311882846F8BD800100209401002010B5044610B90A4B01
:40104000D3F8D840FFF796F994F84C30DBB2022B04D1002384F84C30012400E00024FFF799F9204610BD00BF80010020FEE700BFF0B40022174611E050F82760F3B226F0D0
:40108000FF0608E001EB420511F812406D78A5550132013BDBB2002BF4D10137192FEBD9F0BC7047064B1B78DBB203F00701054A11701B09013213704422034B1A70704738
:4010C000CF0100496E5800407658004008B50A46002101F05EF808BD38B517222A4B1A8018232A490B7002310A8002310B7002310A80274A13704FF49C71023211800232C6
:4011000013700222234B1A7008224FF040231A70032103F5007319701F4B1B78DBB21F490B701F4B1A8041F25122023B1A80002419250CE01B4B1B7803F0010343EA440401
:4011400004F003044FF4F07000F0EAFB013D0DB1032CEFD115B90320FFF788FF124B4FF480721A8007221A70002210490A704820023108701A700222033B1A700C4A137865
:4011800043F00F03137038BD80400040824000408A4000400043004008010049A146004022420040254200400440004006400040A243004008B500F0E1FF08BD38B572B689
:4011C000334A137843F00403137000240CE0314D630019194A0011462A44084691882858FFF774FF0134E4B2092CF0D900240BE02849A3001819420088188022016CC06B6F
:40120000FFF7D8FF0134E4B2002CF1D022494FF09040FFF72DFF214A137843F0020313701032137843F0020313701D4C237843F040032370A2F58632513A137843F010039C
:401240001370082217491848FFF7B4FF0A2217491748FFF7AFFF082216491748FFF7AAFF164A137843F008031370154D61232B70FFF732FF81232B700122124B1A70FFF7AF
:4012800011FF0E2221461048FFF794FF38BD00BFE84600409C2300006800004803500140A043004044040048025100404C0400481051004058040048225100402243004006
:4012C0000048004004000840B043004008B500F029FF03680C2B00D1FEE7FEE708B5094B1A681044084BC31A802B02DC054B186005E000F017FF0C2303604FF0FF3210462A
:4013000008BD00BFD080FF1FB002002008B5104E104D16E029686B68AC68002204E051F8040B43F8040B0432A242F8D1E868002203E0002143F8041B04328242F9D110359F
:40134000013E002EE6D100F0F3FEFEF759FFFEE7010000000824000008B5104A104B1A60104A136843F40073136000230AE0032B03D80D4A52F8231000E00C490C4A42F87C
:40138000231001332F2BF2D90A4B1A780A4B1A70074A0A4B1A60FFF711FF08BD0004FA050CED00E014ED00E000000000CD1200000080FF1FBC760040C080FF1F08ED00E011
:4013C00001BE704710B5044605E0084B186800F0A7FAA4F50044B4F5004FF6D8034B586800FB04F000F09CFA10BD00BFD480FF1F08B5034B1B7A00FB03F000F091FA08BD2D
:40140000D480FF1F70B504460E46074B1D681F2802D90020FFF7D4FF04F01F04103455F8240045F8246070BD08ED00E038B504460D46072902D90020FFF7C2FF1F2C02D974
:401440000020FFF7BDFF04F01F0000F1604000F564406D01EDB2057038BD00BF044A137803F0FD03400000F0020018431070704720510040014B1B681864704708ED00E00F
:401480004001C0B2014B1870704700BF00E400E00122014B1A60704700E100E00122014B1A60704780E100E010B50446FFF7F6FF2046FFF7DFFF0720FFF7E2FFFFF7E8FF1A
:4014C00010BD00BF08B572220B4B1A70202203F580731A7009490120FFF794FF07210120FFF7A4FF0622064B1A70472210331A70022252331A7008BD89640040B115000076
:401500002865004010B500F013FA04460D4A137843F02003137002F58072137843F0100313700132137843F0100313700223064A1360A2F5C072136000F066F8204600F08B
:40154000FBF910BD9964004080E200E008B5054B1B7823B9FFF7B6FF0122024B1A70FFF7D1FF08BD84020020014B1878704700BF49650040024B187800F07F00704700BFD7
:401580006965004010B5FFF7F5FF0402FFF7ECFF204380B210BD00BF044B1B7813F0200F01D0012070470020704700BF6965004013E0104B1B78DBB20E2B02D900220D4B09
:4015C0001A700C4A1378DBB20B49CB5CDBB20B490B7013780133DBB21370064B1B78DBB2074A1278934204D0064B1B7813F0040FDFD07047850200209802002049640040AA
:40160000860200206A650040054A137843F0080313701032137843F008031370704700BFA2430040084A137843F0040313701032137843F00403137002F66532137843F0BE
:4016400001031370704700BFA3430040084A137803F0FE031370A2F67532137803F0FB0313701032137803F0FB031370704700BF184F0040014B1870704700BF1B4F004063
:40168000014B1880704700BF1C4F0040014B1880704700BF1E4F004008B5184B1A7802F001021A7016490A7802F0FC020A701A7842F004021A700B331A7802F0CF021A7031
:4016C0001A7842F030021A701A7802F0F0021A701A7842F00F021A700A4A137843F0010313704FF6FF70FFF7CBFF4FF6FF70FFF7CDFF0020FFF7BEFF08BD00BF184F00408A
:401700001A4F0040194F004008B5054B1B7823B9FFF7C2FF0122024B1A70FFF783FF08BD88020020024B1B88024B188880B270471E4F0040204F0040024B1878C0F3001082
:40174000704700BF21510040044A137803F0F703C00000F0080018431070704720510040084A137843F0020313701032137843F00203137002F65932137843F00103137098
:40178000704700BFA3430040014B1880704700BF104F0040014B1880704700BF124F0040014B1870704700BF0F4F004008B51A4A137843F0020313700232137803F08F0306
:4017C00043F030031370154B1A7802F0CF021A701A7842F030021A701A7802F0F0021A701A7842F00F021A7044F61F60FFF7CCFF44F64300FFF7CEFF0020FFF7D1FF084AF0
:40180000137843F00203137002F66A32137843F00103137008BD00BF0C4F0040174F0040A343004008B5054B1B7823B9FFF7BEFF0122024B1A70FFF793FF08BD890200207D
:40184000084A137843F0010313701032137843F00103137002F64D32137843F001031370704700BFA3430040014B1880704700BF044F0040014B1880704700BF064F004016
:40188000014B1870704700BF034F004008B5194A137843F0020313700232137803F08F0343F010031370144B1A7802F0CF021A701A7842F030021A701A7802F0F0021A701B
:4018C0001A7842F00F021A704FF4FA60FFF7CCFF0020FFF7CFFF0020FFF7D2FF074A137843F00103137002F65E32137843F00103137008BD004F00400B4F0040A3430040E9
:4019000008B5054B1B7823B9FFF7C0FF0122024B1A70FFF795FF08BD8A020020000000000230800803D000BF01380046FCD17047EFF3108072B6704780F31088704700BF60
:4019400081F0004102E000BF83F0004330B54FEA41044FEA430594EA050F08BF90EA020F1FBF54EA000C55EA020C7FEA645C7FEA655C00F0E2804FEA5454D4EB5555B8BFBB
:401980006D420CDD2C4480EA020281EA030382EA000083EA010180EA020281EA0303362D88BF30BD11F0004F4FEA01314FF4801C4CEA113102D0404261EB410113F0004FA9
:4019C0004FEA03334CEA133302D0524263EB430394EA050F00F0A780A4F10104D5F1200E0DDB02FA0EFC22FA05F2801841F1000103FA0EF2801843FA05F359410EE0A5F117
:401A000020050EF1200E012A03FA0EFC28BF4CF0020C43FA05F3C01851EBE37101F0004507D54FF0000EDCF1000C7EEB00006EEB0101B1F5801F1BD3B1F5001F0CD3490830
:401A40005FEA30004FEA3C0C04F101044FEA445212F5800F80F09A80BCF1004F08BF5FEA500C50F1000041EB045141EA050130BD5FEA4C0C404141EB010111F4801FA4F1B2
:401A80000104E9D191F0000F04BF01460020B1FA81F308BF2033A3F10B03B3F120020CDA0C3208DD02F1140CC2F10C0201FA0CF021FA02F10CE002F11402D8BFC2F1200CBF
:401AC00001FA02F120FA0CFCDCBF41EA0C019040E41AA2BF01EB0451294330BD6FEA04041F3C1CDA0C340EDC04F11404C4F1200220FA04F001FA02F340EA030021FA04F33D
:401B000045EA030130BDC4F10C04C4F1200220FA02F001FA04F340EA0300294630BD21FA04F0294630BD94F0000F83F4801306BF81F480110134013D4EE77FEA645C18BFE7
:401B40007FEA655C29D094EA050F08BF90EA020F05D054EA000C04BF1946104630BD91EA030F1EBF0021002030BD5FEA545C05D14000494128BF41F0004130BD14F58004D6
:401B80003CBF01F5801130BD01F0004545F0FE4141F470014FF0000030BD7FEA645C1ABF194610467FEA655C1CBF0B46024650EA013406BF52EA033591EA030F41F400215A
:401BC00030BD00BF90F0000F04BF0021704730B54FF4806404F132044FF000054FF0000150E700BF90F0000F04BF0021704730B54FF4806404F1320410F0004548BF40422F
:401C00004FF000013EE700BF42004FEAE2014FEA31014FEA02701FBF12F07F4393F07F4F81F06051704792F0000F14BF93F07F4F704730B54FF4607401F0004521F0004150
:401C400020E700BF50EA010208BF704730B54FF000050AE050EA010208BF704730B511F0004502D5404261EB41014FF4806404F132045FEA915C3FF4DCAE4FF003025FEA31
:401C8000DC0C18BF03325FEADC0C18BF033202EBDC02C2F1200300FA03FC20FA02F001FA03FE40EA0E0021FA02F11444C1E600BF70B54FF0FF0C4CF4E06C1CEA11541DBF0B
:401CC0001CEA135594EA0C0F95EA0C0F00F0DEF82C4481EA030621EA4C5123EA4C5350EA013518BF52EA033541F4801143F4801338D0A0FB02CE4FF00005E1FB02E506F08A
:401D00000042E0FB03E54FF00006E1FB03569CF0000F18BF4EF0010EA4F1FF04B6F5007F64F5407404D25FEA4E0E6D4146EB060642EAC62141EA55514FEAC52040EA5E5056
:401D40004FEACE2EB4F1FD0C88BFBCF5E06F1ED8BEF1004F08BF5FEA500E50F1000041EB045170BD06F0004646EA010140EA020081EA0301B4EB5C04C2BFD4EB0C0541EA64
:401D8000045170BD41F480114FF0000E013C00F3AB8014F1360FDEBF002001F0004170BDC4F10004203C35DA0C341BDC04F11404C4F1200500FA05F320FA04F001FA05F299
:401DC00040EA020001F0004221F0004110EBD37021FA04F642EB06015EEA430E08BF20EAD37070BDC4F10C04C4F1200500FA04F320FA05F001FA04F240EA020001F00041E3
:401E000010EBD37041F100015EEA430E08BF20EAD37070BDC4F1200500FA05F24EEA020E20FA04F301FA05F243EA020321FA04F001F0004121FA04F220EA020000EBD37083
:401E40005EEA430E08BF20EAD37070BD94F0000F0FD101F00046400041EB010111F4801F08BF013CF7D041EA060195F0000F18BF704703F00046520043EB030313F4801F48
:401E800008BF013DF7D043EA0603704794EA0C0F0CEA135518BF95EA0C0F0CD050EA410618BF52EA4306D1D181EA030101F000414FF0000070BD50EA410606BF104619469E
:401EC00052EA430619D094EA0C0F02D150EA013613D195EA0C0F05D152EA03361CBF104619460AD181EA030101F0004141F0FE4141F470014FF0000070BD41F0FE4141F49B
:401F0000780170BD70B54FF0FF0C4CF4E06C1CEA11541DBF1CEA135594EA0C0F95EA0C0F00F0A7F8A4EB050481EA030E52EA03354FEA013100F088804FEA03334FF080551B
:401F400045EA131343EA12634FEA022245EA111545EA10654FEA00260EF000419D4208BF964244F1FD0404F5407402D25B084FEA3202B61A65EB03055B084FEA32024FF436
:401F800080104FF4002CB6EB020E75EB030E22BFB61A754640EA0C005B084FEA3202B6EB020E75EB030E22BFB61A754640EA5C005B084FEA3202B6EB020E75EB030E22BFA7
:401FC000B61A754640EA9C005B084FEA3202B6EB020E75EB030E22BFB61A754640EADC0055EA060E18D04FEA051545EA16754FEA06164FEAC30343EA52734FEAC2025FEA58
:402000001C1CC0D111F4801F0BD141EA00014FF000004FF0004CB6E711F4801F04BF01430020B4F1FD0C88BFBCF5E06F3FF6AFAEB5EB030C04BFB6EB020C5FEA500C50F16B
:40204000000041EB045170BD0EF0004E4EEA113114EB5C04C2BFD4EB0C0541EA045170BD41F480114FF0000E013C90E645EA060E8DE60CEA135594EA0C0F08BF95EA0C0FBB
:402080003FF43BAF94EA0C0F0AD150EA01347FF434AF95EA0C0F7FF425AF104619462CE795EA0C0F06D152EA03353FF4FDAE1046194622E750EA410618BF52EA43067FF450
:4020C000C5AE50EA41047FF40DAF52EA43057FF4EBAE12E74FEA410212F5001215D211D56FF47873B3EB625212D94FEAC12343F0004343EA505311F0004F23FA02F018BFB0
:40210000404270474FF00000704750EA013005D111F0004008BF6FF0004070474FF00000704700BF014B1868704700BF4481FF1F0E4B70B51E460E4C0025E41AA410A542FD
:4021400004D056F8253098470135F8E700F04AF9084B094C1E46E41AA4100025A54204D056F8253098470135F8E770BDF0230000F0230000F0230000F823000010B5431EE5
:402180000A44914204D011F8014B03F8014FF8E710BD03460244934202D003F8011BFAE7704710F8012B11F8013B012A28BF9A42F7D0D01A70470000174B2DE9F0411D68FC
:4021C0000646AC6D0F46FCB9502000F053F8A8658460AB6D046044601C61DC60AB6D9C615C61AB6DDC629C62AB6D5C631C63AB6DDC639C63AB6D5C641C64AB6DDC649C6479
:40220000AB6D1C77AB6D5C62AA6D39463046BDE8F041012300F002B84481FF1FF0B548B9106838B9F0BD17F8016B5EB1B542FAD12BB1204604460F4614F8015BF3E71460EB
:402240000370F0BD4DB915602846F0BD17F8016BB54207D0002EF9D11C4623460F4613F8015BF3E715B10021217000E02B461360F0BD0000024B0146186800F003B800BF9F
:402280004481FF1F70B5CD1C25F0030508350C2D38BF0C25002D064601DBA94202D90C23336046E000F05CF8234B1C681A462146A1B10B685B1B0ED40B2B03D90B60CC18F4
:4022C000CD501EE08C420BBF63684B681360636018BF0C4615E00C464968E9E7174C23681BB9304600F02CF820602946304600F027F8431C18D0C41C24F00304A0420DD1C4
:402300002560304600F02DF804F10B00231D20F00700C31A0ED05A42E25070BD211A304600F00EF80130EBD10C233360304600F018F8002070BD00BF900200208C02002048
:4023400038B5064C0023054608462360FEF7C6FF431C02D1236803B12B6038BDA802002070477047000000003B0000003A00000053310000533200004C3100004C32000083
:402380005461736B20310000526561642053656E736F720049444C4500000000004F00402400305100404000C05100401000F0510040100000000140001000140140800435
:4023C00000190140000300400140000A004C0140000200500140200080180140C403004880004300F8B500BFF8BC08BC9E4670474D00000059130000F8B500BFF8BC08BCEE
:402400009E4670472900000018240000C880FF1F800000006881000000000000AAAAAAAAB00200200000E02EC05D00001800000000366E010000000000000000000000006B
:402440000000000000000000000000000000000000000000E22300000000000000000000000000000000000000000000000000000000000000000000000000000000000057
:402480000000000000000000000000000000000000000000E480FF1F000000000000000000000000000000000000000000000000000000000000000000000000000000009A
:4024C00000000000000000000000000000000000000000000000000000000000000000000000000000000000000000000000000000000000000000000000000000000000DC
:40250000000000000000000000000000000000000000000000000000000000000000000000000000000000000000000000000000000000000000000000000000000000009B
:40254000000000000000000000000000000000000000000000000000000000000000000000000000000000000000000000000000000000000000000000000000000000005B
:40258000000000000000000000000000000000000000000000000000000000000000000000000000000000000000000000000000000000000000000000000000000000001B
:020000040003F7
:0200000480007A
:40000000054F004003520040016400400265004001070140480801403309014001150140021701401E18014045190140451A01404B1B014003400140044101400342014056
:40004000094301400245014001460140014701400948014003490140064C0140034D0140045001400151014001200A2716361910223608400C801120897289388A0FEA0488
:400080000301050409040D0415031D03250429023104370339803F4159045F0180018304841F8518880289088C038D278F189013920C940C953C96139702980F993F9A10BA
:4000C0009D10A008A104A340A404A80CA91CAB21AE13AF23B00FB140B21CB31FB538BA2ABB08C065C104C50BC6CEC80DC9FFCAFFCBFFCEF0CF44D00CD602D710D804D9041C
:40010000DA04DB04DC33DD33DF01E6C0EA40EB020120020203A00A440B1010811204136818401A401B24210922102310274228012B842F28308031083320348036083780F6
:40014000386039023A043C023E443F1A4080480149044A08512052805B406954709073289D01A901C00FC20EC40FCA6DCC5ECEFFD001D20CD608E602E202E8100802100123
:4001800016011A012004260228012C0230063201380A4004470449FF4A074BFF4C404D204EF04F05500858045A045C035D035F01604061A86240632000020120021607047D
:4001C00008080A440E440F1011041350144016281740180119221C601F0220802150232029042B062E202F0C311032183344388039203B08400942484320470249904B406A
:4002000050485705590260046101630178407B018440915492649310974099049B029D219F80A120A280A320A60AA789C04FC27EC4F7CA0ECC0ECE0ED08DD20CD601D80DCC
:40024000E81000020401057009700A040C010F081110120213601402150A170419031A021B041D031E021F0420082120231024012540271029032A042B0C2F0530023170B8
:400280003208330F340436013B083E1554015604580459045B045C335D305F0183018702880C8A0397059A089E039F03A20CA801A906AA06AB01AC01AE0EAF06B107B20FD2
:4002C000BA08BB02D804D904DC33DF0100200140021003400410084A09200B100C400F081008110412801302140816401740180419841A401C101F08220A231027C028089B
:400300002A042B812E802F08301031203202334836083740384039143AD03F0A581059045A405B02634080028308874090409154940498409A049D809E109FC0A018A12058
:40034000A280A385A60AA708A940B001B380B721C04FC2CFC4DECA3FCC5FCECED60FD801E80130803620CC306302A480A620D640A480A620A7011B011C106840A620A7011F
:40038000A880C630DC20EA206080D8029C809C806B016F0184408701A440A620B410DAC0E2408620A620E6400C405F01B480C201D601E808AB01B040EA0100080C0810081E
:4003C0001C08000F14000A000C1C00022840060330000120300000003010000C00003020000C0011000000000C1400000010300000093010300000200C1F0340000200006E
:40040000000040454502060001000C0E14FFFFFF62A0F0410C0000001800040004040404333300010000000000004002001030100010101200000000000000000000000028
:400440000000000000808000800000004000804B4B00400000000000102A2A00200000000000000000000000000000000000000000000000000000000000000000000000E2
:40048000000000000000000000000000000000000000000000000000000000000000000000000000000000000000000000000000000000000000000000000000000000003C
:4004C00000000000000000000000000000000000000000000000000000000000000000000000000000000000000000000000000000000000000000000000000000000000FC
:4005000000000000000000000000000000000000000000000000000000000000000000000000000000000000000000000000000000000000000000000000000000000000BB
:40054000000000000000000000000000000000000000000000000000000000000000000000000000000000000000000000000000000000000000000000000000000000007B
:0200000490006A
:0400000000004005B7
:0200000490105A
:04000000BC90ACAF55
:0200000490303A
:02000000824438
:0200000490402A
:4000000000000000000000000000000000000000000000000000000000000000000000000000000000000000000000000000000000000000000000000000000000000000C0
:400040000000000000000000000000000000000000000000000000000000000000000000000000000000000000000000000000000000000000000000000000000000000080
:400080000000000000000000000000000000000000000000000000000000000000000000000000000000000000000000000000000000000000000000000000000000000040
:4000C0000000000000000000000000000000000000000000000000000000000000000000000000000000000000000000000000000000000000000000000000000000000000
:0200000490501A
:0C00000000012E16106900012E2592ADA3
:00000001FF