:400000000080002011000000F1100000F110000008B5044B1A6803F53F5302331A6001F06FF800BFFA46004010B5054C237833B9044B13B10448AFF300800123237010BD0D
:400040004881FF1F00000000D01F0000084B10B51BB108490848AFF300800848036803B910BD074B002BFBD0BDE81040184700BF000000004C81FF1FD01F0000C880FF1F24
:4000800000000000704700BFFEE700BF10B588B0214A07CA8DE80700002406E008AB234413F8200C01F05AF90134684601F087FFA042F3D86423142203A91848006800F0AA
:4000C000C3FA20B3164903A801F06FFF20B144F2BF4001F065FA1AE0124903A801F065FF20B144F69B2001F05BFA10E00E4903A801F05BFF18B1012001F094F807E00B4971
:4001000003A801F052FF10B1002001F08BF8322000F096FDCEE700BFFC1F00006481FF1FD41F0000E01F0000EC1F0000F41F000008B501F0FDF84138032814D8DFE800F01C
:4001400002070C1044F2BF4001F02AFA0BE044F69B2001F025FA06E0012001F063F802E0002001F05FF8322000F06AFDE1E700BF08B5012001F0EEF90A2001F01DF800204D
:4001800001F0E8F901F0DEF90128FBD101F0C2F901F0D8F90028FBD101F0CAF9C04380B201F024FC08A3D3E9002301F085FC01F095FE074B1860C82000F042FD01F04CF9BD
:4001C000D7E700BFAFF30080DBA7E3310395913F7C02002008B5074801F04AF801F09AF801F026FA44F69B2001F0DAF901F08EFA08BD00BF8500000000B583B062B600F0C6
:400200004DF9FFF7E7FF01220021642000F006FA1B4B186000B9FEE70023019304220092C8221849184800F0B3FB012800D0FEE70023019304220092C8221249134800F0D3
:40024000A7FB012800D0FEE70023019304220092C8220F490F4800F09BFB012800D0FEE70023019304220092C82209490A4800F08FFB012800D0FEE700F0BCFBFEE700BFF2
:400280006481FF1F082000008D0000003101000010200000710100008900000038B5044610F0070F02D020F00704083400F0CEFB104B1B682BB90F4A02F10C0323F00703C0
:4002C00013600D4BD3F83C391C4447F6F772944208D8A34208D2074A15681D44064BC3F83C4902E0002500E0002500F03DFC284638BD00BF6881FF1F30F8FF1F704700BF9E
:4003000082B0002301934FF0A00383F31188BFF36F8FBFF34F8F019B002BFCD002B0704706480068006880F3088862B661B6BFF34F8FBFF36F8F00DF00BF000008ED00E0A4
:400340004FF0807340F8043C21F0010140F8081C034B40F80C3C40F8202C4038704700BF01030000000000000000000000000000074B19680868B0E8F00F80F30988BFF390
:400380006F8F4FF0000080F311884EF00D0E7047480200204FF0A00383F31188BFF36F8FBFF34F8F024A136801331360704700BFCC80FF1F034A1368013B13600BB983F34A
:4003C00011887047CC80FF1F0000000000000000EFF30980BFF36F8F0D4B1A6820E9F00F10602DE908404FF0A00080F3118800F041FC4FF0000080F31188BDE808401968A7
:400400000868B0E8F00F80F30988BFF36F8F70474802002008B54FF0A00383F31188BFF36F8FBFF34F8F00F01BFB18B14FF08052024B1A60002383F3118808BD04ED00E083
:40044000054B00221A6005490A6045F6BF51044A116007221A60704710E000E018E000E014E000E010B50B4B1A6842F460021A601A6842F060421A60FFF7E2FF0024064B2D
:400480001C60FFF74DFF00F0F5FBFFF739FF204610BD00BF20ED00E0CC80FF1F034B044ADA62044A9A63044ADA6370470080FF1F71030000D10300001504000000F10803C7
:4004C00043604FF0FF328260C360036100230360704700BF00230361704700BF43684B609A688A609A68516099600861036801330360704730B40D68B5F1FF3F01D10269FD
:4005000007E000F1080200E01A4653681C68A542FAD253684B6099608A605160086103680133036030BC704703694268816891608268416851605A68904201D182685A6061
:40054000002202611A68013A1A601868704700BF8268436813440068181A824200D8801A704700BFF8B504460D4617461E462022002101F012FDA561A760E660069B1BB169
:40058000237F43F001032377F8BD00BF2DE9F0419A4228BF1A461446DAB18846054606688768BF1B974228BF174681693A463144404601F0E7FCBC4205D9E21BA96908EB81
:4005C000070001F0DFFC2644AB689E4200D3F61A2E602046BDE8F0812DE9F04383B005460F4690461C460A9E76B1D0F80090324601A9FFF7CBFFA41B019B434505D9C5F803
:4006000000900023019300E001922346019A39462846FFF7BBFF03B0BDE8F083F0B583B017460D4601B90125461C2130FFF736FE044630B100972B46324600F12001FFF79C
:4006400091FF204603B0F0BD2DE9F04383B00446884691461F46037F13F0010F01D0042600E00026FFB1FFF795FE2046FFF770FF0546864205D3002000F0E8FB00F032FBBF
:400680002061FFF797FEAE4211D33B4600224FF0FF31104600F02CFB002323612046FFF757FF054603E02046FFF752FF0546B54217D900962B464A4641462046FFF78CFF70
:4006C000054678B100F0C2F963693BB1606900231A46194600F05EFB0023636100F044FA00E00025284603B0BDE8F083094B9B6A1B680BB9012300E0002323B14FF0FF32D1
:40070000044BDA627047034B9A6AD268D2685268DA6270477001002010B50446006BFFF7EDFD2046FFF7EAFD10BD00BF2DE9F04781460D4617469A46089EDDF824800A9CE1
:400740009200A521206B01F028FC236B07F18042013A03EB820727F00707002306E0E95CE21882F83410EA5C12B101330B2BF6D9002384F83F30042E00D90426E662266405
:4007800000256564201DFFF7A5FE04F11800FFF7A1FE2461C6F10506A6616462A56484F84C50524649463846FFF7CAFD2060B8F1000F01D0C8F80040BDE8F08770B50024CE
:4007C00007E004EB8402930010481844FFF776FE0134042CF5D90E4C04F194063046FFF76DFE04F1A8052846FFF768FE04F11400FFF764FE04F1BC00FFF760FE2046FFF7CB
:400800005DFEA662C4F8D05070BD00BFA00100207001002038B50546FFF7BCFD264BD3F8D4200132C3F8D420D3F8D8304BB9224BC3F8D850D3F8D430012B10D1FFF7BEFF8C
:400840000DE01D4BD3F8DC304BB91B4BD3F8D830DA6AEB6A9A4202D8174BC3F8D850164CD4F8E0300133C4F8E030EB6A012202FA03F1D4F8E4200A43C4F8E42004F13000D3
:4008800003EB83039A00291D1044FFF727FEFFF791FDD4F8DC306BB1D4F8D830DA6AEB6A9A4207D24FF08052044B1A60BFF34F8FBFF36F8F38BD00BF7001002004ED00E0AB
:4008C00038B517E0FFF766FD0D4CD4F8C830DD68281DFFF729FED4F8D430013BC4F8D430D4F8E830013BC4F8E830FFF763FD2846FFF712FF024BD3F8E830002BE2D138BD69
:400900007001002008B5FFF7DBFFFCE770B504460E461E4BD3F8EC50D3F8D8000430FFF703FE60B9194BD3F8D820D16A012202FA01F1D3F8E42022EA0102C3F8E420B4F1E7
:40094000FF3F07D136B11148D0F8D8100431FFF7C5FD70BD2C440D4BD3F8D8305C60A54208D90A4BD3F8D000D3F8D8100431FFF7C1FD70BD054DA86AD5F8D8100431FFF73B
:40098000B9FDEB6A9C4200D2EC6270BD700100202DE9F04385B006460F46154698469000FFF77CFC60B181465020FFF777FC044610B1C0F8309004E04846FFF79FFC00E003
:4009C00000248CB10023039302940D9B01930C9B009343462A4639463046FFF7A7FE2046FFF718FF012001E04FF0FF3005B0BDE8F08300BF00B583B0104B0193002300934C
:400A0000C8220F490F48FFF7C3FF012813D14FF0A00383F31188BFF36F8FBFF34F8F0A4B4FF0FF32DA620122C3F8DC200022C3F8EC20FFF717FD03B05DF804FB64020020CC
:400A40001C2000000509000070010020034AD2F8F0300133C2F8F030704700BF700100202DE9F0413F4BD3F8F030002B66D13D4BD3F8EC700137C3F8EC7067B99A6AD3F844
:400A8000D0109962C3F8D020D3F8F8200132C3F8F820FFF72BFE334BDB6A9F4205D24FF000083FE04FF0010801E04FF000082D4B9B6A1B680BB9012300E0002323B14FF059
:400AC000FF32284BDA622DE0264B9B6ADB68DC6863689F4202D2234AD36223E0261D3046FFF722FDA36A1BB104F11800FFF71CFDE36A012202FA03F11A4DD5F8E4200A433F
:400B0000C5F8E42005F1300003EB83039A0031461044FFF7E3FCE26AD5F8D830DB6A9A42C0D2C4E70F49D1F8D830DB6A03EB83039A000A44136B012B09D80AE0094AD2F845
:400B4000FC300133C2F8FC304FF0000801E04FF00108044BD3F800310BB14FF001084046BDE8F0817001002070B5FFF713FC324BD3F8F020013AC3F8F020D3F8F030002BA5
:400B800053D12D4BD3F8D43043BB002450E02A4C236ADD6805F11800FFF7C6FC2E1D3046FFF7C2FCEB6A012202FA03F1D4F8E4200A43C4F8E42004F1300003EB83039A007D
:400BC00031461044FFF78AFCEA6AD4F8D830DB6A9A4204D30122C4F8002100E00025164B5B69002BD3D10DB1FFF780FD124BD3F8FC4064B1FFF734FF18B101220E4BC3F8C2
:400C00000021013CF6D100220B4BC3F8FC200A4BD3F800315BB14FF08052084B1A60BFF34F8FBFF36F8F012402E0002400E00024FFF7C0FB204670BD7001002004ED00E0F0
:400C400010B548B10446FFF701FF00212046FFF75DFEFFF789FF00E0002038B94FF08052034B1A60BFF34F8FBFF36F8F10BD00BF04ED00E01A4BD3F8F03023B10122184B0F
:400C8000C3F80021704710B4154A0023C2F80031D2F8E430B3FA83F3DBB2C3F11F039800C418A10011444C6B64684C6302F130011844820008320A44944206D1606803EB83
:400CC00083018A0006490A445063054903EB83039A000A44536BDB68C1F8D83010BC704770010020014BD3F8D800704770010020F8B507460D4614461E46FFF74BFB234B2A
:400D0000D3F8D83093F84C30DBB2022B18D01F4BD3F8D820906C20EA07009064D3F8D830012283F84C205EB111463046FFF7EEFD4FF08052164B1A60BFF34F8FBFF36F8F43
:400D4000FFF738FBFFF726FB24B1104BD3F8D8309B6C23600D4BD3F8D83093F84C30DBB2022B08D1094BD3F8D820936C23EA05059564012400E00024044BD3F8D83000224E
:400D800083F84C20FFF716FB2046F8BD7001002004ED00E0F8B504460F4615461E46FFF7F9FA0EB1A36C336094F84C30DBB2022284F84C206A1E032A15D8DFE802F002076E
:400DC0000C0FA26C1743A76401250FE0A26C0132A26401250AE0A764012507E0022B04D0A764012502E0012500E00025012B24D1271D3846FFF798FBE36A012202FA03F1D6
:400E0000104ED6F8E4200A43C6F8E42006F1300003EB83039A0039461044FFF75FFBE26AD6F8D830DB6A9A4207D94FF08052064B1A60BFF34F8FBFF36F8FFFF7BBFA2846C3
:400E4000F8BD00BF7001002004ED00E010B5044610B90A4BD3F8D840FFF79CFA94F84C30DBB2022B04D1002384F84C30012400E00024FFF79FFA204610BD00BF7001002013
:400E8000FEE700BFF0B40022174611E050F82760F3B226F0FF0608E001EB420511F812406D78A5550132013BDBB2002BF4D10137162FEBD9F0BC7047064B1B78DBB203F0A2
:400EC0000701054A11701B09013213704422034B1A707047CF0100496E5800407658004008B50A46002101F058F808BD38B517222A4B1A8018232A490B7002310A8002319C
:400F00000B7002310A80274A13704FF49C7102321180023213700222234B1A7008224FF040231A70032103F5007319701F4B1B78DBB21F490B701F4B1A8041F25122023BDB
:400F40001A80002419250CE01B4B1B7803F0010343EA440404F003044FF4F07000F0E4FB013D0DB1032CEFD115B90320FFF788FF124B4FF480721A8007221A700022104904
:400F80000A704820023108701A700222033B1A700C4A137843F00F03137038BD80400040824000408A4000400043004008010049A1460040224200402542004004400040B9
:400FC00006400040A243004008B500F0DBFF08BD38B572B6354A137843F00403137000240CE0334D630019194A0011462A44084691882858FFF774FF0134E4B2082CF0D9D2
:4010000000240BE02A49A3001819420088188022C16B806BFFF7D8FF0134E4B2002CF1D024494FF09040FFF72DFF234A137843F0020313701032137843F0020313701F4CF6
:40104000237843F040032370A2F58632513A137843F010031370082219491A48FFF7B4FF0A2219491948FFF7AFFF082218491948FFF7AAFF082218491848FFF7A5FF184A02
:40108000137843F008031370164D61232B70FFF72DFF81232B700122134B1A70FFF70CFF0E2221461148FFF78FFF38BDE8460040242000005C00004803500140A04300407F
:4010C000700300480251004078030048C051004084030048125100408C03004822510040224300400048004004000840B043004008B500F01BFF03680C2B00D1FEE7FEE7E2
:4011000008B5104E104D16E029686B68AC68002204E051F8040B43F8040B0432A242F8D1E868002203E0002143F8041B04328242F9D11035013E002EE6D100F0FDFEFFF760
:401140005BF8FEE7010000008C20000008B5104A104B1A60104A136843F40073136000230AE0032B03D80D4A52F8231000E00C490C4A42F8231001332F2BF2D90A4B1A788A
:401180000A4B1A70074A0A4B1A60FFF721FF08BD0004FA050CED00E014ED00E000000000F11000000080FF1FBC760040C080FF1F08ED00E001BE704708B5034B1B7A00FB43
:4011C00003F000F0B1FA08BDD080FF1F70B504460E46074B1D681F2802D90020FFF7EAFF04F01F04103455F8240045F8246070BD08ED00E038B504460D46072902D900202F
:40120000FFF7D8FF1F2C02D90020FFF7D3FF04F01F0000F1604000F564406D01EDB2057038BD00BF044A137803F0FD03400000F0020018431070704720510040014B1B6850
:401240001864704708ED00E04001C0B2014B1870704700BF00E400E00122014B1A60704700E100E00122014B1A60704780E100E010B50446FFF7F6FF2046FFF7DFFF072008
:40128000FFF7E2FFFFF7E8FF10BD00BF08B572220B4B1A70202202331A700A490120FFF795FF07210120FFF7A5FF0622064B1A70472210331A7002224F331A7008BD00BFEE
:4012C00089650040BD1300002B65004010B500F033FA04460D4A137843F0200313700232137843F010031370013A137843F0100313700223064A1360A2F5C072136000F00E
:4013000089F8204600F01CFA10BD00BF9965004080E200E008B5054B1B7823B9FFF7B6FF0122024B1A70FFF7D1FF08BD74020020084B1B78DBB213F0200F06D0064A10781F
:40134000C0B213F01E0F02D17047002070470020704700BF6B65004049650040114B1B78F3B10222104B1A600E4A5378DBB29278934207D10D4B1B7813F0040F02D10C4BB8
:4013800018700AE00E2A02D90022064B9A70054A93780849C854013393700222064B1A60704700BF7402002080E100E06A6500404A6500408002002000E100E013E0104B42
:4013C0001B78DBB20E2B02D900220D4B1A700C4A1378DBB20B49CB5CDBB20B490B7013780133DBB21370064B1B78DBB2074A1278934204D0064B1B7813F0040FDFD070474C
:4014000075020020800200204A650040760200206A650040054A137843F0080313701032137843F008031370704700BFA2430040084A137843F0040313701032137843F07F
:401440000403137002F66532137843F001031370704700BFA3430040084A137803F0FE031370A2F67532137803F0FB0313701032137803F0FB031370704700BF184F004082
:40148000014B1870704700BF1B4F0040014B1880704700BF1C4F0040014B1880704700BF1E4F004008B5184B1A7802F001021A7016490A7802F0FC020A701A7842F00402E6
:4014C0001A700B331A7802F0CF021A701A7842F030021A701A7802F0F0021A701A7842F00F021A700A4A137843F0010313704FF6FF70FFF7CBFF4FF6FF70FFF7CDFF0020C3
:40150000FFF7BEFF08BD00BF184F00401A4F0040194F004008B5054B1B7823B9FFF7C2FF0122024B1A70FFF783FF08BD78020020024B1B88024B188880B270471E4F004005
:40154000204F0040024B1878C0F30010704700BF21510040044A137803F0F703C00000F0080018431070704720510040084A137843F0020313701032137843F00203137013
:4015800002F65932137843F001031370704700BFA3430040014B1880704700BF104F0040014B1880704700BF124F0040014B1870704700BF0F4F004008B51A4A137843F00C
:4015C000020313700232137803F08F0343F030031370154B1A7802F0CF021A701A7842F030021A701A7802F0F0021A701A7842F00F021A7044F61F60FFF7CCFF44F6430021
:40160000FFF7CEFF0020FFF7D1FF084A137843F00203137002F66A32137843F00103137008BD00BF0C4F0040174F0040A343004008B5054B1B7823B9FFF7BEFF0122024B06
:401640001A70FFF793FF08BD79020020084A137843F0010313701032137843F00103137002F64D32137843F001031370704700BFA3430040014B1880704700BF044F004095
:40168000014B1880704700BF064F0040014B1870704700BF034F004008B5194A137843F0020313700232137803F08F0343F010031370144B1A7802F0CF021A701A7842F0EA
:4016C00030021A701A7802F0F0021A701A7842F00F021A704FF4FA60FFF7CCFF0020FFF7CFFF0020FFF7D2FF074A137843F00103137002F65E32137843F00103137008BD7E
:40170000004F00400B4F0040A343004008B5054B1B7823B9FFF7C0FF0122024B1A70FFF795FF08BD7A0200200230800803D000BF01380046FCD17047EFF3108072B67047A4
:4017400080F31088704700BF81F0004102E000BF83F0004330B54FEA41044FEA430594EA050F08BF90EA020F1FBF54EA000C55EA020C7FEA645C7FEA655C00F0E2804FEAC4
:401780005454D4EB5555B8BF6D420CDD2C4480EA020281EA030382EA000083EA010180EA020281EA0303362D88BF30BD11F0004F4FEA01314FF4801C4CEA113102D0404203
:4017C00061EB410113F0004F4FEA03334CEA133302D0524263EB430394EA050F00F0A780A4F10104D5F1200E0DDB02FA0EFC22FA05F2801841F1000103FA0EF2801843FA4F
:4018000005F359410EE0A5F120050EF1200E012A03FA0EFC28BF4CF0020C43FA05F3C01851EBE37101F0004507D54FF0000EDCF1000C7EEB00006EEB0101B1F5801F1BD311
:40184000B1F5001F0CD349085FEA30004FEA3C0C04F101044FEA445212F5800F80F09A80BCF1004F08BF5FEA500C50F1000041EB045141EA050130BD5FEA4C0C404141EBFA
:40188000010111F4801FA4F10104E9D191F0000F04BF01460020B1FA81F308BF2033A3F10B03B3F120020CDA0C3208DD02F1140CC2F10C0201FA0CF021FA02F10CE002F112
:4018C0001402D8BFC2F1200C01FA02F120FA0CFCDCBF41EA0C019040E41AA2BF01EB0451294330BD6FEA04041F3C1CDA0C340EDC04F11404C4F1200220FA04F001FA02F3F2
:4019000040EA030021FA04F345EA030130BDC4F10C04C4F1200220FA02F001FA04F340EA0300294630BD21FA04F0294630BD94F0000F83F4801306BF81F480110134013DDF
:401940004EE77FEA645C18BF7FEA655C29D094EA050F08BF90EA020F05D054EA000C04BF1946104630BD91EA030F1EBF0021002030BD5FEA545C05D14000494128BF41F05E
:40198000004130BD14F580043CBF01F5801130BD01F0004545F0FE4141F470014FF0000030BD7FEA645C1ABF194610467FEA655C1CBF0B46024650EA013406BF52EA033584
:4019C00091EA030F41F4002130BD00BF90F0000F04BF0021704730B54FF4806404F132044FF000054FF0000150E700BF90F0000F04BF0021704730B54FF4806404F132041C
:401A000010F0004548BF40424FF000013EE700BF42004FEAE2014FEA31014FEA02701FBF12F07F4393F07F4F81F06051704792F0000F14BF93F07F4F704730B54FF460740C
:401A400001F0004521F0004120E700BF50EA010208BF704730B54FF000050AE050EA010208BF704730B511F0004502D5404261EB41014FF4806404F132045FEA915C3FF4C2
:401A8000DCAE4FF003025FEADC0C18BF03325FEADC0C18BF033202EBDC02C2F1200300FA03FC20FA02F001FA03FE40EA0E0021FA02F11444C1E600BF70B54FF0FF0C4CF489
:401AC000E06C1CEA11541DBF1CEA135594EA0C0F95EA0C0F00F0DEF82C4481EA030621EA4C5123EA4C5350EA013518BF52EA033541F4801143F4801338D0A0FB02CE4FF0B7
:401B00000005E1FB02E506F00042E0FB03E54FF00006E1FB03569CF0000F18BF4EF0010EA4F1FF04B6F5007F64F5407404D25FEA4E0E6D4146EB060642EAC62141EA555190
:401B40004FEAC52040EA5E504FEACE2EB4F1FD0C88BFBCF5E06F1ED8BEF1004F08BF5FEA500E50F1000041EB045170BD06F0004646EA010140EA020081EA0301B4EB5C04EC
:401B8000C2BFD4EB0C0541EA045170BD41F480114FF0000E013C00F3AB8014F1360FDEBF002001F0004170BDC4F10004203C35DA0C341BDC04F11404C4F1200500FA05F31F
:401BC00020FA04F001FA05F240EA020001F0004221F0004110EBD37021FA04F642EB06015EEA430E08BF20EAD37070BDC4F10C04C4F1200500FA04F320FA05F001FA04F243
:401C000040EA020001F0004110EBD37041F100015EEA430E08BF20EAD37070BDC4F1200500FA05F24EEA020E20FA04F301FA05F243EA020321FA04F001F0004121FA04F261
:401C400020EA020000EBD3705EEA430E08BF20EAD37070BD94F0000F0FD101F00046400041EB010111F4801F08BF013CF7D041EA060195F0000F18BF704703F000465200EA
:401C800043EB030313F4801F08BF013DF7D043EA0603704794EA0C0F0CEA135518BF95EA0C0F0CD050EA410618BF52EA4306D1D181EA030101F000414FF0000070BD50EA87
:401CC000410606BF1046194652EA430619D094EA0C0F02D150EA013613D195EA0C0F05D152EA03361CBF104619460AD181EA030101F0004141F0FE4141F470014FF00000AE
:401D000070BD41F0FE4141F4780170BD70B54FF0FF0C4CF4E06C1CEA11541DBF1CEA135594EA0C0F95EA0C0F00F0A7F8A4EB050481EA030E52EA03354FEA013100F08880CE
:401D40004FEA03334FF0805545EA131343EA12634FEA022245EA111545EA10654FEA00260EF000419D4208BF964244F1FD0404F5407402D25B084FEA3202B61A65EB0305C8
:401D80005B084FEA32024FF480104FF4002CB6EB020E75EB030E22BFB61A754640EA0C005B084FEA3202B6EB020E75EB030E22BFB61A754640EA5C005B084FEA3202B6EBF8
:401DC000020E75EB030E22BFB61A754640EA9C005B084FEA3202B6EB020E75EB030E22BFB61A754640EADC0055EA060E18D04FEA051545EA16754FEA06164FEAC30343EA03
:401E000052734FEAC2025FEA1C1CC0D111F4801F0BD141EA00014FF000004FF0004CB6E711F4801F04BF01430020B4F1FD0C88BFBCF5E06F3FF6AFAEB5EB030C04BFB6EB56
:401E4000020C5FEA500C50F1000041EB045170BD0EF0004E4EEA113114EB5C04C2BFD4EB0C0541EA045170BD41F480114FF0000E013C90E645EA060E8DE60CEA135594EA45
:401E80000C0F08BF95EA0C0F3FF43BAF94EA0C0F0AD150EA01347FF434AF95EA0C0F7FF425AF104619462CE795EA0C0F06D152EA03353FF4FDAE1046194622E750EA4106A5
:401EC00018BF52EA43067FF4C5AE50EA41047FF40DAF52EA43057FF4EBAE12E74FEA410212F5001215D211D56FF47873B3EB625212D94FEAC12343F0004343EA505311F018
:401F0000004F23FA02F018BF404270474FF00000704750EA013005D111F0004008BF6FF0004070474FF00000704700BF014B1868704700BF4081FF1F0E4B70B51E460E4C8C
:401F40000025E41AA410A54204D056F8253098470135F8E700F088F8084B094C1E46E41AA4100025A54204D056F8253098470135F8E770BD742000007420000074200000AA
:401F80007C20000010B5431E0A44914204D011F8014B03F8014FF8E710BD03460244934202D003F8011BFAE7704710F8012B11F8013B012A28BF9A42F7D0D01A7047034621
:401FC00013F8012B002AFBD1181A01387047000000000000534552564F4F50454E000000534552564F434C4F534500004C45444F4E0000004C45444F4646000048656C6C25
:402000006F20776F726C64005461736B20310000526561642053656E736F720049444C4500000000004F00402400305100404000F0510040100000000140001000140140E6
:40204000800400190140000300400140000A004C01400002005001402000000080180140F002004880004300F8B500BFF8BC08BC9E4670474D0000004D110000F8B500BF48
:40208000F8BC08BC9E46704729000000A0200000C880FF1F80000000488100000000000000000000AAAAAAAA0000E02EC05D00001800000000366E010000000000000000E5
:4020C000000000000000000000000000000000000000000000000000662000000000000000000000000000000000000000000000000000000000000000000000000000005A
:40210000000000000000000000000000000000000000000000000000E080FF1F00000000000000000000000000000000000000000000000000000000000000000000000021
:40214000000000000000000000000000000000000000000000000000000000000000000000000000000000000000000000000000000000000000000000000000000000005F
:40218000000000000000000000000000000000000000000000000000000000000000000000000000000000000000000000000000000000000000000000000000000000001F
:4021C00000000000000000000000000000000000000000000000000000000000000000000000000000000000000000000000000000000000000000000000000000000000DF
:40220000000000000000000000000000000000000000000000000000000000000000000000000000000000000000000000000000000000000000000000000000000000009E
:020000040003F7
:0200000480007A
:40000000054F00400352004003650040041401400315014003170140111801403C1901406C1A0140501B014003400140034101400242014005430140024501400146014048
:40004000014701400B48014002490140034C0140074D0140025001400151014001200A3616361910223611206180644089728A0F8B3839803F4059045F012280A680E28032
:400080008280E204E810020804010A08100414022404280430023208340136043B803E15580459045C335F010004020203880402061408200A280B800E6010A811801728A2
:4000C000180619111B081E861F4422042306254026802701282129102B803291330838283A023B8040054220430148104A01520459016620670469146A406B2870BC720201
:4001000082018640880189088A02C07FC23EC46FCA0FCC0FCE0FD00FD208D601E402E810010903A60413051F0604091F0A200E081013120C1512178519041A201B581C0312
:400140001E142215240A2614300F3120322033033410351C37C03A023E143F404015410246EC470B481C49FF4AFF4BFF4EF04F44500C54015604580459045A045B045C33C1
:400180005D335F0166C06A406B0281808313840C867188DC8A228E20930C952C960397439C109EACA009A2D0A414A571A70EA810AA40AB08AD71AF06B21FB330B4E0B50F9B
:4001C000B7C0B988BA20BB20BF04C002C704C9FFCA07CBFFCC40CD20CEF0CF05D008D418D604D804D904DA04DB04DC33DD33DF01E040E1A8E240E320002003210484070898
:40020000080209800A400B040E200F02130915081604170118281A401B011C041E201F2020012108221127292E402F28310832103709380239143C023F0140024320472077
:4002400048014C404F0151C452105604570858815A145F02620165806602670881408210840186108A028C958D808F8091149204930C940196229B029E11A010A508A610A5
:40028000A780C0E7C2ABC47CCA70CCC6CE87D02CD208D68FD8B1E28031403580CC3063029DC0D6409DC0A7011B011C109DC0A701C6306080D8029C809C80642069406C01AE
:4002C000802181C09DC0B410D880DAC0E220E62089409D408740B480E808128073408E809340C408DC01E20210081C08000F00000110000073180C001F086000020000E35E
:4003000000002304031C00E11CC0630000FF000008440000043C00C20CE700187F80000010002C1F0F3840C0800028080000010025040300010C000E11FFFFFF62A0F04125
:400340000C00000000000213040404043333000100000000000040020010301000101012000000000000000000000000000000000080800080000000800040808000800061
:4003800000000000000B0B0000000000102A2A00200000000000000000000000000000000000000000000000000000000000000000000000000000000000000000000000A3
:4003C00000000000000000000000000000000000000000000000000000000000000000000000000000000000000000000000000000000000000000000000000000000000FD
:4004000000000000000000000000000000000000000000000000000000000000000000000000000000000000000000000000000000000000000000000000000000000000BC
:40044000000000000000000000000000000000000000000000000000000000000000000000000000000000000000000000000000000000000000000000000000000000007C
:40048000000000000000000000000000000000000000000000000000000000000000000000000000000000000000000000000000000000000000000000000000000000003C
:0200000490006A
:0400000000004005B7
:0200000490105A
:04000000BC90ACAF55
:0200000490303A
:02000000ECE032
:0200000490402A
:4000000000000000000000000000000000000000000000000000000000000000000000000000000000000000000000000000000000000000000000000000000000000000C0
:400040000000000000000000000000000000000000000000000000000000000000000000000000000000000000000000000000000000000000000000000000000000000080
:400080000000000000000000000000000000000000000000000000000000000000000000000000000000000000000000000000000000000000000000000000000000000040
:4000C0000000000000000000000000000000000000000000000000000000000000000000000000000000000000000000000000000000000000000000000000000000000000
:0200000490501A
:0C00000000012E16106900012E23FD499E
:00000001FF