:400000000080002011000000490F0000490F000008B5044B1A6803F53F5302331A6000F0B3FF00BFFA46004010B5054C237833B9044B13B10448AFF300800123237010BD15
:400040004881FF1F000000009C270000084B10B51BB108490848AFF300800848036803B910BD074B002BFBD0BDE81040184700BF000000004C81FF1F9C270000C880FF1F7C
:400080000000000038B500220F4B1A7015E001F0B1F80D4CE368E0540133E3600A2000F0CFFFE368042B08D10025E5542B4604222146206900F076FAE56001F0A5F80028F4
:4000C000E5D101F08FF838BD6481FF1F0000000010B582B0012000F0F5FF012001F0A4F90A2000F045FD002001F09EF901F094F90128FBD101F078F901F08EF90028FBD1EA
:4001000001F080F9C04380B201F044FC10A3D3E9002301F0A5FC01F0B5FE0446C82000F027FD01F003F9002000F0CCFFE4B2204601F0A0FA204601F073F82246064901A870
:4001400001F008FF01A801F0A1FAC3E7AFF30080DBA7E3310395913FA027000008B50B4800F0D6FF01F02AF801F0CCF944F69B2001F080F94FF47A7000F062FF01F030FA2B
:4001800001F06AFA024801F081FA08BD85000000AC27000000B583B062B600F01FF9FFF7DDFF01220021642000F0DCF9094B186100B9FEE70023019304220092C82206499D
:4001C000064800F07DFB012800D0FEE700F0AAFBFEE700BF6481FF1FB4270000D100000038B5044610F0070F02D020F00704083400F0C4FB104B1B682BB90F4A02F10C0341
:4002000023F0070313600D4BD3F83C391C4447F6F772944208D8A34208D2074A15681D44064BC3F83C4902E0002500E0002500F033FC284638BD00BF7881FF1F40F8FF1FA1
:40024000704700BF82B0002301934FF0A00383F31188BFF36F8FBFF34F8F019B002BFCD002B0704706480068006880F3088862B661B6BFF34F8FBFF36F8F00DF00BF0000C4
:4002800008ED00E04FF0807340F8043C21F0010140F8081C034B40F80C3C40F8202C4038704700BF450200000000000000000000074B19680868B0E8F00F80F30988BFF339
:4002C0006F8F4FF0000080F311884EF00D0E7047580200204FF0A00383F31188BFF36F8FBFF34F8F024A136801331360704700BFCC80FF1F034A1368013B13600BB983F3FB
:4003000011887047CC80FF1F0000000000000000EFF30980BFF36F8F0D4B1A6820E9F00F10602DE908404FF0A00080F3118800F039FC4FF0000080F31188BDE8084019686F
:400340000868B0E8F00F80F30988BFF36F8F70475802002008B54FF0A00383F31188BFF36F8FBFF34F8F00F013FB18B14FF08052024B1A60002383F3118808BD04ED00E03C
:40038000054B00221A6005490A6045F6BF51044A116007221A60704710E000E018E000E014E000E010B50B4B1A6842F460021A601A6842F060421A60FFF7E2FF0024064BEE
:4003C0001C60FFF74FFF00F0EDFBFFF73BFF204610BD00BF20ED00E0CC80FF1F034B044ADA62044A9A63044ADA6370470080FF1FB1020000110300005503000000F10803CE
:4004000043604FF0FF328260C360036100230360704700BF00230361704700BF43684B609A688A609A68516099600861036801330360704730B40D68B5F1FF3F01D10269BD
:4004400007E000F1080200E01A4653681C68A542FAD253684B6099608A605160086103680133036030BC704703694268816891608268416851605A68904201D182685A6022
:40048000002202611A68013A1A601868704700BF8268436813440068181A824200D8801A704700BFF8B504460D4617461E462022002101F046FDA561A760E660069B1BB1F6
:4004C000237F43F001032377F8BD00BF2DE9F041064688461746446885682D1B954228BF154680692A46204401F020FDAF4205D97A1B08EB0501B06901F018FDE319B26800
:40050000934200D39B1A73603846BDE8F08100BF30B583B004460D460192ABB11A46037F13F0010F06D1019B9A4228BF1A46019201230CE0069B9A4208D304220DEB0201ED
:40054000FFF7C4FF012302E0002300E000232BB1019A29462046FFF7B9FF00E0002003B030BD00BFF0B583B017460D4601B90125461C2130FFF734FE044630B100972B46C7
:40058000324600F12001FFF78DFF204603B0F0BD8268036813444068181A0138824200D8801A70472DE9F04182B004460E4615469846037F13F0010F01D0171D00E0174696
:4005C0002046FFF7E5FF009703462A4631462046FFF79EFF0546E8B12046FFF759FFE368984217D3EFF311864FF0A00383F31188BFF36F8FBFF34F8F23694BB12069CDF8D4
:40060000008000231A46194600F004FB0023236186F31188284602B0BDE8F081094B9B6A1B680BB9012300E0002323B14FF0FF32044BDA627047034B9A6AD268D2685268AD
:40064000DA6270478001002010B50446006BFFF7F7FD2046FFF7F4FD10BD00BF2DE9F04781460D4617469A46089EDDF824800A9C9200A521206B01F064FC236B07F18042C4
:40068000013A03EB820727F00707002306E0E95CE21882F83410EA5C12B101330B2BF6D9002384F83F30042E00D90426E662266400256564201DFFF7ADFE04F11800FFF737
:4006C000A9FE2461C6F10506A6616462A56484F84C50524649463846FFF7D4FD2060B8F1000F01D0C8F80040BDE8F08770B5002407E004EB8402930010481844FFF77EFE2F
:400700000134042CF5D90E4C04F194063046FFF775FE04F1A8052846FFF770FE04F11400FFF76CFE04F1BC00FFF768FE2046FFF765FEA662C4F8D05070BD00BFB001002074
:400740008001002038B50546FFF7C4FD264BD3F8D4200132C3F8D420D3F8D8304BB9224BC3F8D850D3F8D430012B10D1FFF7BEFF0DE01D4BD3F8DC304BB91B4BD3F8D830B8
:40078000DA6AEB6A9A4202D8174BC3F8D850164CD4F8E0300133C4F8E030EB6A012202FA03F1D4F8E4200A43C4F8E42004F1300003EB83039A00291D1044FFF72FFEFFF73C
:4007C00099FDD4F8DC306BB1D4F8D830DA6AEB6A9A4207D24FF08052044B1A60BFF34F8FBFF36F8F38BD00BF8001002004ED00E038B517E0FFF76EFD0D4CD4F8C830DD6866
:40080000281DFFF731FED4F8D430013BC4F8D430D4F8E830013BC4F8E830FFF76BFD2846FFF712FF024BD3F8E830002BE2D138BD8001002008B5FFF7DBFFFCE770B5044638
:400840000E461E4BD3F8EC50D3F8D8000430FFF70BFE60B9194BD3F8D820D16A012202FA01F1D3F8E42022EA0102C3F8E420B4F1FF3F07D136B11148D0F8D8100431FFF7DF
:40088000CDFD70BD2C440D4BD3F8D8305C60A54208D90A4BD3F8D000D3F8D8100431FFF7C9FD70BD054DA86AD5F8D8100431FFF7C1FDEB6A9C4200D2EC6270BD800100203E
:4008C0002DE9F04385B006460F46154698469000FFF786FC60B181465020FFF781FC044610B1C0F8309004E04846FFF7A9FC00E000248CB10023039302940D9B01930C9BDA
:40090000009343462A4639463046FFF7A7FE2046FFF718FF012001E04FF0FF3005B0BDE8F08300BF00B583B0104B019300230093C8220F490F48FFF7C3FF012813D14FF002
:40094000A00383F31188BFF36F8FBFF34F8F0A4B4FF0FF32DA620122C3F8DC200022C3F8EC20FFF71FFD03B05DF804FB74020020DC2700003508000080010020034AD2F81A
:40098000F0300133C2F8F030704700BF800100202DE9F0413F4BD3F8F030002B66D13D4BD3F8EC700137C3F8EC7067B99A6AD3F8D0109962C3F8D020D3F8F8200132C3F890
:4009C000F820FFF72BFE334BDB6A9F4205D24FF000083FE04FF0010801E04FF000082D4B9B6A1B680BB9012300E0002323B14FF0FF32284BDA622DE0264B9B6ADB68DC6887
:400A000063689F4202D2234AD36223E0261D3046FFF72AFDA36A1BB104F11800FFF724FDE36A012202FA03F11A4DD5F8E4200A43C5F8E42005F1300003EB83039A0031466D
:400A40001044FFF7EBFCE26AD5F8D830DB6A9A42C0D2C4E70F49D1F8D830DB6A03EB83039A000A44136B012B09D80AE0094AD2F8FC300133C2F8FC304FF0000801E04FF0BD
:400A80000108044BD3F800310BB14FF001084046BDE8F0818001002070B5FFF71BFC324BD3F8F020013AC3F8F020D3F8F030002B53D12D4BD3F8D43043BB002450E02A4CC8
:400AC000236ADD6805F11800FFF7CEFC2E1D3046FFF7CAFCEB6A012202FA03F1D4F8E4200A43C4F8E42004F1300003EB83039A0031461044FFF792FCEA6AD4F8D830DB6AA5
:400B00009A4204D30122C4F8002100E00025164B5B69002BD3D10DB1FFF780FD124BD3F8FC4064B1FFF734FF18B101220E4BC3F80021013CF6D100220B4BC3F8FC200A4B6D
:400B4000D3F800315BB14FF08052084B1A60BFF34F8FBFF36F8F012402E0002400E00024FFF7C8FB204670BD8001002004ED00E010B548B10446FFF701FF00212046FFF7E7
:400B80005DFEFFF789FF00E0002038B94FF08052034B1A60BFF34F8FBFF36F8F10BD00BF04ED00E01A4BD3F8F03023B10122184BC3F80021704710B4154A0023C2F8003187
:400BC000D2F8E430B3FA83F3DBB2C3F11F039800C418A10011444C6B64684C6302F130011844820008320A44944206D1606803EB83018A0006490A445063054903EB8303E8
:400C00009A000A44536BDB68C1F8D83010BC704780010020F8B5EFF311844FF0A00585F31188BFF36F8FBFF34F8F0BB1856C1D6090F84C30DBB2022580F84C50013A032A2F
:400C400015D8DFE802F002070C0F826C1143816401250FE0826C0132826401250AE08164012507E0022B04D08164012502E0012500E00025012B31D106461A4BD3F8F03082
:400C8000B3B9071D3846FFF7EFFBF36A012202FA03F11448D0F8E4200A43C0F8E420303003EB83039A0039461044FFF7B7FB04E000F118010C48FFF7B1FBF26A094BD3F85D
:400CC000D830DB6A9A4209D9069B1BB10123069A136003E00122034BC3F8002184F311882846F8BD8001002094010020FEE700BFF0B40022174611E050F82760F3B226F04A
:400D0000FF0608E001EB420511F812406D78A5550132013BDBB2002BF4D101371D2FEBD9F0BC7047064B1B78DBB203F00701054A11701B09013213704422034B1A707047B7
:400D4000CF0100496E5800407658004008B50A46002101F0F6F808BD38B517222C4B1A8018232C490B7002310A8002310B7002310A80294A13704FF49C7204310A800231B1
:400D80000B7002310A80254A13700222244B1A7008224FF040231A70032103F500731970204B1B78DBB220490B70204B1A8041F25122023B1A80002419250CE01C4B1B7845
:400DC00003F0010343EA440404F003044FF4F07000F07EFC013D0DB1032CEFD115B90320FFF784FF134B4FF480721A8007221A70002211490A704820023108701A70022293
:400E0000033B1A700D4A137843F01F03137038BD80400040824000408A400040924000400043004008010049A146004022420040254200400440004006400040A2430040A7
:400E400008B501F073F808BD38B572B62D4A137843F00403137000240CE02B4D630019194A0011462A44084691882858FFF76EFF0134E4B2072CF0D924494FF09040FFF711
:400E800037FF234A137843F0020313701032137843F0020313701F4C237843F040032370A2F58632513A137843F010031370082219491A48FFF7C4FF0A2219491948FFF7F8
:400EC000BFFF0A2218491948FFF7BAFF082218491848FFF7B5FF184A137843F008031370164D61232B70FFF737FF81232B700122134B1A70FFF716FF0E2221461148FFF76B
:400F00009FFF38BDE8460040E42700007800004803500140A0430040480600480251004050060048C05100405C060048105100406806004822510040224300400048004035
:400F400004000840B043004008B500F0C3FF03680C2B00D1FEE7FEE708B5094B1A681044084BC31A802B02DC054B186005E000F0B1FF0C2303604FF0FF32104608BD00BF7D
:400F8000D080FF1FB002002008B5104E104D16E029686B68AC68002204E051F8040B43F8040B0432A242F8D1E868002203E0002143F8041B04328242F9D11035013E002E3A
:400FC000E6D100F08DFFFFF7E5F8FEE7010000007028000008B5104A104B1A60104A136843F40073136000230AE0032B03D80D4A52F8231000E00C490C4A42F82310013379
:401000002F2BF2D90A4B1A780A4B1A70074A0A4B1A60FFF719FF08BD0004FA050CED00E014ED00E000000000490F00000080FF1FBC760040C080FF1F08ED00E001BE704704
:4010400010B5044605E0084B186800F041FBA4F50044B4F5004FF6D8034B586800FB04F000F036FB10BD00BFD480FF1F70B504460E46074B1D681F2802D90020FFF7DEFF0F
:4010800004F01F04103455F8240045F8246070BD08ED00E038B504460D46072902D90020FFF7CCFF1F2C02D90020FFF7C7FF04F01F0000F1604000F564406D01EDB205706A
:4010C00038BD00BF044A137803F0FD03400000F0020018431070704720510040014B1B681864704708ED00E04001C0B2014B1870704700BF00E400E00122014B1A607047C3
:4011000000E100E00122014B1A60704780E100E010B50446FFF7F6FF2046FFF7DFFF0720FFF7E2FFFFF7E8FF10BD00BF08B572220C4B1A702022A3F580731A700A49012075
:40114000FFF794FF07210120FFF7A4FF0622074B1A70472210331A70022203F251131A7008BD00BF88650040911200002964004010B500F0B5FA04460E4A137843F02003BB
:401180001370A2F58072137843F01003137002F58172137843F0100313700223064A1360A2F5C072136000F09FF8204600F09CFA10BD00BF9865004080E200E008B5054BE2
:4011C0001B7823B9FFF7B2FF0122024B1A70FFF7CFFF08BD84020020014B1878704700BF48640040024B187800F07F00704700BF6864004010B5FFF7F5FF0402FFF7ECFF0E
:40120000204380B210BD00BF044B1B7813F0200F01D0012070470020704700BF68640040164B99785B78DBB2994205D25A1E914214BF0022012204E0CA1A0E2A14BF002252
:401240000122002AECD1994207D10D4B1B7813F0040F02D10B4B187070470E2900D90021094B58540131054B9970054B1B7813F0020F02D00222054B1A6070478402002078
:401280006A650040496500409802002000E200E013E0104B1B78DBB20E2B02D900220D4B1A700C4A1378DBB20B49CB5CDBB20B490B7013780133DBB21370064B1B78DBB2AA
:4012C000074A1278934204D0064B1B7813F0040FDFD07047850200209802002049650040860200206A650040054A137843F0100313701032137843F010031370704700BF55
:40130000A2430040084A137843F0040313701032137843F00403137002F66532137843F001031370704700BFA3430040084A137803F0FE031370A2F67532137803F0FB03E5
:4013400013701032137803F0FB031370704700BF184F0040014B1870704700BF1B4F0040014B1880704700BF1C4F0040014B1880704700BF1E4F004008B5184B1A7802F0E8
:4013800001021A7016490A7802F0FC020A701A7842F004021A700B331A7802F0CF021A701A7842F030021A701A7802F0F0021A701A7842F00F021A700A4A137843F00103EF
:4013C00013704FF6FF70FFF7CBFF4FF6FF70FFF7CDFF0020FFF7BEFF08BD00BF184F00401A4F0040194F004008B5054B1B7823B9FFF7C2FF0122024B1A70FFF783FF08BDC7
:4014000088020020024B1B88024B188880B270471E4F0040204F0040024B1878C0F30010704700BF21510040044A137803F0F703C00000F008001843107070472051004057
:40144000084A137843F0020313701032137843F00203137002F65932137843F001031370704700BFA3430040014B1880704700BF104F0040014B1880704700BF124F0040F4
:40148000014B1870704700BF0F4F004008B51A4A137843F0020313700232137803F08F0343F030031370154B1A7802F0CF021A701A7842F030021A701A7802F0F0021A70F1
:4014C0001A7842F00F021A7044F61F60FFF7CCFF44F64300FFF7CEFF0020FFF7D1FF084A137843F00203137002F66A32137843F00103137008BD00BF0C4F0040174F0040B7
:40150000A343004008B5054B1B7823B9FFF7BEFF0122024B1A70FFF793FF08BD89020020084A137843F0010313701032137843F00103137002F64D32137843F0010313708A
:40154000704700BFA3430040014B1880704700BF044F0040014B1880704700BF064F0040014B1870704700BF034F004008B5194A137843F0020313700232137803F08F036D
:4015800043F010031370144B1A7802F0CF021A701A7842F030021A701A7802F0F0021A701A7842F00F021A704FF4FA60FFF7CCFF0020FFF7CFFF0020FFF7D2FF074A137840
:4015C00043F00103137002F65E32137843F00103137008BD004F00400B4F0040A343004008B5054B1B7823B9FFF7C0FF0122024B1A70FFF795FF08BD8A0200207222074B44
:401600001A70202202331A7006229F331A70472210331A70002251331A7070478964004010B500F05DF804460A4A137843F0200313700232137843F01003137002F58072D4
:40164000137843F01003137000F032F8204600F04BF810BD9964004008B5054B1B7823B9FFF7CCFF0122024B1A70FFF7D9FF08BD8B020020034B1B7813F0040FFAD1024BD3
:40168000187070476B6500404B65004038B5074B1B782BB938BDFFF7EDFF0134A4B201E005460024285D0028F5D138BD8B020020054A137843F0080313701032137843F0D3
:4016C00008031370704700BFA2430040000000000230800803D000BF01380046FCD17047EFF3108072B6704780F31088704700BF81F0004102E000BF83F0004330B54FEA79
:4017000041044FEA430594EA050F08BF90EA020F1FBF54EA000C55EA020C7FEA645C7FEA655C00F0E2804FEA5454D4EB5555B8BF6D420CDD2C4480EA020281EA030382EAD1
:40174000000083EA010180EA020281EA0303362D88BF30BD11F0004F4FEA01314FF4801C4CEA113102D0404261EB410113F0004F4FEA03334CEA133302D0524263EB430359
:4017800094EA050F00F0A780A4F10104D5F1200E0DDB02FA0EFC22FA05F2801841F1000103FA0EF2801843FA05F359410EE0A5F120050EF1200E012A03FA0EFC28BF4CF097
:4017C000020C43FA05F3C01851EBE37101F0004507D54FF0000EDCF1000C7EEB00006EEB0101B1F5801F1BD3B1F5001F0CD349085FEA30004FEA3C0C04F101044FEA445257
:4018000012F5800F80F09A80BCF1004F08BF5FEA500C50F1000041EB045141EA050130BD5FEA4C0C404141EB010111F4801FA4F10104E9D191F0000F04BF01460020B1FA93
:4018400081F308BF2033A3F10B03B3F120020CDA0C3208DD02F1140CC2F10C0201FA0CF021FA02F10CE002F11402D8BFC2F1200C01FA02F120FA0CFCDCBF41EA0C01904072
:40188000E41AA2BF01EB0451294330BD6FEA04041F3C1CDA0C340EDC04F11404C4F1200220FA04F001FA02F340EA030021FA04F345EA030130BDC4F10C04C4F1200220FA5C
:4018C00002F001FA04F340EA0300294630BD21FA04F0294630BD94F0000F83F4801306BF81F480110134013D4EE77FEA645C18BF7FEA655C29D094EA050F08BF90EA020FF9
:4019000005D054EA000C04BF1946104630BD91EA030F1EBF0021002030BD5FEA545C05D14000494128BF41F0004130BD14F580043CBF01F5801130BD01F0004545F0FE4106
:4019400041F470014FF0000030BD7FEA645C1ABF194610467FEA655C1CBF0B46024650EA013406BF52EA033591EA030F41F4002130BD00BF90F0000F04BF0021704730B5FA
:401980004FF4806404F132044FF000054FF0000150E700BF90F0000F04BF0021704730B54FF4806404F1320410F0004548BF40424FF000013EE700BF42004FEAE2014FEA71
:4019C00031014FEA02701FBF12F07F4393F07F4F81F06051704792F0000F14BF93F07F4F704730B54FF4607401F0004521F0004120E700BF50EA010208BF704730B54FF0A9
:401A000000050AE050EA010208BF704730B511F0004502D5404261EB41014FF4806404F132045FEA915C3FF4DCAE4FF003025FEADC0C18BF03325FEADC0C18BF033202EBFA
:401A4000DC02C2F1200300FA03FC20FA02F001FA03FE40EA0E0021FA02F11444C1E600BF70B54FF0FF0C4CF4E06C1CEA11541DBF1CEA135594EA0C0F95EA0C0F00F0DEF804
:401A80002C4481EA030621EA4C5123EA4C5350EA013518BF52EA033541F4801143F4801338D0A0FB02CE4FF00005E1FB02E506F00042E0FB03E54FF00006E1FB03569CF028
:401AC000000F18BF4EF0010EA4F1FF04B6F5007F64F5407404D25FEA4E0E6D4146EB060642EAC62141EA55514FEAC52040EA5E504FEACE2EB4F1FD0C88BFBCF5E06F1ED884
:401B0000BEF1004F08BF5FEA500E50F1000041EB045170BD06F0004646EA010140EA020081EA0301B4EB5C04C2BFD4EB0C0541EA045170BD41F480114FF0000E013C00F301
:401B4000AB8014F1360FDEBF002001F0004170BDC4F10004203C35DA0C341BDC04F11404C4F1200500FA05F320FA04F001FA05F240EA020001F0004221F0004110EBD370B1
:401B800021FA04F642EB06015EEA430E08BF20EAD37070BDC4F10C04C4F1200500FA04F320FA05F001FA04F240EA020001F0004110EBD37041F100015EEA430E08BF20EA39
:401BC000D37070BDC4F1200500FA05F24EEA020E20FA04F301FA05F243EA020321FA04F001F0004121FA04F220EA020000EBD3705EEA430E08BF20EAD37070BD94F0000F34
:401C00000FD101F00046400041EB010111F4801F08BF013CF7D041EA060195F0000F18BF704703F00046520043EB030313F4801F08BF013DF7D043EA0603704794EA0C0FA5
:401C40000CEA135518BF95EA0C0F0CD050EA410618BF52EA4306D1D181EA030101F000414FF0000070BD50EA410606BF1046194652EA430619D094EA0C0F02D150EA0136E7
:401C800013D195EA0C0F05D152EA03361CBF104619460AD181EA030101F0004141F0FE4141F470014FF0000070BD41F0FE4141F4780170BD70B54FF0FF0C4CF4E06C1CEA81
:401CC00011541DBF1CEA135594EA0C0F95EA0C0F00F0A7F8A4EB050481EA030E52EA03354FEA013100F088804FEA03334FF0805545EA131343EA12634FEA022245EA11155C
:401D000045EA10654FEA00260EF000419D4208BF964244F1FD0404F5407402D25B084FEA3202B61A65EB03055B084FEA32024FF480104FF4002CB6EB020E75EB030E22BF1F
:401D4000B61A754640EA0C005B084FEA3202B6EB020E75EB030E22BFB61A754640EA5C005B084FEA3202B6EB020E75EB030E22BFB61A754640EA9C005B084FEA3202B6EB29
:401D8000020E75EB030E22BFB61A754640EADC0055EA060E18D04FEA051545EA16754FEA06164FEAC30343EA52734FEAC2025FEA1C1CC0D111F4801F0BD141EA00014FF0A8
:401DC00000004FF0004CB6E711F4801F04BF01430020B4F1FD0C88BFBCF5E06F3FF6AFAEB5EB030C04BFB6EB020C5FEA500C50F1000041EB045170BD0EF0004E4EEA1131EE
:401E000014EB5C04C2BFD4EB0C0541EA045170BD41F480114FF0000E013C90E645EA060E8DE60CEA135594EA0C0F08BF95EA0C0F3FF43BAF94EA0C0F0AD150EA01347FF4FE
:401E400034AF95EA0C0F7FF425AF104619462CE795EA0C0F06D152EA03353FF4FDAE1046194622E750EA410618BF52EA43067FF4C5AE50EA41047FF40DAF52EA43057FF4ED
:401E8000EBAE12E74FEA410212F5001215D211D56FF47873B3EB625212D94FEAC12343F0004343EA505311F0004F23FA02F018BF404270474FF00000704750EA013005D19A
:401EC00011F0004008BF6FF0004070474FF00000704700BF014B1868704700BF4481FF1F0E4B70B51E460E4C0025E41AA410A54204D056F8253098470135F8E700F0A6FCB3
:401F0000084B094C1E46E41AA4100025A54204D056F8253098470135F8E770BD5828000058280000582800006028000010B5431E0A44914204D011F8014B03F8014FF8E79D
:401F400010BD03460244934202D003F8011BFAE7704700000EB400B54FF402719CB0ADF814106FF00041049107914FF6FF711DAB02900690084853F8042BADF816100068FE
:401F800002A9019300F00EF9029B00221A701CB05DF804EB03B070474481FF1F38B50546002944D051F8043C0C1F002BB8BFE41800F0C1FB1E4A1368114613B96360146095
:401FC00030E0A3420DD92268A018834201BF18685B681218226063600C6023E0A24203D813465A68002AF9D118681918A1420BD12168014458188242196013D1106852684F
:40200000014419605A600DE002D90C232B6009E021686018824201BF106852680918216062605C602846BDE8384000F085BB38BD9402002070B5CD1C25F0030508350C2DDF
:4020400038BF0C25002D064601DBA94202D90C23336046E000F06FFB234B1C681A462146A1B10B685B1B0ED40B2B03D90B60CC18CD501EE08C420BBF63684B68136063603D
:4020800018BF0C4615E00C464968E9E7174C23681BB9304600F016FB20602946304600F011FB431C18D0C41C24F00304A0420DD12560304600F040FB04F10B00231D20F01D
:4020C0000700C31A0ED05A42E25070BD211A304600F0F8FA0130EBD10C233360304600F02BFB002070BD00BF94020020900200202DE9F0478E6882469E420C4691469846EF
:402100003ED88A8912F4906F3AD02568096902236F1A656905EB450595FBF3F57B1C43449D4238BF1D4653050FD52946FFF782FF064698B13A462169FFF7F8FEA38923F4F3
:40214000906343F08003A38113E02A4600F0F5FA064670B921695046FFF720FF0C23CAF80030A3894FF0FF3043F04003A381BDE8F08726613E44266046466561ED1BA56047
:40218000464528BF464649463246206800F0B8FAA36800209B1BA36023681E442660BDE8F08700002DE9F04F9DB003938B8980461C060D4616460DD50B695BB94021FFF7D9
:4021C00039FF2860286118B90C23C8F80030CDE040236B610023099320238DF82930DFF89CB130238DF82A3037463C4614F8013B1BB9B7EB060910D003E0252BF9D027467F
:40220000F3E74B46324629464046FFF771FF013000F0A780099B4B4409933B78002B00F0A08000234FF0FF3204930793059206938DF853301A930126052221784E4800F045
:4022400051FA671C049B38B14B4A3C46801A06FA00F018430490EFE7D90644BF20228DF853201A0744BF2B228DF8532022782A2A03D0079A00210A200BE0039A111D126840
:402280000391002A10DA524243F00200079204900BE027463B780134303B092B03D800FB02320121F5E701B107923B782E2B1ED17B782A2B0AD1039B02371A1D1B6803920A
:4022C000002BB8BF4FF0FF33059310E0002319460593781C0A2407463A780130303A092A03D804FB01210123F5E703B1059103223978224800F0F6F940B14023CBEB00002B
:4023000003FA00F0049B013718430490397806221B487E1C8DF8281000F0E4F988B1194B33B9039B073323F007030833039314E003AB00932A46144B04A94046AFF30080E2
:4023400007E003AB00932A460F4B04A9404600F093F8B0F1FF3F824603D0099B5344099342E7AB895B0601D4099801E04FF0FF301DB0BDE8F08F00BF162800001C280000B7
:402380002028000000000000F12000002DE9F04791461F460A698B6806469342B8BF1346C9F8003091F843200C46DDF8208012B10133C9F800302368990642BFD9F800302C
:4023C0000233C9F80030256815F0060510D104F1190A07E00123524639463046C04701301AD00135E368D9F800209B1A9D42F1DB94F843302268003318BF012392060FD562
:40240000E118302081F843005A1C94F845102244023382F8431003E04FF0FF30BDE8F08704F1430239463046C0470130F4D02268D9F80050E36802F00602042A08BF5D1BE3
:402440002269A3680CBF25EAE57500259342C4BF9B1AED184FF000091A344D4509D00123224639463046C0470130D5D009F10109F3E70020BDE8F0872DE9F04317460A7EB4
:4024800085B06E2A984606460C460C9B01F1430E00F0AE8011D8632A22D009D8002A00F0BB80582A40F0CA8081F84520834955E0642A1ED0692A1CD0C0E0732A00F0B080FA
:4024C00009D86F2A2ED0702A40F0B8800A6842F020020A603EE0752A24D0782A3AD0ADE01A6801F14205111D1960136884F84230A8E021681A6811F0800F02D0111D1960E1
:4025000008E011F0400F02F10401196002D0B2F9003000E01368002B3CDA2D225B4284F8432037E021681A6811F0800F02D0111D196007E011F0400F02F10401196001D03A
:40254000138800E01368227E5C496F2A14BF0A2208221BE078225A4984F845202268186812F0800F00F104051D6003D1550601D5038800E00368D00744BF42F020022260A8
:402580001BB9226822F0200222601022002084F8430001E049490A226568002DA56008DB206820F0040020602BB9002D7DD175460CE0002B79D07546B3FBF2F002FB103354
:4025C000CB5C05F8013D03460028F5D1082A0BD12368DA0708D5236962689A42DEBF302305F8013C05F1FF35C5EB0E0323612EE008681A6810F0800F496903D0101D186067
:40260000136808E010F0400F02F104001860136801D0198000E0196000232361754616E01A68111D1960156800216268284600F059F808B1401B6060636804E004F14205E4
:4026400084F8422001232361002384F84330CDF800803B4603AA21463046FFF797FE013002D14FF0FF3026E023692A4639463046C0470130F5D023689B0710D5002504F155
:40268000190907E001234A4639463046C0470130E7D00135E368039A9B1A9D42F2DBE068039B9842B8BF184605E00B7804F1420584F842308AE705B0BDE8F0832728000046
:4026C0003828000038B5064C0023054608462360FEF742FC431C02D1236803B12B6038BDA802002010B5C9B202449042034605D01C7801308C42F8D1184610BD002010BD24
:40270000884210B501EB020301D8421E0BE09842FBD28118D21AD34204D013F8014D01F8014DF8E710BD994204D011F8014B02F8014FF8E710BD70477047F8B507461546D7
:402740000E4621B91146BDE8F840FFF773BC1AB9FFF724FC2846F8BD00F015F885420ED929463846FFF766FC044650B131462A46FFF7DCFB31463846FFF710FC01E0304689
:40278000F8BD2046F8BD51F8040C0028BEBF091851F8043CC018043870470000000000002043656E74692025640D0A0053746172740D0A00526561642053656E736F7200C8
:4027C0003B0000003A00000053310000533200004C3100004C32000025640A0049444C4500000000004F00402400305100404000F0510040100000000140001000140140C4
:40280000000800400140000A004C014000020050014020004300232D302B2000686C4C00656667454647003031323334353637383941424344454600303132333435363755
:40284000383961626364656600000000F8B500BFF8BC08BC9E4670474D000000D50F0000F8B500BFF8BC08BC9E4670472900000080280000C880FF1F8000000068810000C3
:4028800000000000AAAAAAAAB00200200000E02EC05D00001800000000366E010000000000000000000000000000000000000000000000000000000000000000142800007A
:4028C000000000000000000000000000000000000000000000000000000000000000000000000000000000000000000000000000000000000000000000000000E480FF1F56
:402900000000000000000000000000000000000000000000000000000000000000000000000000000000000000000000000000000000000000000000000000000000000097
:402940000000000000000000000000000000000000000000000000000000000000000000000000000000000000000000000000000000000000000000000000000000000057
:402980000000000000000000000000000000000000000000000000000000000000000000000000000000000000000000000000000000000000000000000000000000000017
:4029C00000000000000000000000000000000000000000000000000000000000000000000000000000000000000000000000000000000000000000000000000000000000D7
:020000040003F7
:0200000480007A
:40000000054F004005520040036400400365004001010140020501407208014047090140590A01403B0B0140040C0140020D0140010F0140021701405318014047190140AB
:40004000631A01404A1B014005400140034101400D4201400543014002450140014601400147014004480140064C01400B4D0140045001400151014001200A4B164B19107E
:40008000224B08400C80112061806440883889728B3888728A0F8B0FE601EA08EE040422065109440B2A14011502160E1715184419211A311B4A24E725E728E729E72C8030
:4000C0002D80308031183207330734603560361837803E403F014054410342024401460C470E481449FF4AFF4BFF4C624DA04EF04F41500C54185604580459045A045B04BB
:400100005C435D445F016640670269106A306B106D106E106F128270840586388B558C708D738E0D8F0C9005925894029503960C97449A20A308A973AB04AD2AAF44B003E4
:40014000B10FB330B468B63CB740B802B908BAA0BB02BF44C003C704C9FFCA07CBFFCC40CD20CEF0CF05D008D602D713D804D904DA04DB04DC44DD34DF01E040E1A8E240DA
:40018000E3200004018205080B680C040D080E040F0415801728180419A21D8A1E04204021052240234025102604278129A22D402F2832083420360438603D304104440838
:4001C000468047854C01501051105314564459015E026481651069806B28706071047301948095049705980199119B409CA49D0C9E46A420A5C2A6C0B201B308C02DC26EC5
:40020000C4E0CA7DCC62CE2CD0F2D210D681D8B0012404010540081F09FF0A600C5C0D100E23100C111C13E21403151C17E1187319081A0C1C081F04226323632404251863
:40024000287F29602C022DE72F183010311F322C340F3560364C378039803A283B0A3E01580459045C335F018208860192029B019E04A204A608AA02AE01B004B101B201D4
:40028000B402B608BE55C064C102C203C401C6ECC80CC9FFCAFFCBFFCC62CDA0CEF0CF41D00CD418D804D904DA04DB04DC40DD33DF01E640E702E910EA30EB10ED10EE109A
:4002C000EF12010802020308066008060A040B010E811060118012081584168419011A0D1B081D101E021F052160220A23302740284429042B0130203282330834213601AE
:4003000038803A023B144440458247284E0456A05D01670A89218A048B018C028D049C80AB80AF40C037C29FC4FFCA0FCC2FCE0FD0F0D220D680D83038803E4058045F01C2
:400340001FC09C808080E204E810007301E7020C0318045C05080623087F09180C010D1C0FE1101F111C126013E214021560180319241C081F0421102263240425FF280C99
:4003800029402F63302C31603210331F344C360F378039803A823B283E0456025711580459045B045C445D405F0180098210842086038C1C8E029010920C9810A414A80CE4
:4003C000AA11B020B41FBE01C042C106C5E0C6B0C70CC81AC9FFCAFFCBFFCEF0CF44D00CD804DA04DC04DD04DF01E6C0EA40EB020004018204030540071409020B080C808F
:400400000E5810281680172818841C011E64264127142C902D102E9034203501360437403C013E6841134410470448484920502052085C085D045E246D406F2874807628C4
:40044000772882018D018F109132928093089402954499A29A809B409C289D089E029F04A204A6C9A728B140B304C0FDC2FAC476CAF0CCF0CEF0D005D204D620E81005ACB5
:4004800007030B130C010F8C1531170E19311B8627402B0831303201338A350F374039023B283E043F014004470449FF4A074BFF4C404D204EF04F055008540156045804F0
:4004C00059045A045B045C305D435F01604061A8624063208470850A86088754884089538A308B048C248D038E408F449001920C9308943095539644970C9C50A440A80261
:40050000A920AB45B07CB130B340B402B50FB601B902BB20BE50BF04C036C102C6CCC7BEC83CC9FFCAFFCBFFCEF0CF44D00CD401D804D904DA04DB04DC33DD33DF01E6C09E
:40054000EA40EB0200800301048407080D080E800F021508160419041E8A2054210822802320248025242602270829082B082D1031283602370838A439103C143F804040AE
:4005800047284D1050105104530856045751582059045A805B015D805E085F11620163307C207E08820189088A028D848E048F0192809D089E03A040A208A680B020B140EB
:4005C000B440C0E1C2B0C460CA26CCC6CE7ED061D220D6FFD801E401324035808240CC30E68063029D80D6405B085F0863089B089D80A304A701AB04AF08D6C0D840EA1017
:40060000EE201B011C109D80A701C6306080D8029C809C8081809D80B410E2200C405C01B480C201D601E8081040700480048840B040B401C408DC01E201EA01EC08001834
:400640000C1810181C18000F00808000800000008000408080008000000000004000804B4B00400000000000102A2A00200000000000000000000000000000000000000011
:40068000000000000000000000000000000000000000000000000000000000000000000000000000000000000000000000000000000000000000000000000000000000003A
:4006C00000000000000000000000000000000000000000000000000000000000000000000000000000000000000000000000000000000000000000000000000000000000FA
:4007000000000000000000000000000000000000000000000000000000000000000000000000000000000000000000000000000000000000000000000000000000000000B9
:400740000000000000000000000000000000000000000000000000000000000000000000000000000000000000000000000000000000000000000000000000000000000079
:0200000490006A
:0400000000004005B7
:0200000490105A
:04000000BC90ACAF55
:0200000490303A
:02000000CB5AD9
:0200000490402A
:4000000000000000000000000000000000000000000000000000000000000000000000000000000000000000000000000000000000000000000000000000000000000000C0
:400040000000000000000000000000000000000000000000000000000000000000000000000000000000000000000000000000000000000000000000000000000000000080
:400080000000000000000000000000000000000000000000000000000000000000000000000000000000000000000000000000000000000000000000000000000000000040
:4000C0000000000000000000000000000000000000000000000000000000000000000000000000000000000000000000000000000000000000000000000000000000000000
:0200000490501A
:0C00000000012E16106900012E27DBC342
:00000001FF