:400000000080002011000000091200000912000008B5044B1A6803F53F5302331A6001F013F900BFFA46004010B5054C237833B9044B13B10448AFF300800123237010BD34
:400040004081FF1F00000000D01A0000084B10B51BB108490848AFF300800848036803B910BD074B002BFBD0BDE81040184700BF000000004481FF1FD01A0000C880FF1F3E
:400080000000000070B586B02CE001F015FA194B1B7813B1012B06D024E02B2822D10122144B1A701EE00D2800D100200A2813D1104C0025257004F108062B4662683146C1
:4000C000E06900F0BFFA6560314601A801F091FB01A801F099FA05E0064A5368591C51601344187201F028FA0028CED101F0D0F906B070BD5C81FF1F10B586B01F4801F0C3
:4001000083FA1F4BD86900F02BFB88BB6423142201A91B48C06900F0D1FA1A4901A801F071FB0446184801F06FFA204601F06CFA1649204601F053FB18B9012001F00CF97A
:4001400016E01349204601F04AFB10B901F004F90EE0104901A801F055FB01F0FDFA312803D8012001F0F8F802E0002001F0F4F84FF4FA7000F0A6FDC3E700BFD41A000015
:400180005C81FF1FDC1A0000E01A0000E81A0000F01A0000F81A000008B5034801F002F901F068F908BD00BF8500000000B583B062B600F01BF9FFF7EFFF01220021642037
:4001C00000F020FA094BD86100B9FEE70023019304220092C8220649064800F01BFC012800D0FEE700F048FCFEE700BF5C81FF1FFC1A0000F900000038B5044610F0070FC0
:4002000002D020F00704083400F062FC104B1B682BB90F4A02F10C0323F0070313600D4BD3F83C391C4447F6F772944208D8A34208D2074A15681D44064BC3F83C4902E0E5
:40024000002500E0002500F0D1FC284638BD00BF7C81FF1F44F8FF1F704700BF82B0002301934FF0A00383F31188BFF36F8FBFF34F8F019B002BFCD002B0704706480068BE
:40028000006880F3088862B661B6BFF34F8FBFF36F8F00DF00BF000008ED00E04FF0807340F8043C21F0010140F8081C034B40F80C3C40F8202C4038704700BF5D02000039
:4002C000074B19680868B0E8F00F80F30988BFF36F8F4FF0000080F311884EF00D0E70475C0200204FF0A00383F31188BFF36F8FBFF34F8F024A136801331360704700BF82
:40030000CC80FF1F034A1368013B13600BB983F311887047CC80FF1F0000000000000000EFF30980BFF36F8F0D4B1A6820E9F00F10602DE908404FF0A00080F3118800F042
:40034000DBFC4FF0000080F31188BDE8084019680868B0E8F00F80F30988BFF36F8F70475C02002008B54FF0A00383F31188BFF36F8FBFF34F8F00F0B5FB18B14FF0805295
:40038000024B1A60002383F3118808BD04ED00E0054B00221A6005490A6045F6BF51044A116007221A60704710E000E018E000E014E000E010B50B4B1A6842F460021A607B
:4003C0001A6842F060421A60FFF7E2FF0024064B1C60FFF753FF00F08FFCFFF73FFF204610BD00BF20ED00E0CC80FF1F034B044ADA62044A9A63044ADA6370470080FF1F22
:40040000C1020000210300006503000000F1080343604FF0FF328260C360036100230360704700BF00230361704700BF43684B609A688A609A685160996008610368013306
:400440000360704730B40D68B5F1FF3F01D1026907E000F1080200E01A4653681C68A542FAD253684B6099608A605160086103680133036030BC70470369426881689160DC
:400480008268416851605A68904201D182685A60002202611A68013A1A601868704700BF8268436813440068181A824200D8801A704700BFF8B504460D4617461E462022BD
:4004C000002101F084F9A561A760E660069B1BB1237F43F001032377F8BD00BF2DE9F041064688461746446885682D1B954228BF154680692A46204401F05EF9AF4205D93A
:400500007A1B08EB0501B06901F056F9E319B268934200D39B1A73603846BDE8F08100BF30B583B004460D460192ABB11A46037F13F0010F06D1019B9A4228BF1A46019279
:4005400001230CE0069B9A4208D304220DEB0201FFF7C4FF012302E0002300E000232BB1019A29462046FFF7B9FF00E0002003B030BD00BF2DE9F0419A4228BF1A461446F0
:40058000DAB18846054606688768BF1B974228BF174681693A463144404601F00DF9BC4205D9E21BA96908EB070001F005F92644AB689E4200D3F61A2E602046BDE8F081C9
:4005C0002DE9F04383B005460F4690461C460A9E76B1D0F80090324601A9FFF7CBFFA41B019B434505D9C5F800900023019300E001922346019A39462846FFF7BBFF03B012
:40060000BDE8F083F0B583B017460D4601B90125461C2130FFF7F0FD044630B100972B46324600F12001FFF745FF204603B0F0BD8268036813444068181A0138824200D88C
:40064000801A70472DE9F04182B004460E4615469846037F13F0010F01D0171D00E017462046FFF7E5FF009703462A4631462046FFF756FF0546E8B12046FFF711FFE368AF
:40068000984217D3EFF311864FF0A00383F31188BFF36F8FBFF34F8F23694BB12069CDF8008000231A46194600F012FC0023236186F31188284602B0BDE8F0812DE9F0435E
:4006C00083B00446884691461F46037F13F0010F01D0042600E00026FFB1FFF703FE2046FFF7DEFE0546864205D3002000F05CFC00F03AFB2061FFF705FEAE4211D33B46B7
:4007000000224FF0FF31104600F034FB002323612046FFF7C5FE054603E02046FFF7C0FE0546B54217D900962B464A4641462046FFF746FF054678B100F0CAF963693BB1D5
:40074000606900231A46194600F066FB0023636100F04CFA00E00025284603B0BDE8F083026843689A4201D10120704700207047094B9B6A1B680BB9012300E0002323B115
:400780004FF0FF32044BDA627047034B9A6AD268D2685268DA6270478401002010B50446006BFFF759FD2046FFF756FD10BD00BF2DE9F04781460D4617469A46089EDDF84F
:4007C00024800A9C9200A521206B01F000F8236B07F18042013A03EB820727F00707002306E0E95CE21882F83410EA5C12B101330B2BF6D9002384F83F30042E00D9042639
:40080000E662266400256564201DFFF70BFE04F11800FFF707FE2461C6F10506A6616462A56484F84C50524649463846FFF736FD2060B8F1000F01D0C8F80040BDE8F0878C
:4008400070B5002407E004EB8402930010481844FFF7DCFD0134042CF5D90E4C04F194063046FFF7D3FD04F1A8052846FFF7CEFD04F11400FFF7CAFD04F1BC00FFF7C6FD64
:400880002046FFF7C3FDA662C4F8D05070BD00BFB40100208401002038B50546FFF722FD264BD3F8D4200132C3F8D420D3F8D8304BB9224BC3F8D850D3F8D430012B10D170
:4008C000FFF7BEFF0DE01D4BD3F8DC304BB91B4BD3F8D830DA6AEB6A9A4202D8174BC3F8D850164CD4F8E0300133C4F8E030EB6A012202FA03F1D4F8E4200A43C4F8E420C5
:4009000004F1300003EB83039A00291D1044FFF78DFDFFF7F7FCD4F8DC306BB1D4F8D830DA6AEB6A9A4207D24FF08052044B1A60BFF34F8FBFF36F8F38BD00BF84010020F8
:4009400004ED00E038B517E0FFF7CCFC0D4CD4F8C830DD68281DFFF78FFDD4F8D430013BC4F8D430D4F8E830013BC4F8E830FFF7C9FC2846FFF712FF024BD3F8E830002B90
:40098000E2D138BD8401002008B5FFF7DBFFFCE770B504460E461E4BD3F8EC50D3F8D8000430FFF769FD60B9194BD3F8D820D16A012202FA01F1D3F8E42022EA0102C3F8EF
:4009C000E420B4F1FF3F07D136B11148D0F8D8100431FFF72BFD70BD2C440D4BD3F8D8305C60A54208D90A4BD3F8D000D3F8D8100431FFF727FD70BD054DA86AD5F8D81071
:400A00000431FFF71FFDEB6A9C4200D2EC6270BD840100202DE9F04385B006460F46154698469000FFF7E8FB60B181465020FFF7E3FB044610B1C0F8309004E04846FFF782
:400A40000BFC00E000248CB10023039302940D9B01930C9B009343462A4639463046FFF7A7FE2046FFF718FF012001E04FF0FF3005B0BDE8F08300BF00B583B0104B01939A
:400A800000230093C8220F490F48FFF7C3FF012813D14FF0A00383F31188BFF36F8FBFF34F8F0A4B4FF0FF32DA620122C3F8DC200022C3F8EC20FFF77DFC03B05DF804FBB7
:400AC00078020020281B00008909000084010020034AD2F8F0300133C2F8F030704700BF840100202DE9F0413F4BD3F8F030002B66D13D4BD3F8EC700137C3F8EC7067B946
:400B00009A6AD3F8D0109962C3F8D020D3F8F8200132C3F8F820FFF72BFE334BDB6A9F4205D24FF000083FE04FF0010801E04FF000082D4B9B6A1B680BB9012300E000231C
:400B400023B14FF0FF32284BDA622DE0264B9B6ADB68DC6863689F4202D2234AD36223E0261D3046FFF788FCA36A1BB104F11800FFF782FCE36A012202FA03F11A4DD5F832
:400B8000E4200A43C5F8E42005F1300003EB83039A0031461044FFF749FCE26AD5F8D830DB6A9A42C0D2C4E70F49D1F8D830DB6A03EB83039A000A44136B012B09D80AE02B
:400BC000094AD2F8FC300133C2F8FC304FF0000801E04FF00108044BD3F800310BB14FF001084046BDE8F0818401002070B5FFF779FB324BD3F8F020013AC3F8F020D3F8DA
:400C0000F030002B53D12D4BD3F8D43043BB002450E02A4C236ADD6805F11800FFF72CFC2E1D3046FFF728FCEB6A012202FA03F1D4F8E4200A43C4F8E42004F1300003EB05
:400C400083039A0031461044FFF7F0FBEA6AD4F8D830DB6A9A4204D30122C4F8002100E00025164B5B69002BD3D10DB1FFF780FD124BD3F8FC4064B1FFF734FF18B10122D0
:400C80000E4BC3F80021013CF6D100220B4BC3F8FC200A4BD3F800315BB14FF08052084B1A60BFF34F8FBFF36F8F012402E0002400E00024FFF726FB204670BD84010020B3
:400CC00004ED00E010B548B10446FFF701FF00212046FFF75DFEFFF789FF00E0002038B94FF08052034B1A60BFF34F8FBFF36F8F10BD00BF04ED00E01A4BD3F8F03023B144
:400D00000122184BC3F80021704710B4154A0023C2F80031D2F8E430B3FA83F3DBB2C3F11F039800C418A10011444C6B64684C6302F130011844820008320A44944206D132
:400D4000606803EB83018A0006490A445063054903EB83039A000A44536BDB68C1F8D83010BC704784010020014BD3F8D800704784010020F8B507460D4614461E46FFF77F
:400D8000B1FA234BD3F8D83093F84C30DBB2022B18D01F4BD3F8D820906C20EA07009064D3F8D830012283F84C205EB111463046FFF7EEFD4FF08052164B1A60BFF34F8F5A
:400DC000BFF36F8FFFF79EFAFFF78CFA24B1104BD3F8D8309B6C23600D4BD3F8D83093F84C30DBB2022B08D1094BD3F8D820936C23EA05059564012400E00024044BD3F87E
:400E0000D830002283F84C20FFF77CFA2046F8BD8401002004ED00E0F8B504460F4615461E46FFF75FFA0EB1A36C336094F84C30DBB2022284F84C206A1E032A15D8DFE8DF
:400E400002F002070C0FA26C1743A76401250FE0A26C0132A26401250AE0A764012507E0022B04D0A764012502E0012500E00025012B24D1271D3846FFF7FEFAE36A0122E5
:400E800002FA03F1104ED6F8E4200A43C6F8E42006F1300003EB83039A0039461044FFF7C5FAE26AD6F8D830DB6A9A4207D94FF08052064B1A60BFF34F8FBFF36F8FFFF711
:400EC00021FA2846F8BD00BF8401002004ED00E0F8B5EFF311844FF0A00585F31188BFF36F8FBFF34F8F0BB1856C1D6090F84C30DBB2022580F84C50013A032A15D8DFE814
:400F000002F002070C0F826C1143816401250FE0826C0132826401250AE08164012507E0022B04D08164012502E0012500E00025012B31D106461A4BD3F8F030B3B9071DE3
:400F40003846FFF799FAF36A012202FA03F11448D0F8E4200A43C0F8E420303003EB83039A0039461044FFF761FA04E000F118010C48FFF75BFAF26A094BD3F8D830DB6AE2
:400F80009A4209D9069B1BB10123069A136003E00122034BC3F8002184F311882846F8BD840100209801002010B5044610B90A4BD3F8D840FFF796F994F84C30DBB2022BB7
:400FC00004D1002384F84C30012400E00024FFF799F9204610BD00BF84010020FEE700BFF0B40022174611E050F82760F3B226F0FF0608E001EB420511F812406D78A5551D
:401000000132013BDBB2002BF4D10137162FEBD9F0BC7047064B1B78DBB203F00701054A11701B09013213704422034B1A707047CF0100496E5800407658004008B50A46DB
:40104000002100F0C4FB08BD38B50122264B1A801823264A13704FF49C7102321180023213700222224B1A7008224FF040231A70032103F5007319701E4B1B78DBB21E494D
:401080000B701E4B1A8041F25122023B1A80002419250CE01A4B1B7803F0010343EA440404F003044FF4F07000F046FB013D0DB1032CEFD115B90320FFF790FF114B4FF4B4
:4010C00080721A8007221A7000220F490A704820023108701A700222033B1A700B4A137843F00303137038BD80400040824000400043004008010049A14600402242004001
:40110000254200400440004006400040A243004008B500F051FB08BD38B572B62B4A137843F00403137000240CE0294D630019194A0011462A44084691882858FFF77EFFC5
:401140000134E4B2072CF0D922494FF09040FFF747FF214A137843F0020313701032137843F0020313701D4C237843F040032370A2F58632513A137843F0100313700A2252
:4011800017491848FFF7C4FF082217491748FFF7BFFF082216491748FFF7BAFF164A137843F008031370154D61232B70FFF74CFF81232B700122124B1A70FFF72BFF0E227B
:4011C00021461048FFF7A4FF38BD00BFE8460040301B00005C00004803500140A043004048040048C051004054040048125100405C0400482251004022430040004800401F
:4012000004000840B043004008B500F0A9FA03680C2B00D1FEE7FEE708B5094B1A681044084BC31A802B02DC054B186005E000F097FA0C2303604FF0FF32104608BD00BFF8
:40124000D080FF1FC002002008B5104E104D16E029686B68AC68002204E051F8040B43F8040B0432A242F8D1E868002203E0002143F8041B04328242F9D11035013E002E67
:40128000E6D100F073FAFEF791FFFEE701000000881C000008B5104A104B1A60104A136843F40073136000230AE0032B03D80D4A52F8231000E00C490C4A42F82310013317
:4012C0002F2BF2D90A4B1A780A4B1A70074A0A4B1A60FFF721FF08BD0004FA050CED00E014ED00E000000000091200000080FF1FBC760040C080FF1F08ED00E001BE704777
:4013000070B504460E46074B1D681F2802D90020FFF7F4FF04F01F04103455F8240045F8246070BD08ED00E038B504460D46072902D90020FFF7E2FF1F2C02D90020FFF791
:40134000DDFF04F01F0000F1604000F564406D01EDB2057038BD00BF044A137803F0FD03400000F0020018431070704720510040014B1B681864704708ED00E04001C0B253
:40138000014B1870704700BF00E400E00122014B1A60704700E100E00122014B1A60704780E100E010B50446FFF7F6FF2046FFF7DFFF0720FFF7E2FFFFF7E8FF10BD00BF42
:4013C00008B512490120FFF79BFF04210120FFF7ABFF00220E4B1A7072220E4B1A70202203F203131A700C490220FFF789FF04210220FFF799FF0622084B1A704722103370
:401400001A7002224D331A7008BD00BF2D1600008802002088640040C51600002B65004010B500F091F904460E4A137843F02003137002F20312137843F0100313700A4AB6
:401440000223136009490B7843F010030B70042307490B60136000F061F9204600F078F910BD00BF9864004000E100E09865004080E200E008B5054B5B7823B9FFF7A0FF7F
:401480000122024B5A70FFF7CBFF08BD88020020074B187800F07F00064B5B7913F0FF0F04D040F080000022024B5A71704700BF6B650040880200200222194B1A60194AE9
:4014C0009378DBB2D178C9B2127912F0FF0F01D18B4211D0144AD05CC0B20133DBB20E2B00D900230F4A9370137913F0FF0F13D000220C4B1A710FE00C4B1B78DBB213F03A
:40150000200F06D00A4A1078C0B213F01E0F02D102E0002000E000200222064B1A60704780E100E0880200209C0200206B6500404865004000E100E00222144B1A60144BEA
:401540009A78D2B2DB78DBB29A4206D1104B1B7913F0FF0F15D00F2014E00D4B9A78D2B2DB78DBB29A4205D2094AD3789078181AC0B207E0064AD3789078181A0F30C0B202
:4015800000E000200222034B1A60704780E100E08802002000E100E0164BD9799B79DBB2994205D25A1E914214BF0022012204E0CA1A0E2A14BF00220122002AECD1994299
:4015C00007D10D4B1B7813F0040F02D10B4B187070470E2900D90021094B58540131054BD971054B1B7813F0020F02D00422054B1A6070478802002068650040486400409A
:40160000AC02002000E200E038B5074B5B782BB938BDFFF7C1FF0134A4B201E005460024285D0028F5D138BD880200201D4B1B78DBB213F01E0F05D01B4803F01E02017810
:401640000A43027003F0200303F0FF0233B3174B1978C9B2164B1B78DBB21648C154164B1B7813F0FF0F02D00121144B197010490B780133DBB20B700B78DBB20E2B02D93C
:4016800000210B4B19700A4B1978C9B20C4B1B78DBB2994202D10121074B1970002AC5D1704700BF6B65004088020020486500408B0200209C0200208C0200208D02002002
:4016C0008A02002013E0104B1B78DBB20E2B02D900220D4B1A700C4A1378DBB20B49CB5CDBB20B490B7013780133DBB21370064B1B78DBB2074A1278934204D0064B1B78CB
:4017000013F0040FDFD070478E020020AC020020486400408F02002068650040054A137843F0020313701032137843F002031370704700BFA24300400230800803D000BF01
:4017400001380046FCD17047EFF3108072B6704780F31088704700BF0A22002100F036B9014B1868704700BF3481FF1F0E4B70B51E460E4C0025E41AA410A54204D056F837
:40178000253098470135F8E700F06CFA084B094C1E46E41AA4100025A54204D056F8253098470135F8E770BD701C0000701C0000701C0000781C000010B5431E0A449142A9
:4017C00004D011F8014B03F8014FF8E710BD03460244934202D003F8011BFAE7704710F8012B11F8013B012A28BF9A42F7D0D01A7047034611F8012B03F8012B002AF9D17C
:4018000070470000174B2DE9F0411D680646AC6D0F46FCB9502000F0E3F8A8658460AB6D046044601C61DC60AB6D9C615C61AB6DDC629C62AB6D5C631C63AB6DDC639C637D
:40184000AB6D5C641C64AB6DDC649C64AB6D1C77AB6D5C62AA6D39463046BDE8F041012300F002B83481FF1FF0B548B9106838B9F0BD17F8016B5EB1B542FAD12BB120466A
:4018800004460F4614F8015BF3E714600370F0BD4DB915602846F0BD17F8016BB54207D0002EF9D11C4623460F4613F8015BF3E715B10021217000E02B461360F0BD000092
:4018C0002DE9F0470F4680463F48D0F800903D4615F8014B09EB0400407800F0080000F0FF0608B12F46F2E72D2C03D1BD1C7C78012603E02B2C04BF7C78BD1C13B1102B37
:401900000AD15BE0302C57D1287800F0DF0058284DD16C7810230235002E14BF4FF0004C6FF0004CBCFBF3FA0027384603FB1ACC09EB040E9EF801E01EF0040F01D0303C73
:401940000BE01EF0030E1BD0BEF1010F0CBF4FF0370E4FF0570ECEEB0404A34210DDB7F1FF3F0AD0504506D801D1644503DC03FB0040012701E04FF0FF3715F8014BD7E7CD
:401980007B1C0CD1002E4FF0220314BF4FF000406FF00040C8F800302AB9BDE8F08706B1404272B107B1691E1160BDE8F0873024002BB1D10823AFE70A23ADE7302CA3D0C7
:4019C000AAE7BDE8F08700BF3881FF1F13460A46014602480068FFF773BF00BF3481FF1F024B0146186800F003B800BF3481FF1F70B5CD1C25F0030508350C2D38BF0C252E
:401A0000002D064601DBA94202D90C23336046E000F05CF8234B1C681A462146A1B10B685B1B0ED40B2B03D90B60CC18CD501EE08C420BBF63684B681360636018BF0C4698
:401A400015E00C464968E9E7174C23681BB9304600F02CF820602946304600F027F8431C18D0C41C24F00304A0420DD12560304600F02DF804F10B00231D20F00700C31A98
:401A80000ED05A42E25070BD211A304600F00EF80130EBD10C233360304600F018F8002070BD00BF980200209402002038B5064C0023054608462360FFF7AEFB431C02D1B6
:401AC000236803B12B6038BDBC02002070477047000000005461736B000000003A000000496E7369646520004C45444F4E0000004C45444F464600002A0000005461736BB3
:401B00002031000057656C636F6D6500546F20454500000034343530000000004D657373616765204275660049444C4500000000005100401000305100404000F05100400B
:401B4000100000000140001000140140000800400140000A004C014000020050014020004300002020202020202020202828282828202020202020202020202020202020D1
:401B800020202088101010101010101010101010101010040404040404040404041010101010101041414141414101010101010101010101010101010101010101011010FB
:401BC0001010101042424242424202020202020202020202020202020202020202021010101020000000000000000000000000000000000000000000000000000000000091
:401C000000000000000000000000000000000000000000000000000000000000000000000000000000000000000000000000000000000000000000000000000000000000A4
:401C4000000000000000000000000000000000000000000000000000000000000000000000000000F8B500BFF8BC08BC9E4670474D00000095120000F8B500BFF8BC08BC0D
:401C80009E46704729000000981C0000C880FF1F780000008081000000000000AAAAAAAAC00200200000000000000000000000000000000000000000000000000000000043
:401CC00000000000601B0000000000000000000000000000000000000000000000000000000000000000000000000000000000000000000000000000000000000000000069
:401D000000000000D480FF1F621B000000000000000000000000000000000000000000000000000000000000000000000000000000000000000000000000000000000000B4
:401D40000000000000000000000000000000000000000000000000000000000000000000000000000000000000000000000000000000000000000000000000000000000063
:401D80000000000000000000000000000000000000000000000000000000000000000000000000000000000000000000000000000000000000000000000000000000000023
:401DC00000000000000000000000000000000000000000000000000000000000000000000000000000000000000000000000000000000000000000000000000000000000E3
:401E000000000000000000000000000000000000000000000000000000000000000000000000000000000000000000000000000000000000000000000000000000000000A2
:020000040003F7
:0200000480007A
:400000000252004002640040026500404708014035090140021501405918014047190140611A01404D1B01400340014002410140024201400243014002450140014601409D
:40004000014701400248014005490140034C0140074D01400450014001510140618064408872890D880F8B380002013C03C205080623083F09FF0C1F0DC00E20101C1180B5
:400080001223140117E3183319181A0C1C081D1C1FE120032110240425E72718280C2B042D44311F3210340F3538362C37C03AA03B023E044051410245E046B0470C481ACA
:4000C00049FF4AFF4BFF4EF04F44500C56025711580459045A045B045C115D115F0166C06A406B029C01A401A801B401D405D804DB04DC01DF0104180552060109400C800A
:400100000D060E081008110815061680171818081A081D601E281F202404250327022C822E102F20320C3542360837103C103D063E82460847404D404F01561057085880B5
:4001400059015A045E206C186D8874807718C0F0C2F1C476CAF0CCF0CEF0D030D210D62BE602EE0801110204030605110604070E08010E010F081208150C171318011C029A
:400180001F132208230C2B102E01300132083402350F3604371038023B203E543F40402641044203440545E0460C480649FF4AFF4BFF4C624DA04EF04F41500C54015604F1
:4001C000580459045A045B045C115D115F016640670269106A306B106D106E106F128020810182058306880389078A048C138E0C910293019413950796049E08A104A3012E
:40020000A80AAA14B00FB107B630B880BA22D804D904DC11DF01016003480404051006610A020B200D220F01112015011602180919101A021B811D421E081F042101220262
:4002400025102640270429022F88300A3744382039023C803E083F02452146204D014E044F8056405D205E885F01644079407B018D40902492089301954A96149A139B025C
:400280009C809D139E089F40A008A124A308A402C0FBC2D5C492CAA1CC53CED5D0E0D230D6F0D88000200214060807020B0E0E0215082208243028302C102E252F01303002
:4002C00031083201330434083501360637023E504020410145D04612480E49FF4AFF4BFF4DA04F0450185280580459045A045B045C015F01604062C06440654066C068C0A0
:400300006AC06CC06EC08009810682D0841488DC8A228C108EAC9504960399019F02A010A240A506A80CAA71AE20B21FB306B4E0B501B908BA20BF14C002C604C9FFCA07AB
:40034000CBFFCC40CD20CEF0CF05D008D418D604D804D904DA04DB04DC01DD11DF01E040E1A8E240E3200004010202020401061207040E20108A11081648174019021A1489
:400380001B401E201F1020042149262027202A802E082F1031083690374438243E023F0240844181472049014E8050905180544056405F026540674872808220874088026A
:4003C00089049001930895889614972099409A109B069C809D039E089F40A008A104A202A301A442A740AC40B404B501C0FDC220C4DFCA48CC72CE86D02CD680D8B0E40100
:4004000032243620CC709608A6209608A6209608A6205008D404A408A4089608A6208620A620AE04E640EE108C08A408E4081080700480048880C408DC01E60100030C031C
:4004400010031C03003F0000800040808000800000000000000B0B0000000000000303000100000000000000000000000000000000000000000000000000000000000000AE
:40048000000000000000000000000000000000000000000000000000000000000000000000000000000000000000000000000000000000000000000000000000000000003C
:4004C00000000000000000000000000000000000000000000000000000000000000000000000000000000000000000000000000000000000000000000000000000000000FC
:4005000000000000000000000000000000000000000000000000000000000000000000000000000000000000000000000000000000000000000000000000000000000000BB
:40054000000000000000000000000000000000000000000000000000000000000000000000000000000000000000000000000000000000000000000000000000000000007B
:0200000490006A
:0400000000004005B7
:0200000490105A
:04000000BC90ACAF55
:0200000490303A
:02000000281DB9
:0200000490402A
:4000000000000000000000000000000000000000000000000000000000000000000000000000000000000000000000000000000000000000000000000000000000000000C0
:400040000000000000000000000000000000000000000000000000000000000000000000000000000000000000000000000000000000000000000000000000000000000080
:400080000000000000000000000000000000000000000000000000000000000000000000000000000000000000000000000000000000000000000000000000000000000040
:4000C0000000000000000000000000000000000000000000000000000000000000000000000000000000000000000000000000000000000000000000000000000000000000
:0200000490501A
:0C00000000012E16106900012E22388627
:00000001FF