:4000000000800020110000007D0300007D03000008B5044B1A6803F53F5302331A6000F0B5F900BFFA46004010B5054C237833B9044B13B10448AFF300800123237010BDC9
:400040008881FF1F0000000080120000084B10B51BB108490848AFF300800848036803B910BD074B002BFBD0BDE81040184700BF000000008C81FF1F80120000C880FF1F5E
:400080000000000038B562B600F03AFA00F014FC00F04EFC4FF6FF7500F040FD00F06EFB00F0AEFA0028FBD100F04EFD04464FF6FF739842F0D08542EED0C0B200F0D4F988
:4000C0002546E9E7FEE700BFF0B40022174611E050F82760F3B226F0FF0608E001EB420511F812406D78A5550132013BDBB2002BF4D10137152FEBD9F0BC70470E4B1B78AE
:40010000DBB203F007010D4A11701B090132137010220B4B1A70002203F273631A70202203F25B231A70012290331A704422A3F2E5231A70704700BFCF0100496E5800402B
:40014000FD51004008B50A46002101F090F808BD38B50122264B1A801823264A137041F2BF2102321180023213700222224B1A7008224FF040231A70032103F50073197024
:400180001E4B1B78DBB21E490B701E4B1A8041F25122023B1A80002419250CE01A4B1B7803F0010343EA440404F003044FF4F07000F02EFE013D0DB1032CEFD115B903200C
:4001C000FFF780FF114B4FF480721A8007221A7000220F490A704820023108701A700222033B1A700B4A137843F00303137038BD80400040824000400043004008010049C7
:40020000A146004022420040254200400440004006400040A243004008B501F01DF808BD072808D8044B53F82020184490F8201013780B431370704784120000072809D8DF
:40024000054B53F82020184490F82010137823EA01031370704700BF8412000038B572B6334A137843F00403137000240BE0314863001A19510001440A46898D906AFFF780
:4002800061FF0134E4B2072CF1D92B494FF09040FFF71AFF4FF44072284B1A8040F20312283B1A80264A03F534438E331A60254A137843F0020313701032137843F002036A
:4002C0001370214C237843F040032370A2F58632513A137843F01003137008221B491C48FFF79AFF08221B491B48FFF795FF08221A491B48FFF790FF08221A491A48FFF7E6
:400300008BFF1A4A137843F008031370184D61232B70FFF71DFF81232B700122154B1A70FFF7ECFE0E2221461348FFF775FF38BDE8460040841200005800004872580040C2
:40034000040404C403500140A04300400C040048F251004014040048125100401C040048225100402404004832510040224300400048004004000840B043004008B500F071
:400380003FFF03680C2B00D1FEE7FEE708B5104E104D16E029686B68AC68002204E051F8040B43F8040B0432A242F8D1E868002203E0002143F8041B04328242F9D1103578
:4003C000013E002EE6D100F021FFFFF75BFEFEE7010000008413000008B5104A104B1A60104A136843F40073136000230AE0032B03D80D4A52F8231000E00C490C4A42F870
:40040000231001332F2BF2D90A4B1A780A4B1A70074A0A4B1A60FFF721FF08BD0004FA050CED00E014ED00E0000000007D0300000080FF1FBC760040C080FF1F08ED00E0EF
:40044000024A137843F08003137070477C640040014B1870704700BF0B640040014B1870704700BF4B640040014B1870704700BF2B640040014B1870704700BF8C640040D0
:40048000014B1878704700BF6C640040014B1878704700BF5B64004008B501E0FFF7F6FFFFF7EEFF10F0100FF8D108BD08B5124A137803F0C00343F0090313701F32137878
:4004C00043F0010313706420FFF7C2FF6420FFF7C5FF0020FFF7C8FF0020FFF7CBFF00F09FFC064A137843F01003137000F09CFCFFF7D2FF08BD00BF7C6400409C640040AA
:4005000008B5054B1B7823B9FFF7D0FF0122024B1A70FFF795FF08BDA481FF1F01BE704770B504460E46074B1D681F2802D90020FFF7F4FF04F01F04103455F8240045F8AA
:40054000246070BD08ED00E038B504460D46072902D90020FFF7E2FF1F2C02D90020FFF7DDFF04F01F0000F1604000F564406D01EDB2057038BD00BF10B500F051FC044692
:40058000134A137843F02003137000F031FC00F055FB00F0ABFB0F4A137843F010031370103A137843F01003137002F5A6520532137843F001031370204600F035FC012227
:4005C000054B1A60054A137843F08003137010BD9D640040BB43004000E100E07A6400400130C0B2052808D0C20800F0070101238B4002498A5C1342F2D07047CC80FF1F31
:40060000024B187800F00100704700BFC681FF1F10B50B4B195C1A18147A03EB80031B6909221A700F2900D10721054A02EB8102526A137823431370FFF7F2FD10BD00BF86
:40064000DC12000070B505460B4B1C5C03441E7AFFF7F4FD0F2C00D10724074800EB8404626A137823EA0603137000EB8500036908221A7070BD00BFDC12000010B500244C
:4006800004E02046FFF7DEFF0134E4B2042CF8D910BD00BF10B50E4A137803F0FC0313700C4B1B781B020C4921F810306B3A12781343DB4321F81030FFF7C4FF002000F02E
:4006C00031FB064A137843F00103137010BD00BF7A6400401F640040B481FF1F70580040024B187040081033187070472A64004070B50446084B034493F84450074E33183C
:40070000187900F00FFB35442A7B054B1A70054B185DFFF7E5FF70BDDC120000CC80FF1F5E640040C081FF1F38B50546FFF7E0FF084C237843F001032370074A137803F01C
:40074000FE0313702846FFF763FF237843F00203237038BD7A6400407058004008B5054B00221A70044A107081221A70FFF7DCFF08BD00BFC681FF1FC581FF1F10B50022F5
:400780000A4B1A700A4CFF2323702078FFF728FF20702378DBB2042B07D8044A137843F0010313702078FFF7BFFF10BDC681FF1FC581FF1F012805D1054A137803F0EF03A1
:4007C00013707047024A137843F01003137070477A64004038B5FFF751FF0220FFF7EAFF00F01EFB2E4A137843F0030313700132137843F00303137000F016FB4FF434421A
:40080000284B1A804FF6FF7520331D80072441331C7000F005FB244A137843F0030313700132137843F00303137000F0FDFAFF231E4A157020321370403A1370213213701A
:4008400030321370103A1370012203F1E02381331A6017490020FFF763FE21460020FFF773FE00F0C1FA0520FFF7DAFC0620FFF7D7FC2046FFF7D4FC0E4A137843F00403E5
:40088000137000F015FA00F06DFA002000F080FA042000F08DFA002000F044FA38BD00BF9C6400402C6400409E6400402E640040B50B00007A64004008B5084B1B7823B9B7
:4008C000FFF788FF0122054B1A70FFF755FE00F0A5F90122024B5A7308BD00BFA581FF1FCC80FF1F074B33F81030074A22F81030002206490A5406490A54064A22F81030AA
:40090000704700BFB481FF1FE081FF1FD081FF1FD881FF1FEC81FF1F10B50446FFF71EFFFFF76EFE0028FBD12046FFF7DBFF10BD10B5002404E02046FFF7EEFF0134E4B2A2
:40094000042CF8D910BD00BF70B4094D05440026FF20334608E0EC5C944203D9A64201D2264618460133DBB28B42F4D370BC7047D881FF1FF0B59DF81450284C2144044692
:4009800010B1461EF6B200E00026601CC0B211F804E0234F87F809E024B900263E72095CB9720DE0013A944205D1895D1C4A11720021917204E08E5D194A1672095C917283
:4009C000174A127AAA4203D9521B15490A7202E00021134A1172124A517A491BC9B25172927A954203D2551B0D4A957202E000200B4A90720A4A907A157A421B294408446D
:400A0000120292FBF0F000EB04201BB200FB03F000F5FE40C0F30740F0BD00BFD881FF1FA881FF1F084400EB4100C0F38F0070472DE9F0410446314B1B5C314A13441E7AB5
:400A4000304D35F81010304B33F81000FFF7EAFF074625F81400204600F0DCF82B4B33F81420974204D3BD1AADB24FF0010803E0D51BADB24FF00008B8F1000F10D1142D19
:400A80000ED9234B1B5D042B06D92046FFF72AFF00221F4B1A551AE001331D4A135516E0B3B29D4204D9132D11D8B8F1000F0ED118490B5D43EA02231F44BF1AC7F30F22C5
:400AC000124B23F814200F550022114B1A55B6B2B5420DD9B8F1000F0AD0FF2D04D9FF220D4B1A55BDE8F0810B4B1D55BDE8F0810022094B1A55BDE8F08100BF2013000050
:400B0000DC80FF1FEC81FF1FB481FF1FE081FF1FC881FF1FD081FF1FD881FF1F10B500240DE0E20804F0070101238B4005498A5C134202D02046FFF77BFF0134E4B2042CBA
:400B4000EFD910BDCC80FF1F70B582B00446184B1A18157B1A5C05210020FFF7F5FEFF281DD0134E3444237A00934FF4C85305220021FFF7FFFE024680B26B1CDBB22E4455
:400B8000317B29B90A490B441A73012333730CE0074C1C44217BFFF745FF207305E0044B1D4400232B734FF6FF7002B070BD00BFDC80FF1F10B5114B1878FFF76BFD104B1A
:400BC0001B7813F0800F05D00D4A137803F0FE03137010BD094C2078FFF702FD20702378DBB2042B03D82078FFF79EFD10BD044A137803F0FE03137010BD00BFC581FF1FFB
:400C0000C681FF1F08B5FFF7A9FD08BD08B5FFF7F7FC08BD08B500F0E5F908BD08B500F097FA08BD08B50220FFF7C4FD08BD00BF08B50120FFF7BEFD08BD00BF054A13786C
:400C400043F0020313701032137843F002031370704700BFA74300400F490B7803F0FC0200F0030313430B7001280AD10B4B1B78DBB20B4A13700B4B1B78DBB20132137080
:400C80007047094B1B78DBB2054A1370074B1B78DBB201321370704741580040110100493246004015010049AF010049B701004908B50020FFF7D0FF0B4B1A7842F0200235
:400CC0001A701A7802F0FB021A701A7842F008021A7003F28E231A7802F0E7021A701A7842F010021A7008BD41580040054A137843F0080313701032137843F00803137043
:400D0000704700BFA8430040054B1A7802F0FD021A701A7800F0020010431870704700BF2C580040014B1870704700BF835B0040094B1B7803F00C035B08084A127812F08A
:400D4000040F00D0013303F1924393F83831DBB2034A1370704700BF2C5800402D5800400B46004008B51422084B1A700133002018701A7842F004021A701A7842F00202EA
:400D80001A70FFF7C1FFFFF7D3FF08BD2C58004008B5064B1A7802F0FB021A701A7800F0040010431870FFF7C3FF08BD2D58004008B5064B1A7802F0F3021A701A7800F053
:400DC0000C0010431870FFF7B3FF08BD2C58004010B5002404E02046FFF730FA0134E4B2072CF8D910BD00BF08B5FFF7F1FF08BD054A137843F0010313701032137843F031
:400E000001031370704700BFA2430040000000000230800803D000BF01380046FCD17047EFF3108072B6704780F31088704700BFF7B50193194B041C1B7883422CD9184BEB
:400E4000184F1B6808261954396800230B54164B16491B6809681B5C8025CA54420000923968201C0B191A782A431A70FFF7CAFEFFF7CCFE0028FBD10D4B009A1B680199FD
:400E80009B5A8B4204D23A6813191A78AA431A70013E6D08002EE3D1F7BDC046ED80FF1FFC80FF1F0081FF1F1081FF1F1481FF1FF880FF1F70B5194DFF232B54184B0F22F7
:400EC0001B68041C1E5C174BFFF7B2FF164A174B10881B5D311C584300F07EF980B2802804D92B5D40085B082B55F8E7104BC0B21855104B10498008185562000023535255
:400F00000E490F4853520F490968095DFF2444540D4843540D4909688B5270BD1482FF1F0081FF1F980D0000F080FF1F581300002C82FF1F3482FF1FFC81FF1F1C82FF1FCF
:400F40001082FF1F1081FF1F2882FF1FF480FF1F1E4BF7B51A681E4E43001E4C9A5A9F5B195BBD1AADB20191891A6940090429D5002D27D0019D1F53511B89B28DB22CB28F
:400F8000002C01DA4D42ADB21349EDB20F5C79088D4217DA114C215C8D4206DD104D00260131FF082E54C9190BE08D420AD00C4D2F5C092F02D801372F5403E000272F5417
:400FC000013921540249CA52F7BDC046F880FF1FFC81FF1F1C82FF1F2C82FF1F3482FF1F0882FF1F70B5264B051C1B681C5CFFF7AFFF244B595D244B48005A5DC0B2234B23
:40100000824204D9185D904205D91A5503E01E5D864200D9185548080918C8B29208011C904200D2111C1A4AC8B2165D864200D2115518490968085D17490968095D411884
:40104000013989B28D421AD11449185D0D6828551348155D0668355500680E680019355D06786D08AE4200D3057009680D48095D006889080155FF2119550023135570BD43
:401080001081FF1F3482FF1F2C82FF1F1082FF1F2882FF1F0881FF1F0C81FF1F0481FF1F1C81FF1F1881FF1FF7B50022224B1B7893423FD9214C2248267800230768B44646
:4010C000191CDDB265450BD2FD5C954206D11D4DEE5C351C8E4200D20D1CE9B20133F0E7194B1B68995424780068019400900023019CD8B2A0421AD2009CE05C904214D184
:40110000124CE05C0F4D5D192F78B94206D901267F003743B0402F7080B2F3E7FF25071CAF4301D0E55400E0E0540133E0E70132D2B2BBE7F7BDC046EC80FF1FEE80FF1F8C
:401140001081FF1F1482FF1F1481FF1F2C82FF1F38B5FFF76DFD0024194B1A781D1CA2420AD9184B01221978D923201C93400134FFF75EFEE4B2EFE70023134A12789A422B
:401180000BD91249124A09681248C95C1268C908415CD1540133DBB2EFE7FFF743FD00242B78A34208D90A4B201C1B68195D0134FFF780FEE4B2F3E7FFF776FF38BDC04634
:4011C000ED80FF1FF280FF1FEE80FF1F0081FF1FFC80FF1F38130000002902D0B0FBF1F0704708B14FF0FF3000F008B80029F8D00246B0FBF1F000FB11217047704700BF90
:40120000014B1868704700BF8081FF1F0E4B70B51E460E4C0025E41AA410A54204D056F8253098470135F8E700F09AF8084B094C1E46E41AA4100025A54204D056F8253025
:4012400098470135F8E770BD6C1300006C1300006C1300007413000010B5431E0A44914204D011F8014B03F8014FF8E710BD03460244934202D003F8011BFAE770470000FD
:40128000000000003C5100403C5100403C5100403C5100403C510040FC510040CB5A00409B5A00400810204080100110005100401000405100403000C051004010000000EA
:4012C0000140001000140140000800400140000A004C01400002005001402000030303030300000008102040800000001B5000401C5000401D5000401E5000401F5000400D
:40130000065200400E520040165200401E520040265200402E520040365200407E52004000000000000000000800000000190000050000000000000001010101010102029D
:401340000202020303030303030404040404040505050505050606060202020202430000F8B500BFF8BC08BC9E4670474D000000D9030000F8B500BFF8BC08BC9E46704799
:401380002900000098130000C880FF1FC0000000B800000000000000000000001F000000C8C8C8C8C8000000030100006400000001000000140000000100000001050500EB
:4013C000F2290500E081FF1FB481FF1FC081FF1FD080FF1FDC80FF1F341300003013000020130000D880FF1FA881FF1FE480FF1F00000000000000000000000000000000B8
:40140000000000000000000000000000000000005D13000000000000000000000000000000000000000000000000000000000000000000000000000000000000000000003C
:40144000000000000000000000000000000000002081FF1F0000000000000000000000000000000000000000000000000000000000000000000000000000000000000000AD
:40148000000000000000000000000000000000000000000000000000000000000000000000000000000000000000000000000000000000000000000000000000000000002C
:4014C00000000000000000000000000000000000000000000000000000000000000000000000000000000000000000000000000000000000000000000000000000000000EC
:4015000000000000000000000000000000000000000000000000000000000000000000000000000000000000000000000000000000000000000000000000000000000000AB
:40154000000000000000000000000000000000000000000000000000000000000000000000000000000000000000000000000000000000000000000000000000000000006B
:020000040003F7
:0200000480007A
:4000000001520040096400400103014001090140590A0140440B0140550C01403C0D0140500E0140320F0140011701400119014002400140024101400144014005450140A3
:400040000546014003470140034801400349014003500140015101401EF80AFF0EFF0FFF1EFF1FFF2EFF2FFF8C0D8D1FEA029920010203010501060107020B020C04120221
:400080001C041F01200122022D0331033204340338083E10402145404625480E49FF4AFF4BFF4C024D204F0551105217580459045A045B045F01604061406280648066803E
:4000C000820186018801890F8A028C038D019102940395079708990F9A029C029D0E9E019F01A109A202A306A403A904B203B70FC030C102C5D1C702C813C9FFCAFFCBFFED
:40010000CDA0CF04D018D804D904DA04DD01DF01E040E2C0E440E540E6C0E8C0EAC0ECC0EEC000800108041A070109800B800C600E201080150A192C1C301D0821012201DE
:400140002680270129802C082F803240369A39123B083C203F40411042014504460448404D014F04519056045704682069106A807080900A9108920193C89513968297043D
:40018000984099809D0C9F01A008A104A21AA380A420A508A680A704B140B640C0F5C2E9C438CAA8CCF8CE37D06C060407011003140116021A041C021E01270128022F02AD
:4001C00032033302340437013E104006410549FF4AFF4BFF4C024D0C4EF852805405580459045A045B045C105D105F01624863A168F06AF06CF06EF081048601870489026D
:400200008B088C0292029302950298029B029C029D02A102A304A401A701A902B302B401B501B602B70CBF40C002C105C60AC9FFCAFFCBFFCC03CD0CCEF4D602D804D904DF
:40024000DA04DB04DE08DF01E248E3A1E8F0EAF0ECF0EEF0018807100A820B080D010E210F081220151019801A0D1B401E281F0C20112104222825442710284029042B88E3
:400280002E88302031083281381A3D08420449804E044F8053405C405D015E08734076807B40904A94119640974C9A089F01A008A202A380A508AD08C025C2FBC444CA5718
:4002C000CC0FCE47D004D238D6D0DE010001020E080F0E011201140118011C021E08280C3006340836013E11402141044726483058045A045F01610C62F0630C650C670C0C
:400300006840694C6A406B4C6C906D586F0C80018720880389038B108E038F0C910599209A03A003A30FA402A90AAA04AD0FB120B204B403B51CB703BE10BF50C023C1046B
:40034000C502C606C805D608D804D904DA04DB0FDC11DF01E10CE2F0E30CE50CE70CE840E94CEA40EB4CEC90ED58EF0C001003810412058009080BCA0F08100815081688E6
:4003800019801A041B821D201E202440270A2C082E802F8036123C103E083F844001420443024520470A4F08500D51045202530157405E4066807F408280C0DBC24FC472BA
:4003C000CAB0CCA0CE70D0EDD610D810DE80E001EE01A9203020CC10AC20EA408140110850089180C408D4049180B008B504EC04EE0239809180CE08A310AB10EE807B10E5
:40040000A310DE4000030C030E0300030000000000001000000B0B000000000000020200020000000000F800000000000000000000000000000000000000000000000000A1
:40044000000000000000000000000000000000000000000000000000000000000000000000000000000000000000000000000000000000000000000000000000000000007C
:40048000000000000000000000000000000000000000000000000000000000000000000000000000000000000000000000000000000000000000000000000000000000003C
:4004C00000000000000000000000000000000000000000000000000000000000000000000000000000000000000000000000000000000000000000000000000000000000FC
:4005000000000000000000000000000000000000000000000000000000000000000000000000000000000000000000000000000000000000000000000000000000000000BB
:0200000490006A
:0400000000004005B7
:0200000490105A
:04000000BC90ACAF55
:0200000490303A
:0200000073C9C2
:0200000490402A
:4000000000000000000000000000000000000000000000000000000000000000000000000000000000000000000000000000000000000000000000000000000000000000C0
:400040000000000000000000000000000000000000000000000000000000000000000000000000000000000000000000000000000000000000000000000000000000000080
:400080000000000000000000000000000000000000000000000000000000000000000000000000000000000000000000000000000000000000000000000000000000000040
:4000C0000000000000000000000000000000000000000000000000000000000000000000000000000000000000000000000000000000000000000000000000000000000000
:0200000490501A
:0C00000000012E16106900012E1E843233
:00000001FF