:400000000080002011000000551200005512000008B5044B1A6803F53F5302331A6001F039F900BFFA46004010B5054C237833B9044B13B10448AFF300800123237010BD76
:400040004881FF1F0000000050190000084B10B51BB108490848AFF300800848036803B910BD074B002BFBD0BDE81040184700BF000000004C81FF1F50190000C880FF1F30
:400080000000000038B519E001F036FA144C2368E2181071013323600A2001F057F90123A3612368042B09D1234400251D712B460422A118E06900F0EDFA256001F026FAD5
:4000C0000028E1D101F010FA054B9B69012B05D1034C201D01F0A0FA0023A36138BD00BF6481FF1F30B587B01A4BD86900F060FB0028F9D1642304220DEB02011548C069B3
:4001000000F004FB0546144C214601A801F04AFB01F082FA642001F019F9214601A801F041FB044601F078FA7DB10C49204601F02EFB18B9012001F04BF906E0084920463A
:4001400001F025FB08B901F043F9322000F0E2FDCAE700BF6481FF1F54190000581900005C19000038B501F0DDF901F067FA194801F054F901F0A4F94FF4FA6001F0E6F8FA
:40018000154801F049FA4FF4FA6001F0DFF8134801F042FA4FF4FA6001F0D8F8104D284601F03AFA4FF4FA6001F0D0F80D4C204601F032FA4FF4FA6001F0C8F8284601F094
:4001C0002BFA4FF4FA6001F0C1F8204601F024FA38BD00BF850000006019000068190000701900007819000000B583B062B600F025F9FFF7B7FF612001F0A6F901220021C2
:40020000642000F027FA0C4BD86100B9FEE70023019304220092C8220849094800F022FC012803D0632001F08FF9FBE7622001F08BF900F049FCFEE76481FF1F801900006B
:40024000E500000038B5044610F0070F02D020F00704083400F064FC104B1B682BB90F4A02F10C0323F0070313600D4BD3F83C391C4447F6F772944208D8A34208D2074AC2
:4002800015681D44064BC3F83C4902E0002500E0002500F0D3FC284638BD00BF8481FF1F4CF8FF1F704700BF82B0002301934FF0A00383F31188BFF36F8FBFF34F8F019B31
:4002C000002BFCD002B0704706480068006880F3088862B661B6BFF34F8FBFF36F8F00DF00BF000008ED00E04FF0807340F8043C21F0010140F8081C034B40F80C3C40F87C
:40030000202C4038704700BFA902000000000000074B19680868B0E8F00F80F30988BFF36F8F4FF0000080F311884EF00D0E7047640200204FF0A00383F31188BFF36F8FC8
:40034000BFF34F8F024A136801331360704700BFCC80FF1F034A1368013B13600BB983F311887047CC80FF1F0000000000000000EFF30980BFF36F8F0D4B1A6820E9F00F37
:4003800010602DE908404FF0A00080F3118800F0DBFC4FF0000080F31188BDE8084019680868B0E8F00F80F30988BFF36F8F70476402002008B54FF0A00383F31188BFF3AC
:4003C0006F8FBFF34F8F00F0B5FB18B14FF08052024B1A60002383F3118808BD04ED00E0054B00221A6005490A6045F6BF51044A116007221A60704710E000E018E000E0B6
:4004000014E000E010B50B4B1A6842F460021A601A6842F060421A60FFF7E2FF0024064B1C60FFF751FF00F08FFCFFF73DFF204610BD00BF20ED00E0CC80FF1F034B044AC9
:40044000DA62044A9A63044ADA6370470080FF1F1103000071030000B503000000F1080343604FF0FF328260C360036100230360704700BF00230361704700BF43684B600E
:400480009A688A609A68516099600861036801330360704730B40D68B5F1FF3F01D1026907E000F1080200E01A4653681C68A542FAD253684B6099608A6051600861036826
:4004C0000133036030BC704703694268816891608268416851605A68904201D182685A60002202611A68013A1A601868704700BF8268436813440068181A824200D8801A16
:40050000704700BFF8B504460D4617461E462022002101F034F9A561A760E660069B1BB1237F43F001032377F8BD00BF2DE9F041064688461746446885682D1B954228BFB5
:40054000154680692A46204401F00EF9AF4205D97A1B08EB0501B06901F006F9E319B268934200D39B1A73603846BDE8F08100BF30B583B004460D460192ABB11A46037FE6
:4005800013F0010F06D1019B9A4228BF1A46019201230CE0069B9A4208D304220DEB0201FFF7C4FF012302E0002300E000232BB1019A29462046FFF7B9FF00E0002003B0E4
:4005C00030BD00BF2DE9F0419A4228BF1A461446DAB18846054606688768BF1B974228BF174681693A463144404601F0BDF8BC4205D9E21BA96908EB070001F0B5F826449B
:40060000AB689E4200D3F61A2E602046BDE8F0812DE9F04383B005460F4690461C460A9E76B1D0F80090324601A9FFF7CBFFA41B019B434505D9C5F800900023019300E0D8
:4006400001922346019A39462846FFF7BBFF03B0BDE8F083F0B583B017460D4601B90125461C2130FFF7EEFD044630B100972B46324600F12001FFF745FF204603B0F0BDC2
:400680008268036813444068181A0138824200D8801A70472DE9F04182B004460E4615469846037F13F0010F01D0171D00E017462046FFF7E5FF009703462A4631462046FA
:4006C000FFF756FF0546E8B12046FFF711FFE368984217D3EFF311864FF0A00383F31188BFF36F8FBFF34F8F23694BB12069CDF8008000231A46194600F012FC00232361C9
:4007000086F31188284602B0BDE8F0812DE9F04383B00446884691461F46037F13F0010F01D0042600E00026FFB1FFF703FE2046FFF7DEFE0546864205D3002000F05CFCD9
:4007400000F03AFB2061FFF705FEAE4211D33B4600224FF0FF31104600F034FB002323612046FFF7C5FE054603E02046FFF7C0FE0546B54217D900962B464A4641462046BB
:40078000FFF746FF054678B100F0CAF963693BB1606900231A46194600F066FB0023636100F04CFA00E00025284603B0BDE8F083026843689A4201D1012070470020704756
:4007C000094B9B6A1B680BB9012300E0002323B14FF0FF32044BDA627047034B9A6AD268D2685268DA6270478C01002010B50446006BFFF757FD2046FFF754FD10BD00BF8F
:400800002DE9F04781460D4617469A46089EDDF824800A9C9200A521206B00F0B0FF236B07F18042013A03EB820727F00707002306E0E95CE21882F83410EA5C12B101336B
:400840000B2BF6D9002384F83F30042E00D90426E662266400256564201DFFF70BFE04F11800FFF707FE2461C6F10506A6616462A56484F84C50524649463846FFF734FD2B
:400880002060B8F1000F01D0C8F80040BDE8F08770B5002407E004EB8402930010481844FFF7DCFD0134042CF5D90E4C04F194063046FFF7D3FD04F1A8052846FFF7CEFD2F
:4008C00004F11400FFF7CAFD04F1BC00FFF7C6FD2046FFF7C3FDA662C4F8D05070BD00BFBC0100208C01002038B50546FFF722FD264BD3F8D4200132C3F8D420D3F8D83020
:400900004BB9224BC3F8D850D3F8D430012B10D1FFF7BEFF0DE01D4BD3F8DC304BB91B4BD3F8D830DA6AEB6A9A4202D8174BC3F8D850164CD4F8E0300133C4F8E030EB6A44
:40094000012202FA03F1D4F8E4200A43C4F8E42004F1300003EB83039A00291D1044FFF78DFDFFF7F7FCD4F8DC306BB1D4F8D830DA6AEB6A9A4207D24FF08052044B1A6061
:40098000BFF34F8FBFF36F8F38BD00BF8C01002004ED00E038B517E0FFF7CCFC0D4CD4F8C830DD68281DFFF78FFDD4F8D430013BC4F8D430D4F8E830013BC4F8E830FFF744
:4009C000C9FC2846FFF712FF024BD3F8E830002BE2D138BD8C01002008B5FFF7DBFFFCE770B504460E461E4BD3F8EC50D3F8D8000430FFF769FD60B9194BD3F8D820D16ABC
:400A0000012202FA01F1D3F8E42022EA0102C3F8E420B4F1FF3F07D136B11148D0F8D8100431FFF72BFD70BD2C440D4BD3F8D8305C60A54208D90A4BD3F8D000D3F8D8101B
:400A40000431FFF727FD70BD054DA86AD5F8D8100431FFF71FFDEB6A9C4200D2EC6270BD8C0100202DE9F04385B006460F46154698469000FFF7E6FB60B181465020FFF770
:400A8000E1FB044610B1C0F8309004E04846FFF709FC00E000248CB10023039302940D9B01930C9B009343462A4639463046FFF7A7FE2046FFF718FF012001E04FF0FF30F8
:400AC00005B0BDE8F08300BF00B583B0104B019300230093C8220F490F48FFF7C3FF012813D14FF0A00383F31188BFF36F8FBFF34F8F0A4B4FF0FF32DA620122C3F8DC2073
:400B00000022C3F8EC20FFF77DFC03B05DF804FB8002002090190000D90900008C010020034AD2F8F0300133C2F8F030704700BF8C0100202DE9F0413F4BD3F8F030002B2D
:400B400066D13D4BD3F8EC700137C3F8EC7067B99A6AD3F8D0109962C3F8D020D3F8F8200132C3F8F820FFF72BFE334BDB6A9F4205D24FF000083FE04FF0010801E04FF07A
:400B800000082D4B9B6A1B680BB9012300E0002323B14FF0FF32284BDA622DE0264B9B6ADB68DC6863689F4202D2234AD36223E0261D3046FFF788FCA36A1BB104F1180007
:400BC000FFF782FCE36A012202FA03F11A4DD5F8E4200A43C5F8E42005F1300003EB83039A0031461044FFF749FCE26AD5F8D830DB6A9A42C0D2C4E70F49D1F8D830DB6AB4
:400C000003EB83039A000A44136B012B09D80AE0094AD2F8FC300133C2F8FC304FF0000801E04FF00108044BD3F800310BB14FF001084046BDE8F0818C01002070B5FFF75D
:400C400079FB324BD3F8F020013AC3F8F020D3F8F030002B53D12D4BD3F8D43043BB002450E02A4C236ADD6805F11800FFF72CFC2E1D3046FFF728FCEB6A012202FA03F118
:400C8000D4F8E4200A43C4F8E42004F1300003EB83039A0031461044FFF7F0FBEA6AD4F8D830DB6A9A4204D30122C4F8002100E00025164B5B69002BD3D10DB1FFF780FD2E
:400CC000124BD3F8FC4064B1FFF734FF18B101220E4BC3F80021013CF6D100220B4BC3F8FC200A4BD3F800315BB14FF08052084B1A60BFF34F8FBFF36F8F012402E0002438
:400D000000E00024FFF726FB204670BD8C01002004ED00E010B548B10446FFF701FF00212046FFF75DFEFFF789FF00E0002038B94FF08052034B1A60BFF34F8FBFF36F8F29
:400D400010BD00BF04ED00E01A4BD3F8F03023B10122184BC3F80021704710B4154A0023C2F80031D2F8E430B3FA83F3DBB2C3F11F039800C418A10011444C6B64684C63A8
:400D800002F130011844820008320A44944206D1606803EB83018A0006490A445063054903EB83039A000A44536BDB68C1F8D83010BC70478C010020014BD3F8D8007047A6
:400DC0008C010020F8B507460D4614461E46FFF7B1FA234BD3F8D83093F84C30DBB2022B18D01F4BD3F8D820906C20EA07009064D3F8D830012283F84C205EB111463046C9
:400E0000FFF7EEFD4FF08052164B1A60BFF34F8FBFF36F8FFFF79EFAFFF78CFA24B1104BD3F8D8309B6C23600D4BD3F8D83093F84C30DBB2022B08D1094BD3F8D820936C33
:400E400023EA05059564012400E00024044BD3F8D830002283F84C20FFF77CFA2046F8BD8C01002004ED00E0F8B504460F4615461E46FFF75FFA0EB1A36C336094F84C3046
:400E8000DBB2022284F84C206A1E032A15D8DFE802F002070C0FA26C1743A76401250FE0A26C0132A26401250AE0A764012507E0022B04D0A764012502E0012500E00025E4
:400EC000012B24D1271D3846FFF7FEFAE36A012202FA03F1104ED6F8E4200A43C6F8E42006F1300003EB83039A0039461044FFF7C5FAE26AD6F8D830DB6A9A4207D94FF063
:400F00008052064B1A60BFF34F8FBFF36F8FFFF721FA2846F8BD00BF8C01002004ED00E0F8B5EFF311844FF0A00585F31188BFF36F8FBFF34F8F0BB1856C1D6090F84C30DC
:400F4000DBB2022580F84C50013A032A15D8DFE802F002070C0F826C1143816401250FE0826C0132826401250AE08164012507E0022B04D08164012502E0012500E0002519
:400F8000012B31D106461A4BD3F8F030B3B9071D3846FFF799FAF36A012202FA03F11448D0F8E4200A43C0F8E420303003EB83039A0039461044FFF761FA04E000F11801AF
:400FC0000C48FFF75BFAF26A094BD3F8D830DB6A9A4209D9069B1BB10123069A136003E00122034BC3F8002184F311882846F8BD8C010020A001002010B5044610B90A4B2A
:40100000D3F8D840FFF796F994F84C30DBB2022B04D1002384F84C30012400E00024FFF799F9204610BD00BF8C010020FEE700BFF0B40022174611E050F82760F3B226F004
:40104000FF0608E001EB420511F812406D78A5550132013BDBB2002BF4D10137142FEBD9F0BC7047064B1B78DBB203F00701054A11701B09013213704422034B1A7070477D
:40108000CF0100496E5800407658004008B50A46002100F074FB08BD38B54FF49C72244B1A80182202331A70022203F27E231A7008224FF040231A70032103F500731970BF
:4010C0001C4B1B78DBB21C490B701C4B1A8041F25122023B1A80002419250CE0184B1B7803F0010343EA440404F003044FF4F07000F0FEFA013D0DB1032CEFD115B90320F9
:40110000FFF794FF0F4B4FF480721A8007221A7000220D490A704820023108701A700222033B1A70094A137843F00103137038BD8040004008010049A14600402242004025
:40114000254200400440004006400040A243004008B500F009FB08BD38B572B6304A137843F00403137000240CE02E4D630019194A0011462A44084691882858FFF786FFBB
:401180000134E4B2092CF0D900240BE02549A3001819420088188022016CC06BFFF7D8FF0134E4B2002CF1D01F494FF09040FFF73FFF1E4A137843F002031370103213784E
:4011C00043F0020313701A4C237843F040032370A2F58632513A137843F0100313700A2214491548FFF7B4FF082214491448FFF7AFFF144A137843F008031370124D612359
:401200002B70FFF749FF81232B7001220F4B1A70FFF728FF0E2221460D48FFF799FF38BDE8460040981900005400004803500140A043004000040048105100400C0400484C
:4012400022510040224300400048004004000840B043004008B500F05BFA03680C2B00D1FEE7FEE708B5094B1A681044084BC31A802B02DC054B186005E000F049FA0C2321
:4012800003604FF0FF32104608BD00BFD080FF1FB002002008B5104E104D16E029686B68AC68002204E051F8040B43F8040B0432A242F8D1E868002203E0002143F8041B00
:4012C00004328242F9D11035013E002EE6D100F025FAFEF789FFFEE701000000041A000008B5104A104B1A60104A136843F40073136000230AE0032B03D80D4A52F8231069
:4013000000E00C490C4A42F8231001332F2BF2D90A4B1A780A4B1A70074A0A4B1A60FFF71BFF08BD0004FA050CED00E014ED00E000000000551200000080FF1FBC7600406D
:40134000C080FF1F08ED00E001BE704710B5044605E0084B186800F0CBF9A4F50044B4F5004FF6D8034B586800FB04F000F0C0F910BD00BFD480FF1F70B504460E46074BED
:401380001D681F2802D90020FFF7DEFF04F01F04103455F8240045F8246070BD08ED00E038B504460D46072902D90020FFF7CCFF1F2C02D90020FFF7C7FF04F01F0000F188
:4013C000604000F564406D01EDB2057038BD00BF044A137803F0FD03400000F0020018431070704720510040014B1B681864704708ED00E04001C0B2014B1870704700BF69
:4014000000E400E00122014B1A60704700E100E00122014B1A60704780E100E010B50446FFF7F6FF2046FFF7DFFF0720FFF7E2FFFFF7E8FF10BD00BF08B572220B4B1A70DA
:40144000202203F201131A7009490120FFF794FF07210120FFF7A4FF0622064B1A70472210331A7002224D331A7008BD896400407D1600002B65004010B500F041F90446C4
:401480000D4A137843F02003137002F20112137843F010031370023A137843F0100313700223064A1360A2F5C072136000F012F9204600F029F910BD9964004080E200E0A3
:4014C00008B5054B1B7823B9FFF7B6FF0122024B1A70FFF7D1FF08BD90020020014B1878704700BF49650040024B187800F07F00704700BF6A65004010B5FFF7F5FF0402C8
:40150000FFF7ECFF204380B210BD00BF044B1B7813F0200F01D0012070470020704700BF6A65004008B500F0EBF8064B1A7842F001021A701A7802F0FE021A7000F0E4F83B
:4015400008BD00BF99650040114B1B78F3B10222104B1A600E4A5378DBB29278934207D10D4B1B7813F0040F02D10C4B18700AE00E2A02D90022064B9A70054A93780849DE
:40158000C854013393700222064B1A60704700BF9002002080E100E068650040486400409C02002000E100E0164B99785B78DBB2994205D25A1E914214BF0022012204E03D
:4015C000CA1A0E2A14BF00220122002AECD1994207D10D4B1B7813F0040F02D10B4B187070470E2900D90021094B58540131054B9970054B1B7813F0020F02D00222054BBB
:401600001A6070479002002068650040486400409C02002000E200E038B5074B1B782BB938BDFFF7C1FF0134A4B201E005460024285D0028F5D138BD9002002008B500F04B
:401640005FF80A4B1A7842F001021A701A7802F0FE021A7000F058F80223054A1360054A002151709170044A136008BD9864004080E100E09002002000E100E013E0104B42
:401680001B78DBB20E2B02D900220D4B1A700C4A1378DBB20B49CB5CDBB20B490B7013780133DBB21370064B1B78DBB2074A1278934204D0064B1B7813F0040FDFD0704789
:4016C000910200209C020020486400409202002068650040054A137843F0010313701032137843F001031370704700BFA24300400230800803D000BF01380046FCD17047C7
:40170000EFF3108072B6704780F31088704700BF014B1868704700BF4481FF1F0E4B70B51E460E4C0025E41AA410A54204D056F8253098470135F8E700F052F9084B094C6A
:401740001E46E41AA4100025A54204D056F8253098470135F8E770BDEC190000EC190000EC190000F419000010B5431E0A44914204D011F8014B03F8014FF8E710BD0346E3
:401780000244934202D003F8011BFAE7704710F8012B11F8013B012A28BF9A42F7D0D01A70470000174B2DE9F0411D680646AC6D0F46FCB9502000F053F8A8658460AB6D6D
:4017C000046044601C61DC60AB6D9C615C61AB6DDC629C62AB6D5C631C63AB6DDC639C63AB6D5C641C64AB6DDC649C64AB6D1C77AB6D5C62AA6D39463046BDE8F04101231F
:4018000000F002B84481FF1FF0B548B9106838B9F0BD17F8016B5EB1B542FAD12BB1204604460F4614F8015BF3E714600370F0BD4DB915602846F0BD17F8016BB54207D07D
:40184000002EF9D11C4623460F4613F8015BF3E715B10021217000E02B461360F0BD0000024B0146186800F003B800BF4481FF1F70B5CD1C25F0030508350C2D38BF0C25FC
:40188000002D064601DBA94202D90C23336046E000F05CF8234B1C681A462146A1B10B685B1B0ED40B2B03D90B60CC18CD501EE08C420BBF63684B681360636018BF0C461A
:4018C00015E00C464968E9E7174C23681BB9304600F02CF820602946304600F027F8431C18D0C41C24F00304A0420DD12560304600F02DF804F10B00231D20F00700C31A1A
:401900000ED05A42E25070BD211A304600F00EF80130EBD10C233360304600F018F8002070BD00BF980200209402002038B5064C0023054608462360FFF794FC431C02D150
:40194000236803B12B6038BDAC02002070477047000000003A0000004C3100004C3200003B4C313A000000003B4C323A000000003B53313A000000003B53323A000000005F
:401980005265616420554152542044415441000049444C4500000000005100401000305100404000C05100401000F0510040100000000140001000140140800400190140DF
:4019C000000300400140000A004C01400002005001402000801801408003004880004300F8B500BFF8BC08BC9E4670474D000000E1120000F8B500BFF8BC08BC9E46704774
:401A000029000000181A0000C880FF1F80000000688100000000000000000000AAAAAAAAB00200200000E02EC05D00001800000000366E010000000000000000000000001A
:401A40000000000000000000000000000000000000000000DE190000000000000000000000000000000000000000000000000000000000000000000000000000000000006F
:401A80000000000000000000000000000000000000000000E480FF1F00000000000000000000000000000000000000000000000000000000000000000000000000000000A4
:401AC00000000000000000000000000000000000000000000000000000000000000000000000000000000000000000000000000000000000000000000000000000000000E6
:401B000000000000000000000000000000000000000000000000000000000000000000000000000000000000000000000000000000000000000000000000000000000000A5
:401B40000000000000000000000000000000000000000000000000000000000000000000000000000000000000000000000000000000000000000000000000000000000065
:401B80000000000000000000000000000000000000000000000000000000000000000000000000000000000000000000000000000000000000000000000000000000000025
:020000040003F7
:0200000480007A
:40000000025200400164004002650040470801403409014001150140011701400F18014045190140571A01404E1B0140034001400141014001420140014301400348014023
:4000400003490140044C0140054D0140045001400151014008400C808972880F8A3805010A050F0116021A031B011E061F012406250126012E01340737013A203F40406132
:40008000410346BC470E481C49FF4AFF4BFF4EF04F44500C580459045A045F0166C06A406B0284038501860C887089018D018E08901092609403960498209A909B029E055B
:4000C000A003A204A302A40AA604A870AC40AE10B070B280B302B40FB501BA20BB02BF04D602D712D804D904DB04DF0100240202052008600A400B200C100D080E02100169
:400100001110126013081748180419211A441B041F1020182340264029022C102F103320344036A0374039543E043F80441047404D20566857C05A0868106954718073341B
:400140008F21C047C2EFC4AFCA41CC34CE5ED050D220D602E604E20805011B011D02250128013103340139023E1054015604580459045B045F010008038509800A200B4474
:40018000100111141301160819041B221E08200122142603282129012A012B062F1031823218330136A0380239423B543E04400141014320480449024A084B4051045EA887
:4001C0005F02678087409114920493759608980299019A289C219D02A004A180A250A304A508A6A3A720AE10AF80B412C00FC20FC44FCA4FCC3FCE4FD00DD20CD6F0D88022
:4002000000110433060C0701090C0A330C330D0E10221104140C16331702190C1B021C081D08200F21022230230C24042701280C2C3F2D0C2F023030310E3501360F3A805C
:400240003B023F1054185604580459045B045F01831384148531870688108A0C8C208E03930C9410992C9B039C099E10A40CA531A611A70EA81CAA02AB08B330B420B50F4F
:40028000B61FB908BB20BE10BF04C002C704C9FFCA07CBFFCC40CD20CEF0CF05D008D804D904DA04DF01E040E1A8E240E32001080209038005400628080109800A200D08C9
:4002C0000E0211401240131414101710180219011C081D40200421022620272029042A422C102F183180321A3621371039483B103E0C3F014502464047204E804F01550894
:40030000570859095B04604680408602870488048C018D088E029148922493349402980399049A219F04A180A209A380A50AA6A0B208B302B420B780C0EFC2ADC46FCA6B80
:40034000CCAFCECED020D601D80D31103580CC309D909D909D9085809D90E21081109D10E6200E085C02C201D60188029C02B604E004EA0200010C0110011C01000F0000CE
:40038000102720180008020003180C000C3F03000F3C00010E000103043C0002081000000C000040300400803000000420001080300001200E1F00C0080000200000004409
:4003C0004605020001C0000E12FFFFFF62A0F0410C0000000000000004040400000000010000000000004002001030100010101200000000000000000000000000000000C2
:400400004000804B4B004000000000000002020000000000000000000000000000000000000000000000000000000000000000000000000000000000000000000000000022
:40044000000000000000000000000000000000000000000000000000000000000000000000000000000000000000000000000000000000000000000000000000000000007C
:40048000000000000000000000000000000000000000000000000000000000000000000000000000000000000000000000000000000000000000000000000000000000003C
:4004C00000000000000000000000000000000000000000000000000000000000000000000000000000000000000000000000000000000000000000000000000000000000FC
:4005000000000000000000000000000000000000000000000000000000000000000000000000000000000000000000000000000000000000000000000000000000000000BB
:0200000490006A
:0400000000004005B7
:0200000490105A
:04000000BC90ACAF55
:0200000490303A
:0200000064207A
:0200000490402A
:4000000000000000000000000000000000000000000000000000000000000000000000000000000000000000000000000000000000000000000000000000000000000000C0
:400040000000000000000000000000000000000000000000000000000000000000000000000000000000000000000000000000000000000000000000000000000000000080
:400080000000000000000000000000000000000000000000000000000000000000000000000000000000000000000000000000000000000000000000000000000000000040
:4000C0000000000000000000000000000000000000000000000000000000000000000000000000000000000000000000000000000000000000000000000000000000000000
:0200000490501A
:0C00000000012E16106900012E217489E9
:00000001FF