:400000000080002011000000CD110000CD11000008B5044B1A6803F53F5302331A6001F0F5F800BFFA46004010B5054C237833B9044B13B10448AFF300800123237010BDCD
:400040005081FF1F00000000A8210000084B10B51BB108490848AFF300800848036803B910BD074B002BFBD0BDE81040184700BF000000005481FF1FA8210000C880FF1F60
:400080000000000010B501F03DFBC4B2204601F0EBFB0023012221460248006800F09AFA10BD00BF6C81FF1F10B586B00F4B186800F01EFBB0B964230122002421460B4856
:4000C000006800F0C3FA2246094901A801F048FC2146012001F064FA01A801F0F9F9204601F07CFA642000F0B5FDDFE76C81FF1FAC21000008B501F00FFB01F01FFB0A484A
:4001000001F092FA01F0E2FA01F0A0FB01F0FAF901F038FA012001F0E9F9044801F0D8F9034801F0ADFB08BD85000000CC80FF1FB821000000B583B062B600F01FF9FFF771
:40014000D9FF01220021642000F024FA0A4B186018B90A4801F0BCF9FEE70023019304220092C8220649074800F01CFC012800D0FEE700F049FCFEE76C81FF1FC021000073
:40018000D8210000A900000038B5044610F0070F02D020F00704083400F062FC104B1B682BB90F4A02F10C0323F0070313600D4BD3F83C391C4447F6F772944208D8A342F3
:4001C00008D2074A15681D44064BC3F83C4902E0002500E0002500F0D1FC284638BD00BF7081FF1F38F8FF1F704700BF82B0002301934FF0A00383F31188BFF36F8FBFF36B
:400200004F8F019B002BFCD002B0704706480068006880F3088862B661B6BFF34F8FBFF36F8F00DF00BF000008ED00E04FF0807340F8043C21F0010140F8081C034B40F842
:400240000C3C40F8202C4038704700BFED010000074B19680868B0E8F00F80F30988BFF36F8F4FF0000080F311884EF00D0E7047500200204FF0A00383F31188BFF36F8FDA
:40028000BFF34F8F024A136801331360704700BFD480FF1F034A1368013B13600BB983F311887047D480FF1F0000000000000000EFF30980BFF36F8F0D4B1A6820E9F00FE8
:4002C00010602DE908404FF0A00080F3118800F0DBFC4FF0000080F31188BDE8084019680868B0E8F00F80F30988BFF36F8F70475002002008B54FF0A00383F31188BFF381
:400300006F8FBFF34F8F00F0B5FB18B14FF08052024B1A60002383F3118808BD04ED00E0054B00221A6005490A6045F6BF51044A116007221A60704710E000E018E000E076
:4003400014E000E010B50B4B1A6842F460021A601A6842F060421A60FFF7E2FF0024064B1C60FFF753FF00F08FFCFFF73FFF204610BD00BF20ED00E0D480FF1F034B044A7E
:40038000DA62044A9A63044ADA6370470080FF1F51020000B1020000F502000000F1080343604FF0FF328260C360036100230360704700BF00230361704700BF43684B6012
:4003C0009A688A609A68516099600861036801330360704730B40D68B5F1FF3F01D1026907E000F1080200E01A4653681C68A542FAD253684B6099608A60516008610368E7
:400400000133036030BC704703694268816891608268416851605A68904201D182685A60002202611A68013A1A601868704700BF8268436813440068181A824200D8801AD6
:40044000704700BFF8B504460D4617461E462022002101F07CFAA561A760E660069B1BB1237F43F001032377F8BD00BF2DE9F041064688461746446885682D1B954228BF2D
:40048000154680692A46204401F056FAAF4205D97A1B08EB0501B06901F04EFAE319B268934200D39B1A73603846BDE8F08100BF30B583B004460D460192ABB11A46037F15
:4004C00013F0010F06D1019B9A4228BF1A46019201230CE0069B9A4208D304220DEB0201FFF7C4FF012302E0002300E000232BB1019A29462046FFF7B9FF00E0002003B0A5
:4005000030BD00BF2DE9F0419A4228BF1A461446DAB18846054606688768BF1B974228BF174681693A463144404601F005FABC4205D9E21BA96908EB070001F0FDF92644C8
:40054000AB689E4200D3F61A2E602046BDE8F0812DE9F04383B005460F4690461C460A9E76B1D0F80090324601A9FFF7CBFFA41B019B434505D9C5F800900023019300E099
:4005800001922346019A39462846FFF7BBFF03B0BDE8F083F0B583B017460D4601B90125461C2130FFF7F0FD044630B100972B46324600F12001FFF745FF204603B0F0BD81
:4005C0008268036813444068181A0138824200D8801A70472DE9F04182B004460E4615469846037F13F0010F01D0171D00E017462046FFF7E5FF009703462A4631462046BB
:40060000FFF756FF0546E8B12046FFF711FFE368984217D3EFF311864FF0A00383F31188BFF36F8FBFF34F8F23694BB12069CDF8008000231A46194600F012FC0023236189
:4006400086F31188284602B0BDE8F0812DE9F04383B00446884691461F46037F13F0010F01D0042600E00026FFB1FFF703FE2046FFF7DEFE0546864205D3002000F05CFC9A
:4006800000F03AFB2061FFF705FEAE4211D33B4600224FF0FF31104600F034FB002323612046FFF7C5FE054603E02046FFF7C0FE0546B54217D900962B464A46414620467C
:4006C000FFF746FF054678B100F0CAF963693BB1606900231A46194600F066FB0023636100F04CFA00E00025284603B0BDE8F083026843689A4201D1012070470020704717
:40070000094B9B6A1B680BB9012300E0002323B14FF0FF32044BDA627047034B9A6AD268D2685268DA6270477801002010B50446006BFFF759FD2046FFF756FD10BD00BF5F
:400740002DE9F04781460D4617469A46089EDDF824800A9C9200A521206B01F0F8F8236B07F18042013A03EB820727F00707002306E0E95CE21882F83410EA5C12B10133EA
:400780000B2BF6D9002384F83F30042E00D90426E662266400256564201DFFF70BFE04F11800FFF707FE2461C6F10506A6616462A56484F84C50524649463846FFF736FDEA
:4007C0002060B8F1000F01D0C8F80040BDE8F08770B5002407E004EB8402930010481844FFF7DCFD0134042CF5D90E4C04F194063046FFF7D3FD04F1A8052846FFF7CEFDF0
:4008000004F11400FFF7CAFD04F1BC00FFF7C6FD2046FFF7C3FDA662C4F8D05070BD00BFA80100207801002038B50546FFF722FD264BD3F8D4200132C3F8D420D3F8D83008
:400840004BB9224BC3F8D850D3F8D430012B10D1FFF7BEFF0DE01D4BD3F8DC304BB91B4BD3F8D830DA6AEB6A9A4202D8174BC3F8D850164CD4F8E0300133C4F8E030EB6A05
:40088000012202FA03F1D4F8E4200A43C4F8E42004F1300003EB83039A00291D1044FFF78DFDFFF7F7FCD4F8DC306BB1D4F8D830DA6AEB6A9A4207D24FF08052044B1A6022
:4008C000BFF34F8FBFF36F8F38BD00BF7801002004ED00E038B517E0FFF7CCFC0D4CD4F8C830DD68281DFFF78FFDD4F8D430013BC4F8D430D4F8E830013BC4F8E830FFF719
:40090000C9FC2846FFF712FF024BD3F8E830002BE2D138BD7801002008B5FFF7DBFFFCE770B504460E461E4BD3F8EC50D3F8D8000430FFF769FD60B9194BD3F8D820D16A90
:40094000012202FA01F1D3F8E42022EA0102C3F8E420B4F1FF3F07D136B11148D0F8D8100431FFF72BFD70BD2C440D4BD3F8D8305C60A54208D90A4BD3F8D000D3F8D810DC
:400980000431FFF727FD70BD054DA86AD5F8D8100431FFF71FFDEB6A9C4200D2EC6270BD780100202DE9F04385B006460F46154698469000FFF7E8FB60B181465020FFF743
:4009C000E3FB044610B1C0F8309004E04846FFF70BFC00E000248CB10023039302940D9B01930C9B009343462A4639463046FFF7A7FE2046FFF718FF012001E04FF0FF30B5
:400A000005B0BDE8F08300BF00B583B0104B019300230093C8220F490F48FFF7C3FF012813D14FF0A00383F31188BFF36F8FBFF34F8F0A4B4FF0FF32DA620122C3F8DC2033
:400A40000022C3F8EC20FFF77DFC03B05DF804FB6C020020E82100001909000078010020034AD2F8F0300133C2F8F030704700BF780100202DE9F0413F4BD3F8F030002B8A
:400A800066D13D4BD3F8EC700137C3F8EC7067B99A6AD3F8D0109962C3F8D020D3F8F8200132C3F8F820FFF72BFE334BDB6A9F4205D24FF000083FE04FF0010801E04FF03B
:400AC00000082D4B9B6A1B680BB9012300E0002323B14FF0FF32284BDA622DE0264B9B6ADB68DC6863689F4202D2234AD36223E0261D3046FFF788FCA36A1BB104F11800C8
:400B0000FFF782FCE36A012202FA03F11A4DD5F8E4200A43C5F8E42005F1300003EB83039A0031461044FFF749FCE26AD5F8D830DB6A9A42C0D2C4E70F49D1F8D830DB6A74
:400B400003EB83039A000A44136B012B09D80AE0094AD2F8FC300133C2F8FC304FF0000801E04FF00108044BD3F800310BB14FF001084046BDE8F0817801002070B5FFF732
:400B800079FB324BD3F8F020013AC3F8F020D3F8F030002B53D12D4BD3F8D43043BB002450E02A4C236ADD6805F11800FFF72CFC2E1D3046FFF728FCEB6A012202FA03F1D9
:400BC000D4F8E4200A43C4F8E42004F1300003EB83039A0031461044FFF7F0FBEA6AD4F8D830DB6A9A4204D30122C4F8002100E00025164B5B69002BD3D10DB1FFF780FDEF
:400C0000124BD3F8FC4064B1FFF734FF18B101220E4BC3F80021013CF6D100220B4BC3F8FC200A4BD3F800315BB14FF08052084B1A60BFF34F8FBFF36F8F012402E00024F8
:400C400000E00024FFF726FB204670BD7801002004ED00E010B548B10446FFF701FF00212046FFF75DFEFFF789FF00E0002038B94FF08052034B1A60BFF34F8FBFF36F8FFE
:400C800010BD00BF04ED00E01A4BD3F8F03023B10122184BC3F80021704710B4154A0023C2F80031D2F8E430B3FA83F3DBB2C3F11F039800C418A10011444C6B64684C6369
:400CC00002F130011844820008320A44944206D1606803EB83018A0006490A445063054903EB83039A000A44536BDB68C1F8D83010BC704778010020014BD3F8D80070477B
:400D000078010020F8B507460D4614461E46FFF7B1FA234BD3F8D83093F84C30DBB2022B18D01F4BD3F8D820906C20EA07009064D3F8D830012283F84C205EB1114630469D
:400D4000FFF7EEFD4FF08052164B1A60BFF34F8FBFF36F8FFFF79EFAFFF78CFA24B1104BD3F8D8309B6C23600D4BD3F8D83093F84C30DBB2022B08D1094BD3F8D820936CF4
:400D800023EA05059564012400E00024044BD3F8D830002283F84C20FFF77CFA2046F8BD7801002004ED00E0F8B504460F4615461E46FFF75FFA0EB1A36C336094F84C301B
:400DC000DBB2022284F84C206A1E032A15D8DFE802F002070C0FA26C1743A76401250FE0A26C0132A26401250AE0A764012507E0022B04D0A764012502E0012500E00025A5
:400E0000012B24D1271D3846FFF7FEFAE36A012202FA03F1104ED6F8E4200A43C6F8E42006F1300003EB83039A0039461044FFF7C5FAE26AD6F8D830DB6A9A4207D94FF023
:400E40008052064B1A60BFF34F8FBFF36F8FFFF721FA2846F8BD00BF7801002004ED00E0F8B5EFF311844FF0A00585F31188BFF36F8FBFF34F8F0BB1856C1D6090F84C30B1
:400E8000DBB2022580F84C50013A032A15D8DFE802F002070C0F826C1143816401250FE0826C0132826401250AE08164012507E0022B04D08164012502E0012500E00025DA
:400EC000012B31D106461A4BD3F8F030B3B9071D3846FFF799FAF36A012202FA03F11448D0F8E4200A43C0F8E420303003EB83039A0039461044FFF761FA04E000F1180170
:400F00000C48FFF75BFAF26A094BD3F8D830DB6A9A4209D9069B1BB10123069A136003E00122034BC3F8002184F311882846F8BD780100208C01002010B5044610B90A4B12
:400F4000D3F8D840FFF796F994F84C30DBB2022B04D1002384F84C30012400E00024FFF799F9204610BD00BF78010020FEE700BFF0B40022174611E050F82760F3B226F0D9
:400F8000FF0608E001EB420511F812406D78A5550132013BDBB2002BF4D101371A2FEBD9F0BC7047064B1B78DBB203F00701054A11701B09013213704422034B1A70704738
:400FC000CF0100496E5800407658004008B50A46002100F0BCFC08BD38B54FF49C72264B1A80182325490B7002310A80244A13700222244B1A7008224FF040231A70032177
:4010000003F500731970204B1B78DBB21F490B701F4B1A8041F25122023B1A80002419250CE01C4B1B7803F0010343EA440404F003044FF4F07000F043FC013D0DB1032C21
:40104000EFD115B90320FFF791FF134B4FF480721A8007221A70002210490A704820023108701A700222033B1A700D4A137843F00303137038BD00BF804000408240004087
:40108000864000400043004008010049A146004022420040254200400440004006400040A243004008B500F047FC08BD38B572B6354A137843F00403137000240CE0334D93
:4010C000630019194A0011462A44084691882858FFF77CFF0134E4B2072CF0D900240BE02A49A3001819420088188022416B006BFFF7D8FF0134E4B2002CF1D024494FF00B
:401100009040FFF735FF234A137843F0020313701032137843F0020313701F4C237843F040032370A2F58632513A137843F0100313700A2219491A48FFF7B4FF0822194918
:401140001948FFF7AFFF0A2218491948FFF7AAFF082218491848FFF7A5FF184A137843F008031370164D61232B70FFF735FF81232B700122134B1A70FFF714FF0E22214614
:401180001148FFF78FFF38BDE8460040F02100006C00004803500140A043004028080048C051004034080048F25100403C0800481051004048080048225100402243004086
:4011C0000048004004000840B043004008B500F087FB03680C2B00D1FEE7FEE708B5094B1A681044084BC31A802B02DC054B186005E000F075FB0C2303604FF0FF32104677
:4012000008BD00BFD880FF1FA002002008B5104E104D16E029686B68AC68002204E051F8040B43F8040B0432A242F8D1E868002203E0002143F8041B04328242F9D11035A8
:40124000013E002EE6D100F051FBFEF773FFFEE7010000008422000008B5104A104B1A60104A136843F40073136000230AE0032B03D80D4A52F8231000E00C490C4A42F88E
:40128000231001332F2BF2D90A4B1A780A4B1A70074A0A4B1A60FFF709FF08BD0004FA050CED00E014ED00E000000000CD1100000080FF1FBC760040C080FF1F08ED00E01B
:4012C00001BE704710B5044605E0084B186800F0F7FAA4F50044B4F5004FF6D8034B586800FB04F000F0ECFA10BD00BFDC80FF1F08B5034B1B7A00FB03F000F0E1FA08BD36
:40130000DC80FF1F70B504460E46074B1D681F2802D90020FFF7D4FF04F01F04103455F8240045F8246070BD08ED00E038B504460D46072902D90020FFF7C2FF1F2C02D96D
:401340000020FFF7BDFF04F01F0000F1604000F564406D01EDB2057038BD00BF10B50B4C237803F09F032370237803F0F00323702378184340F0100020700120FFF7B8FFA1
:40138000237803F0EF03237010BD00BFC051004038B505460E4C237843F020032370237803F0BF0323700020FFF7A2FF237803F0F003237023781D4345F01005257001207E
:4013C000FFF796FF237803F0EF03237038BD00BFC051004070B5354B1A7802F08002D2B21A7033490A7802F0F00242F00F020A7001310A7802F0F0020A7001310A7802F03A
:40140000F0020A701A7802F0DF021A701A7842F040021A704FF4CA760020FFF769FF234D2B7843F010032B700120FFF761FF214B1C78E4B22B7803F0EF032B700020FFF786
:4014400057FF04F00804E4B22B7843F010032B700120FFF74DFF2B7803F0EF032B7014B90A20FFF745FF013E0CB1002ED4D10F4A137803F0BF031370137803F08003DBB2CC
:4014800013700232137803F0F00313700132137803F0F00343F00F0313700132137803F0F00343F00F03137070BD00BFC0510040C2510040C151004010B50446FFF78AFF39
:4014C0002009FFF765FF04F00F00FFF761FF10BD38B505460078012404E0FFF7EDFF285D0134E4B20028F8D138BD00BF10B50446FFF770FF2009FFF731FF04F00F00FFF7F7
:401500002DFF10BD08B52820FFF7DCFE0320FFF725FF0520FFF7D6FE0320FFF71FFF0F20FFF7D0FE0320FFF719FF0120FFF7CAFE0220FFF713FF0520FFF7C4FE0620FFF754
:40154000D5FF0E20FFF7D2FF2C20FFF7CFFF0820FFF7CCFF0120FFF7C9FF0C20FFF7C6FF0320FFF7C3FF0520FFF7ACFE08BD00BF08B50C20FFF7BAFF0122014B1A7008BD69
:401580007C02002008B5054B5B7823B9FFF7BAFF0122024B5A70FFF7EBFF08BD7C02002008B5032819D8DFE800F002070D1381F08000FFF79BFF08BDA1F14000C0B2FFF76C
:4015C00095FF08BDA1F16C00C0B2FFF78FFF08BDA1F12C00C0B2FFF789FF08BD044A137803F0FD03400000F0020018431070704720510040014B1B681864704708ED00E04E
:401600004001C0B2014B1870704700BF00E400E00122014B1A60704700E100E00122014B1A60704780E100E010B50446FFF7F6FF2046FFF7DFFF0720FFF7E2FFFFF7E8FF98
:4016400010BD00BF08B572220B4B1A70202202331A700A490120FFF755FE07210120FFF765FE0622064B1A70472210331A70022251331A7008BD00BF886500407D1700009D
:401680002464004010B500F023F904460D4A137843F0200313700232137843F010031370A2F20512137843F0100313700223064A1360A2F5C072136000F08CF8204600F017
:4016C0000BF910BD9865004080E200E008B5054B1B7823B9FFF7B6FF0122024B1A70FFF7D1FF08BD7E020020014B1878704700BF48650040024B187800F07F00704700BF4D
:401700006A65004010B5FFF7F5FF0402FFF7ECFF204380B210BD00BF08B500F0D9F8064B1A7842F001021A701A7802F0FE021A7000F0D2F808BD00BF9865004008B500F08D
:40174000C7F80A4B1A7842F001021A701A7802F0FE021A7000F0C0F80223054A1360054A002151709170044A136008BD9565004080E100E07E02002000E100E013E0104B85
:401780001B78DBB20E2B02D900220D4B1A700C4A1378DBB20B49CB5CDBB20B490B7013780133DBB21370064B1B78DBB2074A1278934204D0064B1B7813F0040FDFD0704788
:4017C0007F0200208C020020456500408002002065640040054A137843F0020313701032137843F002031370704700BFA24300407222074B1A702022FF331A7006225C3B20
:401800001A70472210331A70002251331A7070478764004010B500F05BF804460A4A137843F020031370FF32137843F0100313700532137843F01003137000F033F820463B
:4018400000F04AF810BD00BF9764004008B5054B1B7823B9FFF7CCFF0122024B1A70FFF7D9FF08BD82020020034B1B7813F0040FFAD1024B187070476B6500404B650040B3
:4018800038B5074B1B782BB938BDFFF7EDFF0134A4B201E005460024285D0028F5D138BD82020020054A137843F0010313701032137843F001031370704700BFA2430040FE
:4018C0000230800803D000BF01380046FCD17047EFF3108072B6704780F31088704700BF014B1868704700BF4C81FF1F0E4B70B51E460E4C0025E41AA410A54204D056F87E
:40190000253098470135F8E700F0AAFC084B094C1E46E41AA4100025A54204D056F8253098470135F8E770BD6C2200006C2200006C2200007422000010B5431E0A449142DF
:4019400004D011F8014B03F8014FF8E710BD03460244934202D003F8011BFAE7704700000EB400B54FF402719CB0ADF814106FF00041049107914FF6FF711DAB02900690AE
:40198000084853F8042BADF81610006802A9019300F064F8029B00221A701CB05DF804EB03B070474C81FF1F2DE9F0478E6882469E420C46914698463ED88A8912F4906FD1
:4019C0003AD02568096902236F1A656905EB450595FBF3F57B1C43449D4238BF1D4653050FD5294600F040FB064698B13A462169FFF7A2FFA38923F4906343F08003A3813D
:401A000013E02A4600F08EFB064670B92169504600F0DEFA0C23CAF80030A3894FF0FF3043F04003A381BDE8F08726613E44266046466561ED1BA560464528BF4646494681
:401A40003246206800F0A8FAA36800209B1BA36023681E442660BDE8F08700002DE9F04F9DB003938B8980461C060D4616460DD50B695BB9402100F0F7FA2860286118B9F0
:401A80000C23C8F80030CDE040236B610023099320238DF82930DFF89CB130238DF82A3037463C4614F8013B1BB9B7EB060910D003E0252BF9D02746F3E74B46324629468E
:401AC0004046FFF771FF013000F0A780099B4B4409933B78002B00F0A08000234FF0FF3204930793059206938DF853301A930126052221784E4800F041FA671C049B38B199
:401B00004B4A3C46801A06FA00F018430490EFE7D90644BF20228DF853201A0744BF2B228DF8532022782A2A03D0079A00210A200BE0039A111D12680391002A10DA5242A1
:401B400043F00200079204900BE027463B780134303B092B03D800FB02320121F5E701B107923B782E2B1ED17B782A2B0AD1039B02371A1D1B680392002BB8BF4FF0FF337A
:401B8000059310E0002319460593781C0A2407463A780130303A092A03D804FB01210123F5E703B1059103223978224800F0E6F940B14023CBEB000003FA00F0049B0137D1
:401BC00018430490397806221B487E1C8DF8281000F0D4F988B1194B33B9039B073323F007030833039314E003AB00932A46144B04A94046AFF3008007E003AB00932A4666
:401C00000F4B04A9404600F093F8B0F1FF3F824603D0099B5344099342E7AB895B0601D4099801E04FF0FF301DB0BDE8F08F00BF2C2200003222000036220000000000001E
:401C4000A91900002DE9F04791461F460A698B6806469342B8BF1346C9F8003091F843200C46DDF8208012B10133C9F800302368990642BFD9F800300233C9F80030256857
:401C800015F0060510D104F1190A07E00123524639463046C04701301AD00135E368D9F800209B1A9D42F1DB94F843302268003318BF012392060FD5E118302081F8430057
:401CC0005A1C94F845102244023382F8431003E04FF0FF30BDE8F08704F1430239463046C0470130F4D02268D9F80050E36802F00602042A08BF5D1B2269A3680CBF25EAC0
:401D0000E57500259342C4BF9B1AED184FF000091A344D4509D00123224639463046C0470130D5D009F10109F3E70020BDE8F0872DE9F04317460A7E85B06E2A9846064674
:401D40000C460C9B01F1430E00F0AE8011D8632A22D009D8002A00F0BB80582A40F0CA8081F84520834955E0642A1ED0692A1CD0C0E0732A00F0B08009D86F2A2ED0702A26
:401D800040F0B8800A6842F020020A603EE0752A24D0782A3AD0ADE01A6801F14205111D1960136884F84230A8E021681A6811F0800F02D0111D196008E011F0400F02F10F
:401DC0000401196002D0B2F9003000E01368002B3CDA2D225B4284F8432037E021681A6811F0800F02D0111D196007E011F0400F02F10401196001D0138800E01368227E17
:401E00005C496F2A14BF0A2208221BE078225A4984F845202268186812F0800F00F104051D6003D1550601D5038800E00368D00744BF42F0200222601BB9226822F02002F3
:401E400022601022002084F8430001E049490A226568002DA56008DB206820F0040020602BB9002D7DD175460CE0002B79D07546B3FBF2F002FB1033CB5C05F8013D034682
:401E80000028F5D1082A0BD12368DA0708D5236962689A42DEBF302305F8013C05F1FF35C5EB0E0323612EE008681A6810F0800F496903D0101D1860136808E010F0400FA7
:401EC00002F104001860136801D0198000E0196000232361754616E01A68111D1960156800216268284600F049F808B1401B6060636804E004F1420584F842200123236168
:401F0000002384F84330CDF800803B4603AA21463046FFF797FE013002D14FF0FF3026E023692A4639463046C0470130F5D023689B0710D5002504F1190907E001234A4665
:401F400039463046C0470130E7D00135E368039A9B1A9D42F2DBE068039B9842B8BF184605E00B7804F1420584F842308AE705B0BDE8F0833D2200004E22000010B5C9B28A
:401F800002449042034605D01C7801308C42F8D1184610BD002010BD884210B501EB020301D8421E0BE09842FBD28118D21AD34204D013F8014D01F8014DF8E710BD994297
:401FC00004D011F8014B02F8014FF8E710BD000038B50546002944D051F8043C0C1F002BB8BFE41800F0D4F81E4A1368114613B96360146030E0A3420DD92268A018834220
:4020000001BF18685B681218226063600C6023E0A24203D813465A68002AF9D118681918A1420BD12168014458188242196013D110685268014419605A600DE002D90C2381
:402040002B6009E021686018824201BF106852680918216062605C602846BDE8384000F098B838BD8802002070B5CD1C25F0030508350C2D38BF0C25002D064601DBA942A2
:4020800002D90C23336046E000F082F8234B1C681A462146A1B10B685B1B0ED40B2B03D90B60CC18CD501EE08C420BBF63684B681360636018BF0C4615E00C464968E9E764
:4020C000174C23681BB9304600F052F820602946304600F04DF8431C18D0C41C24F00304A0420DD12560304600F053F804F10B00231D20F00700C31A0ED05A42E25070BD8F
:40210000211A304600F034F80130EBD10C233360304600F03EF8002070BD00BF8802002084020020F8B5074615460E4621B91146BDE8F840FFF798BF1AB9FFF749FF2846A8
:40214000F8BD00F027F885420ED929463846FFF78BFF044650B131462A46FFF7EDFB31463846FFF735FF01E03046F8BD2046F8BD38B5064C0023054608462360FFF72EF890
:40218000431C02D1236803B12B6038BD9C0200207047704751F8040C0028BEBF091851F8043CC01804387047000000004469733A202564202000000048656C6C6F00000058
:4021C0004D65737361676520427566666572204572726F72210000005265616420554152542044415441000049444C45000000000051004010003051004040000000014042
:40220000001000140140000480180140800300400140000A004C0140000200500140200000180140A807004880004300232D302B2000686C4C006566674546470030313279
:402240003334353637383941424344454600303132333435363738396162636465660000F8B500BFF8BC08BC9E4670474D00000059120000F8B500BFF8BC08BC9E46704737
:402280002900000098220000C880FF1F8800000050810000000000000000000048656C6C6F000000AAAAAAAAA00200200000E02EC05D00001800000000366E010000000036
:4022C000000000000000000000000000000000000000000000000000000000002A220000000000000000000000000000000000000000000000000000000000000000000092
:4023000000000000000000000000000000000000000000000000000000000000EC80FF1F000000000000000000000000000000000000000000000000000000000000000013
:40234000000000000000000000000000000000000000000000000000000000000000000000000000000000000000000000000000000000000000000000000000000000005D
:40238000000000000000000000000000000000000000000000000000000000000000000000000000000000000000000000000000000000000000000000000000000000001D
:4023C00000000000000000000000000000000000000000000000000000000000000000000000000000000000000000000000000000000000000000000000000000000000DD
:40240000000000000000000000000000000000000000000000000000000000000000000000000000000000000000000000000000000000000000000000000000000000009C
:020000040003F7
:0200000480007A
:400000000652004002640040046500404F04014032050140500601404E07014007090140010B01405414014055150140451601404E1701401018014048190140541A0140B2
:400040005E1B0140034001400241014004420140014301400348014005490140064C0140064D01400550014001510140084009400C80608061807C04850F877286388872A4
:400080008A388B0F0120040C050C061107030A030C200D301020130C1410160C171018201B031C201D30201421012306241C26022708281029012B0E2C092E103020310FBC
:4000C000321F353039203B023E013F104002450449FF4A074BFF4C404D204EF04F055008580459045A045D015F01604061A8624063208101870289028A018D029304970450
:4001000099049D04A302AF04B001B302B501B704B908BF50D401D604D804D904DB04DD10DF010050023005200A260B801002110212051304181019011D02212022022508C6
:40014000264027082A142B802F42301A33443765388039023B043C403D013E243F0241214301490450085D015E805F18674080108740C047C20FC40FCA97CCFFCEFBD00434
:40018000D6F0D880E40101200203041F053C0703080409300C070D0F0E180F30113F120414181510181C190A1A011C101F0F201C21302202230F2408250F2905313C361F19
:4001C00037033A803B02580459045F018C098E06900E9201940698069A099E09A004A402AC0FB20EB407BA20BB02C054C103C206C401C5E0C6C0C80AC9FFCAFFCBFFCC62D7
:40020000CDA0CEF0CF41D00CD602D713D804D904DA04DB04DF01E640E702E910EA30EB10ED10EE10EF1200400440052006A008800A140B800C800D020E141080120213087A
:400240001440170819081A041F4022032440260127022C402D202F5034803510360237083C403E16408142E0430849024A05501059015D085E08680A6B10708072127308F3
:40028000810194C095029606978099059A019B049C109D209E249F40A10AA501A620A783A840AA10ABA0AC02B202B316C0F1C2FFC43DCAE0CCF0CEF0D00BD20CD601E601D5
:4002C000EA08822097109A08A008AF10B008EC20820801180205050609040A030E060F19110212021519170619071B181D08212025102601291E2B012C062D1F2E01331EF3
:400300003407352037073A203B083F10580459045C105F018003810382048304870888038A048D0A8E088F0493109403960C970599109C0A9D039E049F0CA110A605A7103B
:40034000AB10AD03AF04B10FB20FB510BA08BB02BF10C013C104C5EBC7C0C823C9FFCAFFCBFFCEF0CF44D00CD804D904DA04DC10DD01DF01E6C0EA40EB0201200201038064
:4003800005200601074009020D400E2010201202141019201E20211022442480252026012780280829082A822C302F8A30803101321435203622378439153B803C043D02DD
:4003C0003F40450147844F065702812082028510861087C0882889208D408E028F48900491159220934094809688970499099A819B049C18A080A103A621A783A92AAA04C9
:40040000AB40B020B120B480B708C0DBC2A8C425CAFFCCFFCEDFD0D0E002E209E409E604EA05EE04028004090610070608100B010C2C0D060E110F011203130516801702BD
:4004400018141C301E0C1F03201C22222440301F31073280346038203B023E045418580459045B045C115F01810C830384E7870C88228A518B038D018F0694019510960EBA
:40048000984499109A319D019F0EA708A8E7A910AC80AD10B080B10FB207B460B510B618BB02BE40BF10D804D904DC10DF01012003100444050207080A140B200D080E82E2
:4004C0000F04100A150216201704180119101A541C841E801F0421212340244025012740280829042A80302032143348350436013748388439023A203C043E203F405F02EA
:40050000670A79017B4081018301851488408EC0948195029640972099069A019B169C109D309E049F40A00AA108A620A783AE01AF08B410B508C0F6C2F6C433CA0ECCDE31
:40054000CE7FD680D830E204E60E89028F02910495029601A501AA01B201B306B501B908BE04BF10D804D904DF0105140640070208080C400D200E220F8012081480160243
:4005800017181A201C011D1C1E0423142404268427802A082C202D8031013204360638903C043D184440452847844F20551056405E016C206D5074047612770880488210D7
:4005C00083088404860287028A828D088E01971098089A08A008A208A620B408B608C0F0C2F4C4F2CA52CCC3CE6CD0F0D220D680E010E420E610E840EC40090313011502AE
:400600002903310339023F014004460449FF4A074BFF4C404D204EF04F0550085418560459045A045B045D105F01604061A862406320810B8202840C850388048B108C082D
:400640008D018F04900C9202940C9502960298019B0B9C029E0C9F10A40EA70BA801A90BAC01AF03B108B20EB304B401B510B703B902BA08BF10C062C101C50BC6E0C70C27
:40068000C819C9FFCAFFCBFFCEF0CF44D00CD401D804D904DA04DB04DC11DF01E6C0EA40EB02065207080C200D020E211550162017041D201E2020402404275228082E24F7
:4006C0002F02300831013614374038103D2A3E013F80404045804720484049014E245140560857205B025DA25F046005620280108182820283208408852086448706884009
:4007000089808A108B208C088D208E089001915092049410958096089A129B0C9D019F10A028A117A204A340A520A630A804A940AA04AF04B102B205B480B581B750C0F070
:40074000C2F0C4E0CA74CC73CEF4D031D220D6F1D80DE290E480E630E812EC80EE6030203640CC30A420A6408640A420A640E640A4200308A420C0408020A420AB08E28097
:40078000EC800C8067088B04C201D801E00177209B20AF20B480DE04EE0200030A0310031A031C03000F0000000001003E0200153867040030000000088000003844022AD8
:4007C00000000600000001000E00300010670000000008002021004A001800603E0701800000280000004041620304000100EC000CFFFFFF62A0F0410C0000000000021310
:4008000004040404111100010000000000004002001030100010101200000000000000000000000000000000800000FFFF0080000000000004000000000000004000804BB4
:400840004B004000000000000002020000000000000000000000000000000000000000000000000000000000000000000000000000000000000000000000000000000000E9
:400880000000000000000000000000000000000000000000000000000000000000000000000000000000000000000000000000000000000000000000000000000000000038
:4008C00000000000000000000000000000000000000000000000000000000000000000000000000000000000000000000000000000000000000000000000000000000000F8
:4009000000000000000000000000000000000000000000000000000000000000000000000000000000000000000000000000000000000000000000000000000000000000B7
:400940000000000000000000000000000000000000000000000000000000000000000000000000000000000000000000000000000000000000000000000000000000000077
:0200000490006A
:0400000000004005B7
:0200000490105A
:04000000BC90ACAF55
:0200000490303A
:02000000225E7E
:0200000490402A
:4000000000000000000000000000000000000000000000000000000000000000000000000000000000000000000000000000000000000000000000000000000000000000C0
:400040000000000000000000000000000000000000000000000000000000000000000000000000000000000000000000000000000000000000000000000000000000000080
:400080000000000000000000000000000000000000000000000000000000000000000000000000000000000000000000000000000000000000000000000000000000000040
:4000C0000000000000000000000000000000000000000000000000000000000000000000000000000000000000000000000000000000000000000000000000000000000000
:0200000490501A
:0C00000000012E16106900012E2632C7E8
:00000001FF