:400000000080002011000000491200004912000008B5044B1A6803F53F5302331A6001F033F900BFFA46004010B5054C237833B9044B13B10448AFF300800123237010BD94
:400040005081FF1F000000001C250000084B10B51BB108490848AFF300800848036803B910BD074B002BFBD0BDE81040184700BF000000005481FF1F1C250000C880FF1F70
:400080000000000070B586B02CE001F091FB194B1B7813B1012B06D024E02B2822D10122144B1A701EE00D2800D100200A2813D1104C0025257004F108062B466268314644
:4000C000E06900F0E7FA6560314601A801F028FD01A801F015FC05E0064A5368591C51601344187201F0A4FB0028CED101F04CFB06B070BD6C81FF1F10B592B02A4A05ABA1
:4001000007CA83E80700294B01AC0FCB07C42370274BD86900F04CFB002841D1642314220DA92348C06900F0F1FA22490DA801F0FFFC0446204801F0E3FB204601F0E0FB5E
:400140001E4801F0DDFB204601F082FC044602461B4908A801F0C0FC0021012001F05EFA08A801F0F3F9312C0DD8012001F074FA05A801F0C5FB0021084601F04FFA1148EE
:4001800001F0E4F90CE0002001F066FA01A801F0B7FB0021084601F041FA0B4801F0D6F9642000F0B7FDB3E75C250000682500006C81FF1F2025000024250000302500005C
:4001C00034250000442500005025000008B5084801F068FA01F0CAFA01F0D2F901F010FA012001F0C1F9034801F0B0F908BD00BF850000007825000000B583B062B600F0B5
:400200001DF9FFF7E3FF01220021642000F022FA094BD86100B9FEE70023019304220092C8220649064800F01DFC012800D0FEE700F04AFCFEE700BF6C81FF1F802500006A
:40024000F900000038B5044610F0070F02D020F00704083400F064FC104B1B682BB90F4A02F10C0323F0070313600D4BD3F83C391C4447F6F772944208D8A34208D2074AAE
:4002800015681D44064BC3F83C4902E0002500E0002500F0D3FC284638BD00BF8C81FF1F54F8FF1F704700BF82B0002301934FF0A00383F31188BFF36F8FBFF34F8F019B21
:4002C000002BFCD002B0704706480068006880F3088862B661B6BFF34F8FBFF36F8F00DF00BF000008ED00E04FF0807340F8043C21F0010140F8081C034B40F80C3C40F87C
:40030000202C4038704700BFA902000000000000074B19680868B0E8F00F80F30988BFF36F8F4FF0000080F311884EF00D0E70476C0200204FF0A00383F31188BFF36F8FC0
:40034000BFF34F8F024A136801331360704700BFCC80FF1F034A1368013B13600BB983F311887047CC80FF1F0000000000000000EFF30980BFF36F8F0D4B1A6820E9F00F37
:4003800010602DE908404FF0A00080F3118800F0DBFC4FF0000080F31188BDE8084019680868B0E8F00F80F30988BFF36F8F70476C02002008B54FF0A00383F31188BFF3A4
:4003C0006F8FBFF34F8F00F0B5FB18B14FF08052024B1A60002383F3118808BD04ED00E0054B00221A6005490A6045F6BF51044A116007221A60704710E000E018E000E0B6
:4004000014E000E010B50B4B1A6842F460021A601A6842F060421A60FFF7E2FF0024064B1C60FFF751FF00F08FFCFFF73DFF204610BD00BF20ED00E0CC80FF1F034B044AC9
:40044000DA62044A9A63044ADA6370470080FF1F1103000071030000B503000000F1080343604FF0FF328260C360036100230360704700BF00230361704700BF43684B600E
:400480009A688A609A68516099600861036801330360704730B40D68B5F1FF3F01D1026907E000F1080200E01A4653681C68A542FAD253684B6099608A6051600861036826
:4004C0000133036030BC704703694268816891608268416851605A68904201D182685A60002202611A68013A1A601868704700BF8268436813440068181A824200D8801A16
:40050000704700BFF8B504460D4617461E462022002101F0D8FAA561A760E660069B1BB1237F43F001032377F8BD00BF2DE9F041064688461746446885682D1B954228BF10
:40054000154680692A46204401F0B2FAAF4205D97A1B08EB0501B06901F0AAFAE319B268934200D39B1A73603846BDE8F08100BF30B583B004460D460192ABB11A46037F9C
:4005800013F0010F06D1019B9A4228BF1A46019201230CE0069B9A4208D304220DEB0201FFF7C4FF012302E0002300E000232BB1019A29462046FFF7B9FF00E0002003B0E4
:4005C00030BD00BF2DE9F0419A4228BF1A461446DAB18846054606688768BF1B974228BF174681693A463144404601F061FABC4205D9E21BA96908EB070001F059FA26444F
:40060000AB689E4200D3F61A2E602046BDE8F0812DE9F04383B005460F4690461C460A9E76B1D0F80090324601A9FFF7CBFFA41B019B434505D9C5F800900023019300E0D8
:4006400001922346019A39462846FFF7BBFF03B0BDE8F083F0B583B017460D4601B90125461C2130FFF7EEFD044630B100972B46324600F12001FFF745FF204603B0F0BDC2
:400680008268036813444068181A0138824200D8801A70472DE9F04182B004460E4615469846037F13F0010F01D0171D00E017462046FFF7E5FF009703462A4631462046FA
:4006C000FFF756FF0546E8B12046FFF711FFE368984217D3EFF311864FF0A00383F31188BFF36F8FBFF34F8F23694BB12069CDF8008000231A46194600F012FC00232361C9
:4007000086F31188284602B0BDE8F0812DE9F04383B00446884691461F46037F13F0010F01D0042600E00026FFB1FFF703FE2046FFF7DEFE0546864205D3002000F05CFCD9
:4007400000F03AFB2061FFF705FEAE4211D33B4600224FF0FF31104600F034FB002323612046FFF7C5FE054603E02046FFF7C0FE0546B54217D900962B464A4641462046BB
:40078000FFF746FF054678B100F0CAF963693BB1606900231A46194600F066FB0023636100F04CFA00E00025284603B0BDE8F083026843689A4201D1012070470020704756
:4007C000094B9B6A1B680BB9012300E0002323B14FF0FF32044BDA627047034B9A6AD268D2685268DA6270479401002010B50446006BFFF757FD2046FFF754FD10BD00BF87
:400800002DE9F04781460D4617469A46089EDDF824800A9C9200A521206B01F054F9236B07F18042013A03EB820727F00707002306E0E95CE21882F83410EA5C12B10133CC
:400840000B2BF6D9002384F83F30042E00D90426E662266400256564201DFFF70BFE04F11800FFF707FE2461C6F10506A6616462A56484F84C50524649463846FFF734FD2B
:400880002060B8F1000F01D0C8F80040BDE8F08770B5002407E004EB8402930010481844FFF7DCFD0134042CF5D90E4C04F194063046FFF7D3FD04F1A8052846FFF7CEFD2F
:4008C00004F11400FFF7CAFD04F1BC00FFF7C6FD2046FFF7C3FDA662C4F8D05070BD00BFC40100209401002038B50546FFF722FD264BD3F8D4200132C3F8D420D3F8D83010
:400900004BB9224BC3F8D850D3F8D430012B10D1FFF7BEFF0DE01D4BD3F8DC304BB91B4BD3F8D830DA6AEB6A9A4202D8174BC3F8D850164CD4F8E0300133C4F8E030EB6A44
:40094000012202FA03F1D4F8E4200A43C4F8E42004F1300003EB83039A00291D1044FFF78DFDFFF7F7FCD4F8DC306BB1D4F8D830DA6AEB6A9A4207D24FF08052044B1A6061
:40098000BFF34F8FBFF36F8F38BD00BF9401002004ED00E038B517E0FFF7CCFC0D4CD4F8C830DD68281DFFF78FFDD4F8D430013BC4F8D430D4F8E830013BC4F8E830FFF73C
:4009C000C9FC2846FFF712FF024BD3F8E830002BE2D138BD9401002008B5FFF7DBFFFCE770B504460E461E4BD3F8EC50D3F8D8000430FFF769FD60B9194BD3F8D820D16AB4
:400A0000012202FA01F1D3F8E42022EA0102C3F8E420B4F1FF3F07D136B11148D0F8D8100431FFF72BFD70BD2C440D4BD3F8D8305C60A54208D90A4BD3F8D000D3F8D8101B
:400A40000431FFF727FD70BD054DA86AD5F8D8100431FFF71FFDEB6A9C4200D2EC6270BD940100202DE9F04385B006460F46154698469000FFF7E6FB60B181465020FFF768
:400A8000E1FB044610B1C0F8309004E04846FFF709FC00E000248CB10023039302940D9B01930C9B009343462A4639463046FFF7A7FE2046FFF718FF012001E04FF0FF30F8
:400AC00005B0BDE8F08300BF00B583B0104B019300230093C8220F490F48FFF7C3FF012813D14FF0A00383F31188BFF36F8FBFF34F8F0A4B4FF0FF32DA620122C3F8DC2073
:400B00000022C3F8EC20FFF77DFC03B05DF804FB8802002088250000D909000094010020034AD2F8F0300133C2F8F030704700BF940100202DE9F0413F4BD3F8F030002B11
:400B400066D13D4BD3F8EC700137C3F8EC7067B99A6AD3F8D0109962C3F8D020D3F8F8200132C3F8F820FFF72BFE334BDB6A9F4205D24FF000083FE04FF0010801E04FF07A
:400B800000082D4B9B6A1B680BB9012300E0002323B14FF0FF32284BDA622DE0264B9B6ADB68DC6863689F4202D2234AD36223E0261D3046FFF788FCA36A1BB104F1180007
:400BC000FFF782FCE36A012202FA03F11A4DD5F8E4200A43C5F8E42005F1300003EB83039A0031461044FFF749FCE26AD5F8D830DB6A9A42C0D2C4E70F49D1F8D830DB6AB4
:400C000003EB83039A000A44136B012B09D80AE0094AD2F8FC300133C2F8FC304FF0000801E04FF00108044BD3F800310BB14FF001084046BDE8F0819401002070B5FFF755
:400C400079FB324BD3F8F020013AC3F8F020D3F8F030002B53D12D4BD3F8D43043BB002450E02A4C236ADD6805F11800FFF72CFC2E1D3046FFF728FCEB6A012202FA03F118
:400C8000D4F8E4200A43C4F8E42004F1300003EB83039A0031461044FFF7F0FBEA6AD4F8D830DB6A9A4204D30122C4F8002100E00025164B5B69002BD3D10DB1FFF780FD2E
:400CC000124BD3F8FC4064B1FFF734FF18B101220E4BC3F80021013CF6D100220B4BC3F8FC200A4BD3F800315BB14FF08052084B1A60BFF34F8FBFF36F8F012402E0002438
:400D000000E00024FFF726FB204670BD9401002004ED00E010B548B10446FFF701FF00212046FFF75DFEFFF789FF00E0002038B94FF08052034B1A60BFF34F8FBFF36F8F21
:400D400010BD00BF04ED00E01A4BD3F8F03023B10122184BC3F80021704710B4154A0023C2F80031D2F8E430B3FA83F3DBB2C3F11F039800C418A10011444C6B64684C63A8
:400D800002F130011844820008320A44944206D1606803EB83018A0006490A445063054903EB83039A000A44536BDB68C1F8D83010BC704794010020014BD3F8D80070479E
:400DC00094010020F8B507460D4614461E46FFF7B1FA234BD3F8D83093F84C30DBB2022B18D01F4BD3F8D820906C20EA07009064D3F8D830012283F84C205EB111463046C1
:400E0000FFF7EEFD4FF08052164B1A60BFF34F8FBFF36F8FFFF79EFAFFF78CFA24B1104BD3F8D8309B6C23600D4BD3F8D83093F84C30DBB2022B08D1094BD3F8D820936C33
:400E400023EA05059564012400E00024044BD3F8D830002283F84C20FFF77CFA2046F8BD9401002004ED00E0F8B504460F4615461E46FFF75FFA0EB1A36C336094F84C303E
:400E8000DBB2022284F84C206A1E032A15D8DFE802F002070C0FA26C1743A76401250FE0A26C0132A26401250AE0A764012507E0022B04D0A764012502E0012500E00025E4
:400EC000012B24D1271D3846FFF7FEFAE36A012202FA03F1104ED6F8E4200A43C6F8E42006F1300003EB83039A0039461044FFF7C5FAE26AD6F8D830DB6A9A4207D94FF063
:400F00008052064B1A60BFF34F8FBFF36F8FFFF721FA2846F8BD00BF9401002004ED00E0F8B5EFF311844FF0A00585F31188BFF36F8FBFF34F8F0BB1856C1D6090F84C30D4
:400F4000DBB2022580F84C50013A032A15D8DFE802F002070C0F826C1143816401250FE0826C0132826401250AE08164012507E0022B04D08164012502E0012500E0002519
:400F8000012B31D106461A4BD3F8F030B3B9071D3846FFF799FAF36A012202FA03F11448D0F8E4200A43C0F8E420303003EB83039A0039461044FFF761FA04E000F11801AF
:400FC0000C48FFF75BFAF26A094BD3F8D830DB6A9A4209D9069B1BB10123069A136003E00122034BC3F8002184F311882846F8BD94010020A801002010B5044610B90A4B1A
:40100000D3F8D840FFF796F994F84C30DBB2022B04D1002384F84C30012400E00024FFF799F9204610BD00BF94010020FEE700BFF0B40022174611E050F82760F3B226F0FC
:40104000FF0608E001EB420511F812406D78A5550132013BDBB2002BF4D10137142FEBD9F0BC7047064B1B78DBB203F00701054A11701B09013213704422034B1A7070477D
:40108000CF0100496E5800407658004008B50A46002100F018FD08BD38B54FF49C72244B1A80182202331A70022203F27E231A7008224FF040231A70032103F50073197019
:4010C0001C4B1B78DBB21C490B701C4B1A8041F25122023B1A80002419250CE0184B1B7803F0010343EA440404F003044FF4F07000F09EFC013D0DB1032CEFD115B9032057
:40110000FFF794FF0F4B4FF480721A8007221A7000220D490A704820023108701A700222033B1A70094A137843F00103137038BD8040004008010049A14600402242004025
:40114000254200400440004006400040A243004008B500F0ADFC08BD38B572B62B4A137843F00403137000240CE0294D630019194A0011462A44084691882858FFF786FF20
:401180000134E4B2072CF0D922494FF09040FFF74FFF214A137843F0020313701032137843F0020313701D4C237843F040032370A2F58632513A137843F01003137008220C
:4011C00017491848FFF7C4FF0A2217491748FFF7BFFF082216491748FFF7BAFF164A137843F008031370154D61232B70FFF754FF81232B700122124B1A70FFF733FF0E2229
:4012000021461048FFF7A4FF38BD00BFE8460040902500005400004803500140A04300400C040048C251004014040048105100402004004822510040224300400048004034
:4012400004000840B043004008B500F005FC03680C2B00D1FEE7FEE708B5094B1A681044084BC31A802B02DC054B186005E000F0F3FB0C2303604FF0FF32104608BD00BFFD
:40128000D080FF1FD002002008B5104E104D16E029686B68AC68002204E051F8040B43F8040B0432A242F8D1E868002203E0002143F8041B04328242F9D11035013E002E17
:4012C000E6D100F0CFFBFEF797FFFEE7010000001C27000008B5104A104B1A60104A136843F40073136000230AE0032B03D80D4A52F8231000E00C490C4A42F823100133D5
:401300002F2BF2D90A4B1A780A4B1A70074A0A4B1A60FFF721FF08BD0004FA050CED00E014ED00E000000000491200000080FF1FBC760040C080FF1F08ED00E001BE7047F6
:4013400010B5044605E0084B186800F071FBA4F50044B4F5004FF6D8034B586800FB04F000F066FB10BD00BFD480FF1F08B5034B1B7A00FB03F000F05BFB08BDD480FF1F50
:4013800070B504460E46074B1D681F2802D90020FFF7D4FF04F01F04103455F8240045F8246070BD08ED00E038B504460D46072902D90020FFF7C2FF1F2C02D90020FFF751
:4013C000BDFF04F01F0000F1604000F564406D01EDB2057038BD00BF10B50B4C237803F09F032370237803F0F00323702378184340F0100020700120FFF7B8FF237803F0A9
:40140000EF03237010BD00BFC051004038B505460E4C237843F020032370237803F0BF0323700020FFF7A2FF237803F0F003237023781D4345F0100525700120FFF796FF00
:40144000237803F0EF03237038BD00BFC051004070B5354B1A7802F08002D2B21A7033490A7802F0F00242F00F020A7001310A7802F0F0020A7001310A7802F0F0020A70D8
:401480001A7802F0DF021A701A7842F040021A704FF4CA760020FFF769FF234D2B7843F010032B700120FFF761FF214B1C78E4B22B7803F0EF032B700020FFF757FF04F028
:4014C0000804E4B22B7843F010032B700120FFF74DFF2B7803F0EF032B7014B90A20FFF745FF013E0CB1002ED4D10F4A137803F0BF031370137803F08003DBB213700232DF
:40150000137803F0F00313700132137803F0F00343F00F0313700132137803F0F00343F00F03137070BD00BFC0510040C2510040C151004010B50446FFF78AFF2009FFF750
:4015400065FF04F00F00FFF761FF10BD38B505460078012404E0FFF7EDFF285D0134E4B20028F8D138BD00BF10B50446FFF770FF2009FFF731FF04F00F00FFF72DFF10BD9C
:4015800008B52820FFF7DCFE0320FFF725FF0520FFF7D6FE0320FFF71FFF0F20FFF7D0FE0320FFF719FF0120FFF7CAFE0220FFF713FF0520FFF7C4FE0620FFF7D5FF0E20CB
:4015C000FFF7D2FF2C20FFF7CFFF0820FFF7CCFF0120FFF7C9FF0C20FFF7C6FF0320FFF7C3FF0520FFF7ACFE08BD00BF08B50C20FFF7BAFF0122014B1A7008BD9802002031
:4016000008B5054B5B7823B9FFF7BAFF0122024B5A70FFF7EBFF08BD9802002008B5032819D8DFE800F002070D1381F08000FFF79BFF08BDA1F14000C0B2FFF795FF08BD14
:40164000A1F16C00C0B2FFF78FFF08BDA1F12C00C0B2FFF789FF08BD044A137803F0FD03400000F0020018431070704720510040014B1B681864704708ED00E04001C0B273
:40168000014B1870704700BF00E400E00122014B1A60704700E100E00122014B1A60704780E100E010B50446FFF7F6FF2046FFF7DFFF0720FFF7E2FFFFF7E8FF10BD00BF3F
:4016C00008B511490120FFF75BFE04210120FFF76BFE00220D4B1A7072220D4B1A702022FF331A700B490220FFF74AFE04210220FFF75AFE0622084B1A70472210331A70C2
:4017000002224F331A7008BD251900009A02002089640040BD1900002B65004010B500F08FF904460D4A137843F020031370FF32137843F010031370094A022313600949E3
:401740000B7843F010030B70042307490B60136000F060F9204600F077F910BD9964004000E100E09A65004080E200E008B5054B5B7823B9FFF7A4FF0122024B5A70FFF7F0
:40178000CDFF08BD9A020020074B187800F07F00064B5B7913F0FF0F04D040F080000022024B5A71704700BF686500409A0200200222194B1A60194A9378DBB2D178C9B297
:4017C000127912F0FF0F01D18B4211D0144AD05CC0B20133DBB20E2B00D900230F4A9370137913F0FF0F13D000220C4B1A710FE00C4B1B78DBB213F0200F06D00A4A1078B2
:40180000C0B213F01E0F02D102E0002000E000200222064B1A60704780E100E09A020020AC020020686500404865004000E100E00222144B1A60144B9A78D2B2DB78DBB233
:401840009A4206D1104B1B7913F0FF0F15D00F2014E00D4B9A78D2B2DB78DBB29A4205D2094AD3789078181AC0B207E0064AD3789078181A0F30C0B200E000200222034B03
:401880001A60704780E100E09A02002000E100E0164BD9799B79DBB2994205D25A1E914214BF0022012204E0CA1A0E2A14BF00220122002AECD1994207D10D4B1B7813F030
:4018C000040F02D10B4B187070470E2900D90021094B58540131054BD971054B1B7813F0020F02D00422054B1A6070479A0200206A6500404A650040BC02002000E200E0A6
:4019000038B5074B5B782BB938BDFFF7C1FF0134A4B201E005460024285D0028F5D138BD9A0200201D4B1B78DBB213F01E0F05D01B4803F01E0201780A43027003F02003B6
:4019400003F0FF0233B3174B1978C9B2164B1B78DBB21648C154164B1B7813F0FF0F02D00121144B197010490B780133DBB20B700B78DBB20E2B02D900210B4B19700A4BB9
:401980001978C9B20C4B1B78DBB2994202D10121074B1970002AC5D1704700BF686500409A020020486500409D020020AC0200209E0200209F0200209C02002013E0104BF3
:4019C0001B78DBB20E2B02D900220D4B1A700C4A1378DBB20B49CB5CDBB20B490B7013780133DBB21370064B1B78DBB2074A1278934204D0064B1B7813F0040FDFD0704746
:401A0000A0020020BC0200204A650040A10200206A650040054A137843F0010313701032137843F001031370704700BFA24300400230800803D000BF01380046FCD1704740
:401A4000EFF3108072B6704780F31088704700BF0A22002100F050B9014B1868704700BF4481FF1F0E4B70B51E460E4C0025E41AA410A54204D056F8253098470135F8E7C4
:401A800000F03AFE084B094C1E46E41AA4100025A54204D056F8253098470135F8E770BD0427000004270000042700000C27000010B5431E0A44914204D011F8014B03F87D
:401AC000014FF8E710BD03460244934202D003F8011BFAE7704700000EB400B54FF402719CB0ADF814106FF00041049107914FF6FF711DAB02900690084853F8042BADF8E2
:401B00001610006802A9019300F00CFA029B00221A701CB05DF804EB03B070474481FF1F034611F8012B03F8012B002AF9D17047174B2DE9F0411D680646AC6D0F46FCB94F
:401B4000502000F0E3F8A8658460AB6D046044601C61DC60AB6D9C615C61AB6DDC629C62AB6D5C631C63AB6DDC639C63AB6D5C641C64AB6DDC649C64AB6D1C77AB6D5C625D
:401B8000AA6D39463046BDE8F041012300F002B84481FF1FF0B548B9106838B9F0BD17F8016B5EB1B542FAD12BB1204604460F4614F8015BF3E714600370F0BD4DB9156058
:401BC0002846F0BD17F8016BB54207D0002EF9D11C4623460F4613F8015BF3E715B10021217000E02B461360F0BD00002DE9F0470F4680463F48D0F800903D4615F8014B1C
:401C000009EB0400407800F0080000F0FF0608B12F46F2E72D2C03D1BD1C7C78012603E02B2C04BF7C78BD1C13B1102B0AD15BE0302C57D1287800F0DF0058284DD16C788B
:401C400010230235002E14BF4FF0004C6FF0004CBCFBF3FA0027384603FB1ACC09EB040E9EF801E01EF0040F01D0303C0BE01EF0030E1BD0BEF1010F0CBF4FF0370E4FF079
:401C8000570ECEEB0404A34210DDB7F1FF3F0AD0504506D801D1644503DC03FB0040012701E04FF0FF3715F8014BD7E77B1C0CD1002E4FF0220314BF4FF000406FF00040D5
:401CC000C8F800302AB9BDE8F08706B1404272B107B1691E1160BDE8F0873024002BB1D10823AFE70A23ADE7302CA3D0AAE7BDE8F08700BF4881FF1F13460A4601460248EE
:401D00000068FFF773BF00BF4481FF1F024B0146186800F04FB800BF4481FF1F38B50546002944D051F8043C0C1F002BB8BFE41800F0C1FB1E4A1368114613B96360146014
:401D400030E0A3420DD92268A018834201BF18685B681218226063600C6023E0A24203D813465A68002AF9D118681918A1420BD12168014458188242196013D110685268D1
:401D8000014419605A600DE002D90C232B6009E021686018824201BF106852680918216062605C602846BDE8384000F085BB38BDA802002070B5CD1C25F0030508350C2D4E
:401DC00038BF0C25002D064601DBA94202D90C23336046E000F06FFB234B1C681A462146A1B10B685B1B0ED40B2B03D90B60CC18CD501EE08C420BBF63684B6813606360C0
:401E000018BF0C4615E00C464968E9E7174C23681BB9304600F016FB20602946304600F011FB431C18D0C41C24F00304A0420DD12560304600F040FB04F10B00231D20F09F
:401E40000700C31A0ED05A42E25070BD211A304600F0F8FA0130EBD10C233360304600F02BFB002070BD00BFA8020020A40200202DE9F0478E6882469E420C469146984649
:401E80003ED88A8912F4906F3AD02568096902236F1A656905EB450595FBF3F57B1C43449D4238BF1D4653050FD52946FFF782FF064698B13A462169FFF7FAFDA38923F475
:401EC000906343F08003A38113E02A4600F0F5FA064670B921695046FFF720FF0C23CAF80030A3894FF0FF3043F04003A381BDE8F08726613E44266046466561ED1BA560CA
:401F0000464528BF464649463246206800F0B8FAA36800209B1BA36023681E442660BDE8F08700002DE9F04F9DB003938B8980461C060D4616460DD50B695BB94021FFF75B
:401F400039FF2860286118B90C23C8F80030CDE040236B610023099320238DF82930DFF89CB130238DF82A3037463C4614F8013B1BB9B7EB060910D003E0252BF9D0274601
:401F8000F3E74B46324629464046FFF771FF013000F0A780099B4B4409933B78002B00F0A08000234FF0FF3204930793059206938DF853301A930126052221784E4800F0C8
:401FC00051FA671C049B38B14B4A3C46801A06FA00F018430490EFE7D90644BF20228DF853201A0744BF2B228DF8532022782A2A03D0079A00210A200BE0039A111D1268C3
:402000000391002A10DA524243F00200079204900BE027463B780134303B092B03D800FB02320121F5E701B107923B782E2B1ED17B782A2B0AD1039B02371A1D1B6803928C
:40204000002BB8BF4FF0FF33059310E0002319460593781C0A2407463A780130303A092A03D804FB01210123F5E703B1059103223978224800F0F6F940B14023CBEB0000AD
:4020800003FA00F0049B013718430490397806221B487E1C8DF8281000F0E4F988B1194B33B9039B073323F007030833039314E003AB00932A46144B04A94046AFF3008065
:4020C00007E003AB00932A460F4B04A9404600F093F8B0F1FF3F824603D0099B5344099342E7AB895B0601D4099801E04FF0FF301DB0BDE8F08F00BFC3260000C9260000E4
:40210000CD26000000000000711E00002DE9F04791461F460A698B6806469342B8BF1346C9F8003091F843200C46DDF8208012B10133C9F800302368990642BFD9F8003085
:402140000233C9F80030256815F0060510D104F1190A07E00123524639463046C04701301AD00135E368D9F800209B1A9D42F1DB94F843302268003318BF012392060FD5E4
:40218000E118302081F843005A1C94F845102244023382F8431003E04FF0FF30BDE8F08704F1430239463046C0470130F4D02268D9F80050E36802F00602042A08BF5D1B66
:4021C0002269A3680CBF25EAE57500259342C4BF9B1AED184FF000091A344D4509D00123224639463046C0470130D5D009F10109F3E70020BDE8F0872DE9F04317460A7E37
:4022000085B06E2A984606460C460C9B01F1430E00F0AE8011D8632A22D009D8002A00F0BB80582A40F0CA8081F84520834955E0642A1ED0692A1CD0C0E0732A00F0B0807C
:4022400009D86F2A2ED0702A40F0B8800A6842F020020A603EE0752A24D0782A3AD0ADE01A6801F14205111D1960136884F84230A8E021681A6811F0800F02D0111D196063
:4022800008E011F0400F02F10401196002D0B2F9003000E01368002B3CDA2D225B4284F8432037E021681A6811F0800F02D0111D196007E011F0400F02F10401196001D0BD
:4022C000138800E01368227E5C496F2A14BF0A2208221BE078225A4984F845202268186812F0800F00F104051D6003D1550601D5038800E00368D00744BF42F0200222602B
:402300001BB9226822F0200222601022002084F8430001E049490A226568002DA56008DB206820F0040020602BB9002D7DD175460CE0002B79D07546B3FBF2F002FB1033D6
:40234000CB5C05F8013D03460028F5D1082A0BD12368DA0708D5236962689A42DEBF302305F8013C05F1FF35C5EB0E0323612EE008681A6810F0800F496903D0101D1860E9
:40238000136808E010F0400F02F104001860136801D0198000E0196000232361754616E01A68111D1960156800216268284600F059F808B1401B6060636804E004F1420567
:4023C00084F8422001232361002384F84330CDF800803B4603AA21463046FFF797FE013002D14FF0FF3026E023692A4639463046C0470130F5D023689B0710D5002504F1D8
:40240000190907E001234A4639463046C0470130E7D00135E368039A9B1A9D42F2DBE068039B9842B8BF184605E00B7804F1420584F842308AE705B0BDE8F083D42600001D
:40244000E526000038B5064C0023054608462360FEF702FF431C02D1236803B12B6038BDCC02002010B5C9B202449042034605D01C7801308C42F8D1184610BD002010BD14
:40248000884210B501EB020301D8421E0BE09842FBD28118D21AD34204D013F8014D01F8014DF8E710BD994204D011F8014B02F8014FF8E710BD70477047F8B5074615465A
:4024C0000E4621B91146BDE8F840FFF773BC1AB9FFF724FC2846F8BD00F015F885420ED929463846FFF766FC044650B131462A46FFF7DEFA31463846FFF710FC01E030460B
:40250000F8BD2046F8BD51F8040C0028BEBF091851F8043CC018043870470000000000003A0000005265636569766564200000000A00000044697374616E63653A202564BF
:402540002020200053797374656D204F4E20000053797374656D204F4646000053797374656D4F4E3A0D0A0053797374656D4F46463A0D0A0000000048656C6C6F00000001
:402580005461736B2031000049444C4500000000005100401000305100404000F0510040100000000140001000140140000800400140000A004C014000020050014020006D
:4025C00043000020202020202020202028282828282020202020202020202020202020202020208810101010101010101010101010101004040404040404040404101010A0
:40260000101010104141414141410101010101010101010101010101010101010101101010101010424242424242020202020202020202020202020202020202020210108C
:40264000101020000000000000000000000000000000000000000000000000000000000000000000000000000000000000000000000000000000000000000000000000001A
:40268000000000000000000000000000000000000000000000000000000000000000000000000000000000000000000000000000000000000000000000000000000000001A
:4026C000000000232D302B2000686C4C0065666745464700303132333435363738394142434445460030313233343536373839616263646566000000F8B500BFF8BC08BC03
:402700009E4670474D000000D5120000F8B500BFF8BC08BC9E4670472900000030270000C880FF1F88000000808100000000000000000000AAAAAAAAD00200200000E02E34
:40274000C05D00001800000000366E010000000000000000000000000000000000000000000000000000000000000000C0250000000000000000000000000000000000009A
:402780000000000000000000000000000000000000000000000000000000000000000000000000000000000000000000E480FF1FC2250000000000000000000000000000B0
:4027C00000000000000000000000000000000000000000000000000000000000000000000000000000000000000000000000000000000000000000000000000000000000D9
:402800000000000000000000000000000000000000000000000000000000000000000000000000000000000000000000000000000000000000000000000000000000000098
:402840000000000000000000000000000000000000000000000000000000000000000000000000000000000000000000000000000000000000000000000000000000000058
:402880000000000000000000000000000000000000000000000000000000000000000000000000000000000000000000000000000000000000000000000000000000000018
:020000040003F7
:0200000480007A
:400000000252004001640040026500404108014033090140011501400117014056180140431901405D1A01404E1B01400440014002410140024201400243014003480140DB
:4000400003490140044C0140034D0140045001400151014009400C80897288388A0F000C01040202040C0502080E09060C0810021109120C1306150F160118041E021F0121
:40008000240C260229062A012B092D072F0832013307340E350839203A203E04580459045F018101820484048502881C8A018C078D028E18901C9202941F95019808990223
:4000C0009E03A010A101A818A901B01FB101B702BA02BF01D602D713D804D904DB04DF01012A020103010408050106020704080409A00A400DA10E201311162419011AC02F
:400100001D101F04218022812610271029312A202E6031043210330435043680370139463A013E123F045A0269446A20701471207212731589808A20C0FFC2FFC46ACA3556
:40014000CCD6CEEBD601E602EE01010105020F041B041F012D013303350439083A083F104051410242034406460C470E481449FF4AFF4BFF4C624DA04EF04F41500C54183A
:400180005604580459045A045B045F016640670269106A306B106D106E106F1280048108820A850C8650880889048A068C308D638E408F0C9030916392C0940C956F9910E1
:4001C0009A019D0C9F63A0A0A240A363A40CA521A942AA80AC30AD0FAE40AF60B10FB20CB360B403B510B6F0BA80BB02BE10BF10D804D904DF01000A030A09010A241144ED
:40020000124013201A011B181D0420042101220923402510272029882A012B082E4030043124324033013420375038283B413C083D023E013F804424458046014E014F2064
:40024000560457405D0164806680670889018A089028910492A09309950299809B109C849D0E9E04A180A880C00FC20EC40FCA1FCC3FCEDFD070D230D680D8B00002012058
:4002800002110408070108040A010D380F05140718011A061B061D28212123182407270129122B202D192F22301032083407353E37013E043F4040124105450C46EB480D70
:4002C00049FF4AFF4BFF4EF04F44500C54015604580459045A045B045F0166C06A406B02801A810182048306861887038E089003920C9B0C9C039D0C9E149F03A308AA057D
:40030000AD01AF0EB01CB10FB203B808BA02BB02BE04C003C740C9FFCA07CBFFCC40CD20CEF0CF05D008D804D904DA04DF01E040E1A8E240E32000020220030806010760A4
:400340000A240C400E411104160819061A041D081E401F022120224024802740285029982B022E022F02308031203510376038803A493C083E0142094508498850805220E5
:400380005404560B581259045A8063408002822087408D4891049221954096449B209D029E409F40A001A308A404A520A702A804B001B108B204B301B510B680C0BEC296BF
:4003C000C444CA9FCC3CCECBD04CD208D60FD801E804331834803710CC709C80A7089C80A7089C80A708A708A880EE808708A708E6400C406201C201D802AA01B040EA01ED
:4004000000010C0110011C01003F0000007F7F00000000004000804B4B004000000000000002020000000000000000000000000000000000000000000000000000000000A9
:40044000000000000000000000000000000000000000000000000000000000000000000000000000000000000000000000000000000000000000000000000000000000007C
:40048000000000000000000000000000000000000000000000000000000000000000000000000000000000000000000000000000000000000000000000000000000000003C
:4004C00000000000000000000000000000000000000000000000000000000000000000000000000000000000000000000000000000000000000000000000000000000000FC
:4005000000000000000000000000000000000000000000000000000000000000000000000000000000000000000000000000000000000000000000000000000000000000BB
:0200000490006A
:0400000000004005B7
:0200000490105A
:04000000BC90ACAF55
:0200000490303A
:0200000048D9DD
:0200000490402A
:4000000000000000000000000000000000000000000000000000000000000000000000000000000000000000000000000000000000000000000000000000000000000000C0
:400040000000000000000000000000000000000000000000000000000000000000000000000000000000000000000000000000000000000000000000000000000000000080
:400080000000000000000000000000000000000000000000000000000000000000000000000000000000000000000000000000000000000000000000000000000000000040
:4000C0000000000000000000000000000000000000000000000000000000000000000000000000000000000000000000000000000000000000000000000000000000000000
:0200000490501A
:0C00000000012E16106900012E26594246
:00000001FF